{
	"contracts/assignment/myWallet/MyWallet.sol": {
		"MyWallet": {
			"abi": [
				{
					"anonymous": false,
					"inputs": [
						{
							"indexed": false,
							"internalType": "address",
							"name": "_addr",
							"type": "address"
						},
						{
							"indexed": false,
							"internalType": "uint256",
							"name": "_amount",
							"type": "uint256"
						}
					],
					"name": "DepositEvent",
					"type": "event"
				},
				{
					"anonymous": false,
					"inputs": [
						{
							"indexed": false,
							"internalType": "address",
							"name": "_addr",
							"type": "address"
						},
						{
							"indexed": false,
							"internalType": "uint256",
							"name": "_amount",
							"type": "uint256"
						}
					],
					"name": "WithdrawEvent",
					"type": "event"
				},
				{
					"stateMutability": "nonpayable",
					"type": "fallback"
				},
				{
					"inputs": [
						{
							"internalType": "address",
							"name": "",
							"type": "address"
						}
					],
					"name": "Balances",
					"outputs": [
						{
							"internalType": "uint256",
							"name": "",
							"type": "uint256"
						}
					],
					"stateMutability": "view",
					"type": "function"
				},
				{
					"inputs": [
						{
							"internalType": "uint256",
							"name": "_amount",
							"type": "uint256"
						}
					],
					"name": "deposit",
					"outputs": [],
					"stateMutability": "payable",
					"type": "function"
				},
				{
					"inputs": [],
					"name": "getSmartContractBalance",
					"outputs": [
						{
							"internalType": "uint256",
							"name": "",
							"type": "uint256"
						}
					],
					"stateMutability": "view",
					"type": "function"
				},
				{
					"inputs": [
						{
							"internalType": "address payable",
							"name": "_to",
							"type": "address"
						},
						{
							"internalType": "uint256",
							"name": "_amount",
							"type": "uint256"
						}
					],
					"name": "withdrawalTo",
					"outputs": [],
					"stateMutability": "payable",
					"type": "function"
				},
				{
					"stateMutability": "payable",
					"type": "receive"
				}
			],
			"devdoc": {
				"kind": "dev",
				"methods": {},
				"version": 1
			},
			"evm": {
				"assembly": "    /* \"contracts/assignment/myWallet/MyWallet.sol\":404:1505  contract MyWallet is Owned {... */\n  mstore(0x40, 0x80)\n  callvalue\n  dup1\n  iszero\n  tag_1\n  jumpi\n  0x00\n  dup1\n  revert\ntag_1:\n  pop\n    /* \"contracts/assignment/myWallet/Owned.sol\":105:115  msg.sender */\n  caller\n    /* \"contracts/assignment/myWallet/Owned.sol\":97:102  owner */\n  0x00\n  dup1\n    /* \"contracts/assignment/myWallet/Owned.sol\":97:115  owner = msg.sender */\n  0x0100\n  exp\n  dup2\n  sload\n  dup2\n  0xffffffffffffffffffffffffffffffffffffffff\n  mul\n  not\n  and\n  swap1\n  dup4\n  0xffffffffffffffffffffffffffffffffffffffff\n  and\n  mul\n  or\n  swap1\n  sstore\n  pop\n    /* \"contracts/assignment/myWallet/MyWallet.sol\":404:1505  contract MyWallet is Owned {... */\n  dataSize(sub_0)\n  dup1\n  dataOffset(sub_0)\n  0x00\n  codecopy\n  0x00\n  return\nstop\n\nsub_0: assembly {\n        /* \"contracts/assignment/myWallet/MyWallet.sol\":404:1505  contract MyWallet is Owned {... */\n      mstore(0x40, 0x80)\n      jumpi(tag_1, lt(calldatasize, 0x04))\n      shr(0xe0, calldataload(0x00))\n      dup1\n      0x5145cbc0\n      eq\n      tag_3\n      jumpi\n      dup1\n      0xa8ec4c42\n      eq\n      tag_4\n      jumpi\n      dup1\n      0xb6b55f25\n      eq\n      tag_5\n      jumpi\n      dup1\n      0xd8780354\n      eq\n      tag_6\n      jumpi\n      jump(tag_2)\n    tag_1:\n      jumpi(tag_2, calldatasize)\n        /* \"contracts/assignment/myWallet/MyWallet.sol\":1435:1453  deposit(msg.value) */\n      tag_9\n        /* \"contracts/assignment/myWallet/MyWallet.sol\":1443:1452  msg.value */\n      callvalue\n        /* \"contracts/assignment/myWallet/MyWallet.sol\":1435:1442  deposit */\n      tag_10\n        /* \"contracts/assignment/myWallet/MyWallet.sol\":1435:1453  deposit(msg.value) */\n      jump\t// in\n    tag_9:\n        /* \"contracts/assignment/myWallet/MyWallet.sol\":404:1505  contract MyWallet is Owned {... */\n      stop\n    tag_2:\n      callvalue\n      dup1\n      iszero\n      tag_11\n      jumpi\n      0x00\n      dup1\n      revert\n    tag_11:\n      pop\n      stop\n        /* \"contracts/assignment/myWallet/MyWallet.sol\":623:729  function getSmartContractBalance() public view returns(uint) {... */\n    tag_3:\n      callvalue\n      dup1\n      iszero\n      tag_14\n      jumpi\n      0x00\n      dup1\n      revert\n    tag_14:\n      pop\n      tag_15\n      tag_16\n      jump\t// in\n    tag_15:\n      mload(0x40)\n      tag_17\n      swap2\n      swap1\n      tag_18\n      jump\t// in\n    tag_17:\n      mload(0x40)\n      dup1\n      swap2\n      sub\n      swap1\n      return\n        /* \"contracts/assignment/myWallet/MyWallet.sol\":468:508  mapping(address => uint) public Balances */\n    tag_4:\n      callvalue\n      dup1\n      iszero\n      tag_19\n      jumpi\n      0x00\n      dup1\n      revert\n    tag_19:\n      pop\n      tag_20\n      0x04\n      dup1\n      calldatasize\n      sub\n      dup2\n      add\n      swap1\n      tag_21\n      swap2\n      swap1\n      tag_22\n      jump\t// in\n    tag_21:\n      tag_23\n      jump\t// in\n    tag_20:\n      mload(0x40)\n      tag_24\n      swap2\n      swap1\n      tag_18\n      jump\t// in\n    tag_24:\n      mload(0x40)\n      dup1\n      swap2\n      sub\n      swap1\n      return\n        /* \"contracts/assignment/myWallet/MyWallet.sol\":735:980  function deposit(uint _amount) public payable {... */\n    tag_5:\n      tag_25\n      0x04\n      dup1\n      calldatasize\n      sub\n      dup2\n      add\n      swap1\n      tag_26\n      swap2\n      swap1\n      tag_27\n      jump\t// in\n    tag_26:\n      tag_10\n      jump\t// in\n    tag_25:\n      stop\n        /* \"contracts/assignment/myWallet/MyWallet.sol\":986:1392  function withdrawalTo(address payable _to, uint _amount) public payable {... */\n    tag_6:\n      tag_28\n      0x04\n      dup1\n      calldatasize\n      sub\n      dup2\n      add\n      swap1\n      tag_29\n      swap2\n      swap1\n      tag_30\n      jump\t// in\n    tag_29:\n      tag_31\n      jump\t// in\n    tag_28:\n      stop\n        /* \"contracts/assignment/myWallet/MyWallet.sol\":735:980  function deposit(uint _amount) public payable {... */\n    tag_10:\n        /* \"contracts/assignment/myWallet/MyWallet.sol\":830:837  _amount */\n      dup1\n        /* \"contracts/assignment/myWallet/MyWallet.sol\":807:817  msg.sender */\n      caller\n        /* \"contracts/assignment/myWallet/MyWallet.sol\":799:826  address(msg.sender).balance */\n      0xffffffffffffffffffffffffffffffffffffffff\n      and\n      balance\n        /* \"contracts/assignment/myWallet/MyWallet.sol\":799:837  address(msg.sender).balance >= _amount */\n      lt\n      iszero\n        /* \"contracts/assignment/myWallet/MyWallet.sol\":791:858  require(address(msg.sender).balance >= _amount, \"Not enough ether\") */\n      tag_33\n      jumpi\n      mload(0x40)\n      0x08c379a000000000000000000000000000000000000000000000000000000000\n      dup2\n      mstore\n      0x04\n      add\n      tag_34\n      swap1\n      tag_35\n      jump\t// in\n    tag_34:\n      mload(0x40)\n      dup1\n      swap2\n      sub\n      swap1\n      revert\n    tag_33:\n        /* \"contracts/assignment/myWallet/MyWallet.sol\":891:924  Balances[msg.sender].add(_amount) */\n      tag_36\n        /* \"contracts/assignment/myWallet/MyWallet.sol\":916:923  _amount */\n      dup2\n        /* \"contracts/assignment/myWallet/MyWallet.sol\":891:899  Balances */\n      0x01\n        /* \"contracts/assignment/myWallet/MyWallet.sol\":891:911  Balances[msg.sender] */\n      0x00\n        /* \"contracts/assignment/myWallet/MyWallet.sol\":900:910  msg.sender */\n      caller\n        /* \"contracts/assignment/myWallet/MyWallet.sol\":891:911  Balances[msg.sender] */\n      0xffffffffffffffffffffffffffffffffffffffff\n      and\n      0xffffffffffffffffffffffffffffffffffffffff\n      and\n      dup2\n      mstore\n      0x20\n      add\n      swap1\n      dup2\n      mstore\n      0x20\n      add\n      0x00\n      keccak256\n      sload\n        /* \"contracts/assignment/myWallet/MyWallet.sol\":891:915  Balances[msg.sender].add */\n      tag_37\n      swap1\n        /* \"contracts/assignment/myWallet/MyWallet.sol\":891:924  Balances[msg.sender].add(_amount) */\n      swap2\n      swap1\n      0xffffffff\n      and\n      jump\t// in\n    tag_36:\n        /* \"contracts/assignment/myWallet/MyWallet.sol\":868:876  Balances */\n      0x01\n        /* \"contracts/assignment/myWallet/MyWallet.sol\":868:888  Balances[msg.sender] */\n      0x00\n        /* \"contracts/assignment/myWallet/MyWallet.sol\":877:887  msg.sender */\n      caller\n        /* \"contracts/assignment/myWallet/MyWallet.sol\":868:888  Balances[msg.sender] */\n      0xffffffffffffffffffffffffffffffffffffffff\n      and\n      0xffffffffffffffffffffffffffffffffffffffff\n      and\n      dup2\n      mstore\n      0x20\n      add\n      swap1\n      dup2\n      mstore\n      0x20\n      add\n      0x00\n      keccak256\n        /* \"contracts/assignment/myWallet/MyWallet.sol\":868:924  Balances[msg.sender] = Balances[msg.sender].add(_amount) */\n      dup2\n      swap1\n      sstore\n      pop\n        /* \"contracts/assignment/myWallet/MyWallet.sol\":940:973  DepositEvent(msg.sender, _amount) */\n      0x2d8a08b6430a894aea608bcaa6013d5d3e263bc49110605e4d4ba76930ae5c29\n        /* \"contracts/assignment/myWallet/MyWallet.sol\":953:963  msg.sender */\n      caller\n        /* \"contracts/assignment/myWallet/MyWallet.sol\":965:972  _amount */\n      dup3\n        /* \"contracts/assignment/myWallet/MyWallet.sol\":940:973  DepositEvent(msg.sender, _amount) */\n      mload(0x40)\n      tag_38\n      swap3\n      swap2\n      swap1\n      tag_39\n      jump\t// in\n    tag_38:\n      mload(0x40)\n      dup1\n      swap2\n      sub\n      swap1\n      log1\n        /* \"contracts/assignment/myWallet/MyWallet.sol\":735:980  function deposit(uint _amount) public payable {... */\n      pop\n      jump\t// out\n        /* \"contracts/assignment/myWallet/MyWallet.sol\":623:729  function getSmartContractBalance() public view returns(uint) {... */\n    tag_16:\n        /* \"contracts/assignment/myWallet/MyWallet.sol\":678:682  uint */\n      0x00\n        /* \"contracts/assignment/myWallet/MyWallet.sol\":701:722  address(this).balance */\n      selfbalance\n        /* \"contracts/assignment/myWallet/MyWallet.sol\":694:722  return address(this).balance */\n      swap1\n      pop\n        /* \"contracts/assignment/myWallet/MyWallet.sol\":623:729  function getSmartContractBalance() public view returns(uint) {... */\n      swap1\n      jump\t// out\n        /* \"contracts/assignment/myWallet/MyWallet.sol\":468:508  mapping(address => uint) public Balances */\n    tag_23:\n      mstore(0x20, 0x01)\n      dup1\n      0x00\n      mstore\n      keccak256(0x00, 0x40)\n      0x00\n      swap2\n      pop\n      swap1\n      pop\n      sload\n      dup2\n      jump\t// out\n        /* \"contracts/assignment/myWallet/MyWallet.sol\":986:1392  function withdrawalTo(address payable _to, uint _amount) public payable {... */\n    tag_31:\n        /* \"contracts/assignment/myWallet/MyWallet.sol\":1100:1107  _amount */\n      dup1\n        /* \"contracts/assignment/myWallet/MyWallet.sol\":1076:1084  Balances */\n      0x01\n        /* \"contracts/assignment/myWallet/MyWallet.sol\":1076:1096  Balances[msg.sender] */\n      0x00\n        /* \"contracts/assignment/myWallet/MyWallet.sol\":1085:1095  msg.sender */\n      caller\n        /* \"contracts/assignment/myWallet/MyWallet.sol\":1076:1096  Balances[msg.sender] */\n      0xffffffffffffffffffffffffffffffffffffffff\n      and\n      0xffffffffffffffffffffffffffffffffffffffff\n      and\n      dup2\n      mstore\n      0x20\n      add\n      swap1\n      dup2\n      mstore\n      0x20\n      add\n      0x00\n      keccak256\n      sload\n        /* \"contracts/assignment/myWallet/MyWallet.sol\":1076:1107  Balances[msg.sender] >= _amount */\n      lt\n      iszero\n        /* \"contracts/assignment/myWallet/MyWallet.sol\":1068:1128  require(Balances[msg.sender] >= _amount, \"Not enough ether\") */\n      tag_42\n      jumpi\n      mload(0x40)\n      0x08c379a000000000000000000000000000000000000000000000000000000000\n      dup2\n      mstore\n      0x04\n      add\n      tag_43\n      swap1\n      tag_35\n      jump\t// in\n    tag_43:\n      mload(0x40)\n      dup1\n      swap2\n      sub\n      swap1\n      revert\n    tag_42:\n        /* \"contracts/assignment/myWallet/MyWallet.sol\":1162:1195  Balances[msg.sender].sub(_amount) */\n      tag_44\n        /* \"contracts/assignment/myWallet/MyWallet.sol\":1187:1194  _amount */\n      dup2\n        /* \"contracts/assignment/myWallet/MyWallet.sol\":1162:1170  Balances */\n      0x01\n        /* \"contracts/assignment/myWallet/MyWallet.sol\":1162:1182  Balances[msg.sender] */\n      0x00\n        /* \"contracts/assignment/myWallet/MyWallet.sol\":1171:1181  msg.sender */\n      caller\n        /* \"contracts/assignment/myWallet/MyWallet.sol\":1162:1182  Balances[msg.sender] */\n      0xffffffffffffffffffffffffffffffffffffffff\n      and\n      0xffffffffffffffffffffffffffffffffffffffff\n      and\n      dup2\n      mstore\n      0x20\n      add\n      swap1\n      dup2\n      mstore\n      0x20\n      add\n      0x00\n      keccak256\n      sload\n        /* \"contracts/assignment/myWallet/MyWallet.sol\":1162:1186  Balances[msg.sender].sub */\n      tag_45\n      swap1\n        /* \"contracts/assignment/myWallet/MyWallet.sol\":1162:1195  Balances[msg.sender].sub(_amount) */\n      swap2\n      swap1\n      0xffffffff\n      and\n      jump\t// in\n    tag_44:\n        /* \"contracts/assignment/myWallet/MyWallet.sol\":1138:1146  Balances */\n      0x01\n        /* \"contracts/assignment/myWallet/MyWallet.sol\":1138:1158  Balances[msg.sender] */\n      0x00\n        /* \"contracts/assignment/myWallet/MyWallet.sol\":1147:1157  msg.sender */\n      caller\n        /* \"contracts/assignment/myWallet/MyWallet.sol\":1138:1158  Balances[msg.sender] */\n      0xffffffffffffffffffffffffffffffffffffffff\n      and\n      0xffffffffffffffffffffffffffffffffffffffff\n      and\n      dup2\n      mstore\n      0x20\n      add\n      swap1\n      dup2\n      mstore\n      0x20\n      add\n      0x00\n      keccak256\n        /* \"contracts/assignment/myWallet/MyWallet.sol\":1138:1195  Balances[msg.sender] =  Balances[msg.sender].sub(_amount) */\n      dup2\n      swap1\n      sstore\n      pop\n        /* \"contracts/assignment/myWallet/MyWallet.sol\":1223:1249  Balances[_to].add(_amount) */\n      tag_46\n        /* \"contracts/assignment/myWallet/MyWallet.sol\":1241:1248  _amount */\n      dup2\n        /* \"contracts/assignment/myWallet/MyWallet.sol\":1223:1231  Balances */\n      0x01\n        /* \"contracts/assignment/myWallet/MyWallet.sol\":1223:1236  Balances[_to] */\n      0x00\n        /* \"contracts/assignment/myWallet/MyWallet.sol\":1232:1235  _to */\n      dup6\n        /* \"contracts/assignment/myWallet/MyWallet.sol\":1223:1236  Balances[_to] */\n      0xffffffffffffffffffffffffffffffffffffffff\n      and\n      0xffffffffffffffffffffffffffffffffffffffff\n      and\n      dup2\n      mstore\n      0x20\n      add\n      swap1\n      dup2\n      mstore\n      0x20\n      add\n      0x00\n      keccak256\n      sload\n        /* \"contracts/assignment/myWallet/MyWallet.sol\":1223:1240  Balances[_to].add */\n      tag_37\n      swap1\n        /* \"contracts/assignment/myWallet/MyWallet.sol\":1223:1249  Balances[_to].add(_amount) */\n      swap2\n      swap1\n      0xffffffff\n      and\n      jump\t// in\n    tag_46:\n        /* \"contracts/assignment/myWallet/MyWallet.sol\":1205:1213  Balances */\n      0x01\n        /* \"contracts/assignment/myWallet/MyWallet.sol\":1205:1218  Balances[_to] */\n      0x00\n        /* \"contracts/assignment/myWallet/MyWallet.sol\":1214:1217  _to */\n      dup5\n        /* \"contracts/assignment/myWallet/MyWallet.sol\":1205:1218  Balances[_to] */\n      0xffffffffffffffffffffffffffffffffffffffff\n      and\n      0xffffffffffffffffffffffffffffffffffffffff\n      and\n      dup2\n      mstore\n      0x20\n      add\n      swap1\n      dup2\n      mstore\n      0x20\n      add\n      0x00\n      keccak256\n        /* \"contracts/assignment/myWallet/MyWallet.sol\":1205:1249  Balances[_to] =   Balances[_to].add(_amount) */\n      dup2\n      swap1\n      sstore\n      pop\n        /* \"contracts/assignment/myWallet/MyWallet.sol\":1265:1299  WithdrawEvent(msg.sender, _amount) */\n      0x5dba113b49cfa7c90315e8e604e6b506f7abcb909b01dcb19ec39005086e68fc\n        /* \"contracts/assignment/myWallet/MyWallet.sol\":1279:1289  msg.sender */\n      caller\n        /* \"contracts/assignment/myWallet/MyWallet.sol\":1291:1298  _amount */\n      dup3\n        /* \"contracts/assignment/myWallet/MyWallet.sol\":1265:1299  WithdrawEvent(msg.sender, _amount) */\n      mload(0x40)\n      tag_47\n      swap3\n      swap2\n      swap1\n      tag_39\n      jump\t// in\n    tag_47:\n      mload(0x40)\n      dup1\n      swap2\n      sub\n      swap1\n      log1\n        /* \"contracts/assignment/myWallet/MyWallet.sol\":1314:1340  DepositEvent(_to, _amount) */\n      0x2d8a08b6430a894aea608bcaa6013d5d3e263bc49110605e4d4ba76930ae5c29\n        /* \"contracts/assignment/myWallet/MyWallet.sol\":1327:1330  _to */\n      dup3\n        /* \"contracts/assignment/myWallet/MyWallet.sol\":1332:1339  _amount */\n      dup3\n        /* \"contracts/assignment/myWallet/MyWallet.sol\":1314:1340  DepositEvent(_to, _amount) */\n      mload(0x40)\n      tag_48\n      swap3\n      swap2\n      swap1\n      tag_49\n      jump\t// in\n    tag_48:\n      mload(0x40)\n      dup1\n      swap2\n      sub\n      swap1\n      log1\n        /* \"contracts/assignment/myWallet/MyWallet.sol\":1351:1354  _to */\n      dup2\n        /* \"contracts/assignment/myWallet/MyWallet.sol\":1351:1363  _to.transfer */\n      0xffffffffffffffffffffffffffffffffffffffff\n      and\n        /* \"contracts/assignment/myWallet/MyWallet.sol\":1351:1385  _to.transfer(Balances[msg.sender]) */\n      0x08fc\n        /* \"contracts/assignment/myWallet/MyWallet.sol\":1364:1372  Balances */\n      0x01\n        /* \"contracts/assignment/myWallet/MyWallet.sol\":1364:1384  Balances[msg.sender] */\n      0x00\n        /* \"contracts/assignment/myWallet/MyWallet.sol\":1373:1383  msg.sender */\n      caller\n        /* \"contracts/assignment/myWallet/MyWallet.sol\":1364:1384  Balances[msg.sender] */\n      0xffffffffffffffffffffffffffffffffffffffff\n      and\n      0xffffffffffffffffffffffffffffffffffffffff\n      and\n      dup2\n      mstore\n      0x20\n      add\n      swap1\n      dup2\n      mstore\n      0x20\n      add\n      0x00\n      keccak256\n      sload\n        /* \"contracts/assignment/myWallet/MyWallet.sol\":1351:1385  _to.transfer(Balances[msg.sender]) */\n      swap1\n      dup2\n      iszero\n      mul\n      swap1\n      mload(0x40)\n      0x00\n      mload(0x40)\n      dup1\n      dup4\n      sub\n      dup2\n      dup6\n      dup9\n      dup9\n      call\n      swap4\n      pop\n      pop\n      pop\n      pop\n      iszero\n      dup1\n      iszero\n      tag_51\n      jumpi\n      returndatasize\n      0x00\n      dup1\n      returndatacopy\n      revert(0x00, returndatasize)\n    tag_51:\n      pop\n        /* \"contracts/assignment/myWallet/MyWallet.sol\":986:1392  function withdrawalTo(address payable _to, uint _amount) public payable {... */\n      pop\n      pop\n      jump\t// out\n        /* \"https://github.com/OpenZeppelin/openzeppelin-contracts/blob/master/contracts/utils/math/SafeMath.sol\":2755:2851  function add(uint256 a, uint256 b) internal pure returns (uint256) {... */\n    tag_37:\n        /* \"https://github.com/OpenZeppelin/openzeppelin-contracts/blob/master/contracts/utils/math/SafeMath.sol\":2813:2820  uint256 */\n      0x00\n        /* \"https://github.com/OpenZeppelin/openzeppelin-contracts/blob/master/contracts/utils/math/SafeMath.sol\":2843:2844  b */\n      dup2\n        /* \"https://github.com/OpenZeppelin/openzeppelin-contracts/blob/master/contracts/utils/math/SafeMath.sol\":2839:2840  a */\n      dup4\n        /* \"https://github.com/OpenZeppelin/openzeppelin-contracts/blob/master/contracts/utils/math/SafeMath.sol\":2839:2844  a + b */\n      tag_53\n      swap2\n      swap1\n      tag_54\n      jump\t// in\n    tag_53:\n        /* \"https://github.com/OpenZeppelin/openzeppelin-contracts/blob/master/contracts/utils/math/SafeMath.sol\":2832:2844  return a + b */\n      swap1\n      pop\n        /* \"https://github.com/OpenZeppelin/openzeppelin-contracts/blob/master/contracts/utils/math/SafeMath.sol\":2755:2851  function add(uint256 a, uint256 b) internal pure returns (uint256) {... */\n      swap3\n      swap2\n      pop\n      pop\n      jump\t// out\n        /* \"https://github.com/OpenZeppelin/openzeppelin-contracts/blob/master/contracts/utils/math/SafeMath.sol\":3122:3218  function sub(uint256 a, uint256 b) internal pure returns (uint256) {... */\n    tag_45:\n        /* \"https://github.com/OpenZeppelin/openzeppelin-contracts/blob/master/contracts/utils/math/SafeMath.sol\":3180:3187  uint256 */\n      0x00\n        /* \"https://github.com/OpenZeppelin/openzeppelin-contracts/blob/master/contracts/utils/math/SafeMath.sol\":3210:3211  b */\n      dup2\n        /* \"https://github.com/OpenZeppelin/openzeppelin-contracts/blob/master/contracts/utils/math/SafeMath.sol\":3206:3207  a */\n      dup4\n        /* \"https://github.com/OpenZeppelin/openzeppelin-contracts/blob/master/contracts/utils/math/SafeMath.sol\":3206:3211  a - b */\n      tag_56\n      swap2\n      swap1\n      tag_57\n      jump\t// in\n    tag_56:\n        /* \"https://github.com/OpenZeppelin/openzeppelin-contracts/blob/master/contracts/utils/math/SafeMath.sol\":3199:3211  return a - b */\n      swap1\n      pop\n        /* \"https://github.com/OpenZeppelin/openzeppelin-contracts/blob/master/contracts/utils/math/SafeMath.sol\":3122:3218  function sub(uint256 a, uint256 b) internal pure returns (uint256) {... */\n      swap3\n      swap2\n      pop\n      pop\n      jump\t// out\n        /* \"#utility.yul\":7:146   */\n    tag_59:\n      0x00\n        /* \"#utility.yul\":91:97   */\n      dup2\n        /* \"#utility.yul\":78:98   */\n      calldataload\n        /* \"#utility.yul\":69:98   */\n      swap1\n      pop\n        /* \"#utility.yul\":107:140   */\n      tag_61\n        /* \"#utility.yul\":134:139   */\n      dup2\n        /* \"#utility.yul\":107:140   */\n      tag_62\n      jump\t// in\n    tag_61:\n        /* \"#utility.yul\":59:146   */\n      swap3\n      swap2\n      pop\n      pop\n      jump\t// out\n        /* \"#utility.yul\":152:307   */\n    tag_63:\n      0x00\n        /* \"#utility.yul\":244:250   */\n      dup2\n        /* \"#utility.yul\":231:251   */\n      calldataload\n        /* \"#utility.yul\":222:251   */\n      swap1\n      pop\n        /* \"#utility.yul\":260:301   */\n      tag_65\n        /* \"#utility.yul\":295:300   */\n      dup2\n        /* \"#utility.yul\":260:301   */\n      tag_66\n      jump\t// in\n    tag_65:\n        /* \"#utility.yul\":212:307   */\n      swap3\n      swap2\n      pop\n      pop\n      jump\t// out\n        /* \"#utility.yul\":313:452   */\n    tag_67:\n      0x00\n        /* \"#utility.yul\":397:403   */\n      dup2\n        /* \"#utility.yul\":384:404   */\n      calldataload\n        /* \"#utility.yul\":375:404   */\n      swap1\n      pop\n        /* \"#utility.yul\":413:446   */\n      tag_69\n        /* \"#utility.yul\":440:445   */\n      dup2\n        /* \"#utility.yul\":413:446   */\n      tag_70\n      jump\t// in\n    tag_69:\n        /* \"#utility.yul\":365:452   */\n      swap3\n      swap2\n      pop\n      pop\n      jump\t// out\n        /* \"#utility.yul\":458:720   */\n    tag_22:\n      0x00\n        /* \"#utility.yul\":566:568   */\n      0x20\n        /* \"#utility.yul\":554:563   */\n      dup3\n        /* \"#utility.yul\":545:552   */\n      dup5\n        /* \"#utility.yul\":541:564   */\n      sub\n        /* \"#utility.yul\":537:569   */\n      slt\n        /* \"#utility.yul\":534:536   */\n      iszero\n      tag_72\n      jumpi\n        /* \"#utility.yul\":582:583   */\n      0x00\n        /* \"#utility.yul\":579:580   */\n      dup1\n        /* \"#utility.yul\":572:584   */\n      revert\n        /* \"#utility.yul\":534:536   */\n    tag_72:\n        /* \"#utility.yul\":625:626   */\n      0x00\n        /* \"#utility.yul\":650:703   */\n      tag_73\n        /* \"#utility.yul\":695:702   */\n      dup5\n        /* \"#utility.yul\":686:692   */\n      dup3\n        /* \"#utility.yul\":675:684   */\n      dup6\n        /* \"#utility.yul\":671:693   */\n      add\n        /* \"#utility.yul\":650:703   */\n      tag_59\n      jump\t// in\n    tag_73:\n        /* \"#utility.yul\":640:703   */\n      swap2\n      pop\n        /* \"#utility.yul\":596:713   */\n      pop\n        /* \"#utility.yul\":524:720   */\n      swap3\n      swap2\n      pop\n      pop\n      jump\t// out\n        /* \"#utility.yul\":726:1149   */\n    tag_30:\n      0x00\n      dup1\n        /* \"#utility.yul\":859:861   */\n      0x40\n        /* \"#utility.yul\":847:856   */\n      dup4\n        /* \"#utility.yul\":838:845   */\n      dup6\n        /* \"#utility.yul\":834:857   */\n      sub\n        /* \"#utility.yul\":830:862   */\n      slt\n        /* \"#utility.yul\":827:829   */\n      iszero\n      tag_75\n      jumpi\n        /* \"#utility.yul\":875:876   */\n      0x00\n        /* \"#utility.yul\":872:873   */\n      dup1\n        /* \"#utility.yul\":865:877   */\n      revert\n        /* \"#utility.yul\":827:829   */\n    tag_75:\n        /* \"#utility.yul\":918:919   */\n      0x00\n        /* \"#utility.yul\":943:1004   */\n      tag_76\n        /* \"#utility.yul\":996:1003   */\n      dup6\n        /* \"#utility.yul\":987:993   */\n      dup3\n        /* \"#utility.yul\":976:985   */\n      dup7\n        /* \"#utility.yul\":972:994   */\n      add\n        /* \"#utility.yul\":943:1004   */\n      tag_63\n      jump\t// in\n    tag_76:\n        /* \"#utility.yul\":933:1004   */\n      swap3\n      pop\n        /* \"#utility.yul\":889:1014   */\n      pop\n        /* \"#utility.yul\":1053:1055   */\n      0x20\n        /* \"#utility.yul\":1079:1132   */\n      tag_77\n        /* \"#utility.yul\":1124:1131   */\n      dup6\n        /* \"#utility.yul\":1115:1121   */\n      dup3\n        /* \"#utility.yul\":1104:1113   */\n      dup7\n        /* \"#utility.yul\":1100:1122   */\n      add\n        /* \"#utility.yul\":1079:1132   */\n      tag_67\n      jump\t// in\n    tag_77:\n        /* \"#utility.yul\":1069:1132   */\n      swap2\n      pop\n        /* \"#utility.yul\":1024:1142   */\n      pop\n        /* \"#utility.yul\":817:1149   */\n      swap3\n      pop\n      swap3\n      swap1\n      pop\n      jump\t// out\n        /* \"#utility.yul\":1155:1417   */\n    tag_27:\n      0x00\n        /* \"#utility.yul\":1263:1265   */\n      0x20\n        /* \"#utility.yul\":1251:1260   */\n      dup3\n        /* \"#utility.yul\":1242:1249   */\n      dup5\n        /* \"#utility.yul\":1238:1261   */\n      sub\n        /* \"#utility.yul\":1234:1266   */\n      slt\n        /* \"#utility.yul\":1231:1233   */\n      iszero\n      tag_79\n      jumpi\n        /* \"#utility.yul\":1279:1280   */\n      0x00\n        /* \"#utility.yul\":1276:1277   */\n      dup1\n        /* \"#utility.yul\":1269:1281   */\n      revert\n        /* \"#utility.yul\":1231:1233   */\n    tag_79:\n        /* \"#utility.yul\":1322:1323   */\n      0x00\n        /* \"#utility.yul\":1347:1400   */\n      tag_80\n        /* \"#utility.yul\":1392:1399   */\n      dup5\n        /* \"#utility.yul\":1383:1389   */\n      dup3\n        /* \"#utility.yul\":1372:1381   */\n      dup6\n        /* \"#utility.yul\":1368:1390   */\n      add\n        /* \"#utility.yul\":1347:1400   */\n      tag_67\n      jump\t// in\n    tag_80:\n        /* \"#utility.yul\":1337:1400   */\n      swap2\n      pop\n        /* \"#utility.yul\":1293:1410   */\n      pop\n        /* \"#utility.yul\":1221:1417   */\n      swap3\n      swap2\n      pop\n      pop\n      jump\t// out\n        /* \"#utility.yul\":1423:1570   */\n    tag_81:\n        /* \"#utility.yul\":1518:1563   */\n      tag_83\n        /* \"#utility.yul\":1557:1562   */\n      dup2\n        /* \"#utility.yul\":1518:1563   */\n      tag_84\n      jump\t// in\n    tag_83:\n        /* \"#utility.yul\":1513:1516   */\n      dup3\n        /* \"#utility.yul\":1506:1564   */\n      mstore\n        /* \"#utility.yul\":1496:1570   */\n      pop\n      pop\n      jump\t// out\n        /* \"#utility.yul\":1576:1694   */\n    tag_85:\n        /* \"#utility.yul\":1663:1687   */\n      tag_87\n        /* \"#utility.yul\":1681:1686   */\n      dup2\n        /* \"#utility.yul\":1663:1687   */\n      tag_88\n      jump\t// in\n    tag_87:\n        /* \"#utility.yul\":1658:1661   */\n      dup3\n        /* \"#utility.yul\":1651:1688   */\n      mstore\n        /* \"#utility.yul\":1641:1694   */\n      pop\n      pop\n      jump\t// out\n        /* \"#utility.yul\":1700:2014   */\n    tag_89:\n      0x00\n        /* \"#utility.yul\":1863:1930   */\n      tag_91\n        /* \"#utility.yul\":1927:1929   */\n      0x10\n        /* \"#utility.yul\":1922:1925   */\n      dup4\n        /* \"#utility.yul\":1863:1930   */\n      tag_92\n      jump\t// in\n    tag_91:\n        /* \"#utility.yul\":1856:1930   */\n      swap2\n      pop\n        /* \"#utility.yul\":1960:1978   */\n      0x4e6f7420656e6f75676820657468657200000000000000000000000000000000\n        /* \"#utility.yul\":1956:1957   */\n      0x00\n        /* \"#utility.yul\":1951:1954   */\n      dup4\n        /* \"#utility.yul\":1947:1958   */\n      add\n        /* \"#utility.yul\":1940:1979   */\n      mstore\n        /* \"#utility.yul\":2005:2007   */\n      0x20\n        /* \"#utility.yul\":2000:2003   */\n      dup3\n        /* \"#utility.yul\":1996:2008   */\n      add\n        /* \"#utility.yul\":1989:2008   */\n      swap1\n      pop\n        /* \"#utility.yul\":1846:2014   */\n      swap2\n      swap1\n      pop\n      jump\t// out\n        /* \"#utility.yul\":2020:2138   */\n    tag_93:\n        /* \"#utility.yul\":2107:2131   */\n      tag_95\n        /* \"#utility.yul\":2125:2130   */\n      dup2\n        /* \"#utility.yul\":2107:2131   */\n      tag_96\n      jump\t// in\n    tag_95:\n        /* \"#utility.yul\":2102:2105   */\n      dup3\n        /* \"#utility.yul\":2095:2132   */\n      mstore\n        /* \"#utility.yul\":2085:2138   */\n      pop\n      pop\n      jump\t// out\n        /* \"#utility.yul\":2144:2492   */\n    tag_49:\n      0x00\n        /* \"#utility.yul\":2311:2313   */\n      0x40\n        /* \"#utility.yul\":2300:2309   */\n      dup3\n        /* \"#utility.yul\":2296:2314   */\n      add\n        /* \"#utility.yul\":2288:2314   */\n      swap1\n      pop\n        /* \"#utility.yul\":2324:2403   */\n      tag_98\n        /* \"#utility.yul\":2400:2401   */\n      0x00\n        /* \"#utility.yul\":2389:2398   */\n      dup4\n        /* \"#utility.yul\":2385:2402   */\n      add\n        /* \"#utility.yul\":2376:2382   */\n      dup6\n        /* \"#utility.yul\":2324:2403   */\n      tag_81\n      jump\t// in\n    tag_98:\n        /* \"#utility.yul\":2413:2485   */\n      tag_99\n        /* \"#utility.yul\":2481:2483   */\n      0x20\n        /* \"#utility.yul\":2470:2479   */\n      dup4\n        /* \"#utility.yul\":2466:2484   */\n      add\n        /* \"#utility.yul\":2457:2463   */\n      dup5\n        /* \"#utility.yul\":2413:2485   */\n      tag_93\n      jump\t// in\n    tag_99:\n        /* \"#utility.yul\":2278:2492   */\n      swap4\n      swap3\n      pop\n      pop\n      pop\n      jump\t// out\n        /* \"#utility.yul\":2498:2830   */\n    tag_39:\n      0x00\n        /* \"#utility.yul\":2657:2659   */\n      0x40\n        /* \"#utility.yul\":2646:2655   */\n      dup3\n        /* \"#utility.yul\":2642:2660   */\n      add\n        /* \"#utility.yul\":2634:2660   */\n      swap1\n      pop\n        /* \"#utility.yul\":2670:2741   */\n      tag_101\n        /* \"#utility.yul\":2738:2739   */\n      0x00\n        /* \"#utility.yul\":2727:2736   */\n      dup4\n        /* \"#utility.yul\":2723:2740   */\n      add\n        /* \"#utility.yul\":2714:2720   */\n      dup6\n        /* \"#utility.yul\":2670:2741   */\n      tag_85\n      jump\t// in\n    tag_101:\n        /* \"#utility.yul\":2751:2823   */\n      tag_102\n        /* \"#utility.yul\":2819:2821   */\n      0x20\n        /* \"#utility.yul\":2808:2817   */\n      dup4\n        /* \"#utility.yul\":2804:2822   */\n      add\n        /* \"#utility.yul\":2795:2801   */\n      dup5\n        /* \"#utility.yul\":2751:2823   */\n      tag_93\n      jump\t// in\n    tag_102:\n        /* \"#utility.yul\":2624:2830   */\n      swap4\n      swap3\n      pop\n      pop\n      pop\n      jump\t// out\n        /* \"#utility.yul\":2836:3255   */\n    tag_35:\n      0x00\n        /* \"#utility.yul\":3040:3042   */\n      0x20\n        /* \"#utility.yul\":3029:3038   */\n      dup3\n        /* \"#utility.yul\":3025:3043   */\n      add\n        /* \"#utility.yul\":3017:3043   */\n      swap1\n      pop\n        /* \"#utility.yul\":3089:3098   */\n      dup2\n        /* \"#utility.yul\":3083:3087   */\n      dup2\n        /* \"#utility.yul\":3079:3099   */\n      sub\n        /* \"#utility.yul\":3075:3076   */\n      0x00\n        /* \"#utility.yul\":3064:3073   */\n      dup4\n        /* \"#utility.yul\":3060:3077   */\n      add\n        /* \"#utility.yul\":3053:3100   */\n      mstore\n        /* \"#utility.yul\":3117:3248   */\n      tag_104\n        /* \"#utility.yul\":3243:3247   */\n      dup2\n        /* \"#utility.yul\":3117:3248   */\n      tag_89\n      jump\t// in\n    tag_104:\n        /* \"#utility.yul\":3109:3248   */\n      swap1\n      pop\n        /* \"#utility.yul\":3007:3255   */\n      swap2\n      swap1\n      pop\n      jump\t// out\n        /* \"#utility.yul\":3261:3483   */\n    tag_18:\n      0x00\n        /* \"#utility.yul\":3392:3394   */\n      0x20\n        /* \"#utility.yul\":3381:3390   */\n      dup3\n        /* \"#utility.yul\":3377:3395   */\n      add\n        /* \"#utility.yul\":3369:3395   */\n      swap1\n      pop\n        /* \"#utility.yul\":3405:3476   */\n      tag_106\n        /* \"#utility.yul\":3473:3474   */\n      0x00\n        /* \"#utility.yul\":3462:3471   */\n      dup4\n        /* \"#utility.yul\":3458:3475   */\n      add\n        /* \"#utility.yul\":3449:3455   */\n      dup5\n        /* \"#utility.yul\":3405:3476   */\n      tag_93\n      jump\t// in\n    tag_106:\n        /* \"#utility.yul\":3359:3483   */\n      swap3\n      swap2\n      pop\n      pop\n      jump\t// out\n        /* \"#utility.yul\":3489:3658   */\n    tag_92:\n      0x00\n        /* \"#utility.yul\":3607:3613   */\n      dup3\n        /* \"#utility.yul\":3602:3605   */\n      dup3\n        /* \"#utility.yul\":3595:3614   */\n      mstore\n        /* \"#utility.yul\":3647:3651   */\n      0x20\n        /* \"#utility.yul\":3642:3645   */\n      dup3\n        /* \"#utility.yul\":3638:3652   */\n      add\n        /* \"#utility.yul\":3623:3652   */\n      swap1\n      pop\n        /* \"#utility.yul\":3585:3658   */\n      swap3\n      swap2\n      pop\n      pop\n      jump\t// out\n        /* \"#utility.yul\":3664:3969   */\n    tag_54:\n      0x00\n        /* \"#utility.yul\":3723:3743   */\n      tag_109\n        /* \"#utility.yul\":3741:3742   */\n      dup3\n        /* \"#utility.yul\":3723:3743   */\n      tag_96\n      jump\t// in\n    tag_109:\n        /* \"#utility.yul\":3718:3743   */\n      swap2\n      pop\n        /* \"#utility.yul\":3757:3777   */\n      tag_110\n        /* \"#utility.yul\":3775:3776   */\n      dup4\n        /* \"#utility.yul\":3757:3777   */\n      tag_96\n      jump\t// in\n    tag_110:\n        /* \"#utility.yul\":3752:3777   */\n      swap3\n      pop\n        /* \"#utility.yul\":3911:3912   */\n      dup3\n        /* \"#utility.yul\":3843:3909   */\n      0xffffffffffffffffffffffffffffffffffffffffffffffffffffffffffffffff\n        /* \"#utility.yul\":3839:3913   */\n      sub\n        /* \"#utility.yul\":3836:3837   */\n      dup3\n        /* \"#utility.yul\":3833:3914   */\n      gt\n        /* \"#utility.yul\":3830:3832   */\n      iszero\n      tag_111\n      jumpi\n        /* \"#utility.yul\":3917:3935   */\n      tag_112\n      tag_113\n      jump\t// in\n    tag_112:\n        /* \"#utility.yul\":3830:3832   */\n    tag_111:\n        /* \"#utility.yul\":3961:3962   */\n      dup3\n        /* \"#utility.yul\":3958:3959   */\n      dup3\n        /* \"#utility.yul\":3954:3963   */\n      add\n        /* \"#utility.yul\":3947:3963   */\n      swap1\n      pop\n        /* \"#utility.yul\":3708:3969   */\n      swap3\n      swap2\n      pop\n      pop\n      jump\t// out\n        /* \"#utility.yul\":3975:4166   */\n    tag_57:\n      0x00\n        /* \"#utility.yul\":4035:4055   */\n      tag_115\n        /* \"#utility.yul\":4053:4054   */\n      dup3\n        /* \"#utility.yul\":4035:4055   */\n      tag_96\n      jump\t// in\n    tag_115:\n        /* \"#utility.yul\":4030:4055   */\n      swap2\n      pop\n        /* \"#utility.yul\":4069:4089   */\n      tag_116\n        /* \"#utility.yul\":4087:4088   */\n      dup4\n        /* \"#utility.yul\":4069:4089   */\n      tag_96\n      jump\t// in\n    tag_116:\n        /* \"#utility.yul\":4064:4089   */\n      swap3\n      pop\n        /* \"#utility.yul\":4108:4109   */\n      dup3\n        /* \"#utility.yul\":4105:4106   */\n      dup3\n        /* \"#utility.yul\":4102:4110   */\n      lt\n        /* \"#utility.yul\":4099:4101   */\n      iszero\n      tag_117\n      jumpi\n        /* \"#utility.yul\":4113:4131   */\n      tag_118\n      tag_113\n      jump\t// in\n    tag_118:\n        /* \"#utility.yul\":4099:4101   */\n    tag_117:\n        /* \"#utility.yul\":4158:4159   */\n      dup3\n        /* \"#utility.yul\":4155:4156   */\n      dup3\n        /* \"#utility.yul\":4151:4160   */\n      sub\n        /* \"#utility.yul\":4143:4160   */\n      swap1\n      pop\n        /* \"#utility.yul\":4020:4166   */\n      swap3\n      swap2\n      pop\n      pop\n      jump\t// out\n        /* \"#utility.yul\":4172:4268   */\n    tag_88:\n      0x00\n        /* \"#utility.yul\":4238:4262   */\n      tag_120\n        /* \"#utility.yul\":4256:4261   */\n      dup3\n        /* \"#utility.yul\":4238:4262   */\n      tag_121\n      jump\t// in\n    tag_120:\n        /* \"#utility.yul\":4227:4262   */\n      swap1\n      pop\n        /* \"#utility.yul\":4217:4268   */\n      swap2\n      swap1\n      pop\n      jump\t// out\n        /* \"#utility.yul\":4274:4378   */\n    tag_122:\n      0x00\n        /* \"#utility.yul\":4348:4372   */\n      tag_124\n        /* \"#utility.yul\":4366:4371   */\n      dup3\n        /* \"#utility.yul\":4348:4372   */\n      tag_121\n      jump\t// in\n    tag_124:\n        /* \"#utility.yul\":4337:4372   */\n      swap1\n      pop\n        /* \"#utility.yul\":4327:4378   */\n      swap2\n      swap1\n      pop\n      jump\t// out\n        /* \"#utility.yul\":4384:4510   */\n    tag_121:\n      0x00\n        /* \"#utility.yul\":4461:4503   */\n      0xffffffffffffffffffffffffffffffffffffffff\n        /* \"#utility.yul\":4454:4459   */\n      dup3\n        /* \"#utility.yul\":4450:4504   */\n      and\n        /* \"#utility.yul\":4439:4504   */\n      swap1\n      pop\n        /* \"#utility.yul\":4429:4510   */\n      swap2\n      swap1\n      pop\n      jump\t// out\n        /* \"#utility.yul\":4516:4593   */\n    tag_96:\n      0x00\n        /* \"#utility.yul\":4582:4587   */\n      dup2\n        /* \"#utility.yul\":4571:4587   */\n      swap1\n      pop\n        /* \"#utility.yul\":4561:4593   */\n      swap2\n      swap1\n      pop\n      jump\t// out\n        /* \"#utility.yul\":4599:4733   */\n    tag_84:\n      0x00\n        /* \"#utility.yul\":4690:4727   */\n      tag_128\n        /* \"#utility.yul\":4721:4726   */\n      dup3\n        /* \"#utility.yul\":4690:4727   */\n      tag_129\n      jump\t// in\n    tag_128:\n        /* \"#utility.yul\":4677:4727   */\n      swap1\n      pop\n        /* \"#utility.yul\":4667:4733   */\n      swap2\n      swap1\n      pop\n      jump\t// out\n        /* \"#utility.yul\":4739:4865   */\n    tag_129:\n      0x00\n        /* \"#utility.yul\":4822:4859   */\n      tag_131\n        /* \"#utility.yul\":4853:4858   */\n      dup3\n        /* \"#utility.yul\":4822:4859   */\n      tag_132\n      jump\t// in\n    tag_131:\n        /* \"#utility.yul\":4809:4859   */\n      swap1\n      pop\n        /* \"#utility.yul\":4799:4865   */\n      swap2\n      swap1\n      pop\n      jump\t// out\n        /* \"#utility.yul\":4871:4984   */\n    tag_132:\n      0x00\n        /* \"#utility.yul\":4954:4978   */\n      tag_134\n        /* \"#utility.yul\":4972:4977   */\n      dup3\n        /* \"#utility.yul\":4954:4978   */\n      tag_121\n      jump\t// in\n    tag_134:\n        /* \"#utility.yul\":4941:4978   */\n      swap1\n      pop\n        /* \"#utility.yul\":4931:4984   */\n      swap2\n      swap1\n      pop\n      jump\t// out\n        /* \"#utility.yul\":4990:5170   */\n    tag_113:\n        /* \"#utility.yul\":5038:5115   */\n      0x4e487b7100000000000000000000000000000000000000000000000000000000\n        /* \"#utility.yul\":5035:5036   */\n      0x00\n        /* \"#utility.yul\":5028:5116   */\n      mstore\n        /* \"#utility.yul\":5135:5139   */\n      0x11\n        /* \"#utility.yul\":5132:5133   */\n      0x04\n        /* \"#utility.yul\":5125:5140   */\n      mstore\n        /* \"#utility.yul\":5159:5163   */\n      0x24\n        /* \"#utility.yul\":5156:5157   */\n      0x00\n        /* \"#utility.yul\":5149:5164   */\n      revert\n        /* \"#utility.yul\":5176:5298   */\n    tag_62:\n        /* \"#utility.yul\":5249:5273   */\n      tag_137\n        /* \"#utility.yul\":5267:5272   */\n      dup2\n        /* \"#utility.yul\":5249:5273   */\n      tag_88\n      jump\t// in\n    tag_137:\n        /* \"#utility.yul\":5242:5247   */\n      dup2\n        /* \"#utility.yul\":5239:5274   */\n      eq\n        /* \"#utility.yul\":5229:5231   */\n      tag_138\n      jumpi\n        /* \"#utility.yul\":5288:5289   */\n      0x00\n        /* \"#utility.yul\":5285:5286   */\n      dup1\n        /* \"#utility.yul\":5278:5290   */\n      revert\n        /* \"#utility.yul\":5229:5231   */\n    tag_138:\n        /* \"#utility.yul\":5219:5298   */\n      pop\n      jump\t// out\n        /* \"#utility.yul\":5304:5442   */\n    tag_66:\n        /* \"#utility.yul\":5385:5417   */\n      tag_140\n        /* \"#utility.yul\":5411:5416   */\n      dup2\n        /* \"#utility.yul\":5385:5417   */\n      tag_122\n      jump\t// in\n    tag_140:\n        /* \"#utility.yul\":5378:5383   */\n      dup2\n        /* \"#utility.yul\":5375:5418   */\n      eq\n        /* \"#utility.yul\":5365:5367   */\n      tag_141\n      jumpi\n        /* \"#utility.yul\":5432:5433   */\n      0x00\n        /* \"#utility.yul\":5429:5430   */\n      dup1\n        /* \"#utility.yul\":5422:5434   */\n      revert\n        /* \"#utility.yul\":5365:5367   */\n    tag_141:\n        /* \"#utility.yul\":5355:5442   */\n      pop\n      jump\t// out\n        /* \"#utility.yul\":5448:5570   */\n    tag_70:\n        /* \"#utility.yul\":5521:5545   */\n      tag_143\n        /* \"#utility.yul\":5539:5544   */\n      dup2\n        /* \"#utility.yul\":5521:5545   */\n      tag_96\n      jump\t// in\n    tag_143:\n        /* \"#utility.yul\":5514:5519   */\n      dup2\n        /* \"#utility.yul\":5511:5546   */\n      eq\n        /* \"#utility.yul\":5501:5503   */\n      tag_144\n      jumpi\n        /* \"#utility.yul\":5560:5561   */\n      0x00\n        /* \"#utility.yul\":5557:5558   */\n      dup1\n        /* \"#utility.yul\":5550:5562   */\n      revert\n        /* \"#utility.yul\":5501:5503   */\n    tag_144:\n        /* \"#utility.yul\":5491:5570   */\n      pop\n      jump\t// out\n\n    auxdata: 0xa2646970667358221220cc26567de0eb9ba6d4f751590585a55884e8f508c24a5d1f02d1646bf009d38e64736f6c63430008000033\n}\n",
				"bytecode": {
					"linkReferences": {},
					"object": "608060405234801561001057600080fd5b50336000806101000a81548173ffffffffffffffffffffffffffffffffffffffff021916908373ffffffffffffffffffffffffffffffffffffffff1602179055506108b1806100606000396000f3fe6080604052600436106100435760003560e01c80635145cbc014610062578063a8ec4c421461008d578063b6b55f25146100ca578063d8780354146100e657610053565b366100535761005134610102565b005b34801561005f57600080fd5b50005b34801561006e57600080fd5b5061007761022d565b60405161008491906106cd565b60405180910390f35b34801561009957600080fd5b506100b460048036038101906100af9190610560565b610235565b6040516100c191906106cd565b60405180910390f35b6100e460048036038101906100df91906105c5565b610102565b005b61010060048036038101906100fb9190610589565b61024d565b005b803373ffffffffffffffffffffffffffffffffffffffff1631101561015c576040517f08c379a0000000000000000000000000000000000000000000000000000000008152600401610153906106ad565b60405180910390fd5b6101ae81600160003373ffffffffffffffffffffffffffffffffffffffff1673ffffffffffffffffffffffffffffffffffffffff168152602001908152602001600020546104f590919063ffffffff16565b600160003373ffffffffffffffffffffffffffffffffffffffff1673ffffffffffffffffffffffffffffffffffffffff168152602001908152602001600020819055507f2d8a08b6430a894aea608bcaa6013d5d3e263bc49110605e4d4ba76930ae5c293382604051610222929190610684565b60405180910390a150565b600047905090565b60016020528060005260406000206000915090505481565b80600160003373ffffffffffffffffffffffffffffffffffffffff1673ffffffffffffffffffffffffffffffffffffffff1681526020019081526020016000205410156102cf576040517f08c379a00000000000000000000000000000000000000000000000000000000081526004016102c6906106ad565b60405180910390fd5b61032181600160003373ffffffffffffffffffffffffffffffffffffffff1673ffffffffffffffffffffffffffffffffffffffff1681526020019081526020016000205461050b90919063ffffffff16565b600160003373ffffffffffffffffffffffffffffffffffffffff1673ffffffffffffffffffffffffffffffffffffffff168152602001908152602001600020819055506103b681600160008573ffffffffffffffffffffffffffffffffffffffff1673ffffffffffffffffffffffffffffffffffffffff168152602001908152602001600020546104f590919063ffffffff16565b600160008473ffffffffffffffffffffffffffffffffffffffff1673ffffffffffffffffffffffffffffffffffffffff168152602001908152602001600020819055507f5dba113b49cfa7c90315e8e604e6b506f7abcb909b01dcb19ec39005086e68fc338260405161042a929190610684565b60405180910390a17f2d8a08b6430a894aea608bcaa6013d5d3e263bc49110605e4d4ba76930ae5c29828260405161046392919061065b565b60405180910390a18173ffffffffffffffffffffffffffffffffffffffff166108fc600160003373ffffffffffffffffffffffffffffffffffffffff1673ffffffffffffffffffffffffffffffffffffffff168152602001908152602001600020549081150290604051600060405180830381858888f193505050501580156104f0573d6000803e3d6000fd5b505050565b6000818361050391906106f9565b905092915050565b60008183610519919061074f565b905092915050565b60008135905061053081610836565b92915050565b6000813590506105458161084d565b92915050565b60008135905061055a81610864565b92915050565b60006020828403121561057257600080fd5b600061058084828501610521565b91505092915050565b6000806040838503121561059c57600080fd5b60006105aa85828601610536565b92505060206105bb8582860161054b565b9150509250929050565b6000602082840312156105d757600080fd5b60006105e58482850161054b565b91505092915050565b6105f7816107d1565b82525050565b61060681610783565b82525050565b60006106196010836106e8565b91507f4e6f7420656e6f756768206574686572000000000000000000000000000000006000830152602082019050919050565b610655816107c7565b82525050565b600060408201905061067060008301856105ee565b61067d602083018461064c565b9392505050565b600060408201905061069960008301856105fd565b6106a6602083018461064c565b9392505050565b600060208201905081810360008301526106c68161060c565b9050919050565b60006020820190506106e2600083018461064c565b92915050565b600082825260208201905092915050565b6000610704826107c7565b915061070f836107c7565b9250827fffffffffffffffffffffffffffffffffffffffffffffffffffffffffffffffff0382111561074457610743610807565b5b828201905092915050565b600061075a826107c7565b9150610765836107c7565b92508282101561077857610777610807565b5b828203905092915050565b600061078e826107a7565b9050919050565b60006107a0826107a7565b9050919050565b600073ffffffffffffffffffffffffffffffffffffffff82169050919050565b6000819050919050565b60006107dc826107e3565b9050919050565b60006107ee826107f5565b9050919050565b6000610800826107a7565b9050919050565b7f4e487b7100000000000000000000000000000000000000000000000000000000600052601160045260246000fd5b61083f81610783565b811461084a57600080fd5b50565b61085681610795565b811461086157600080fd5b50565b61086d816107c7565b811461087857600080fd5b5056fea2646970667358221220cc26567de0eb9ba6d4f751590585a55884e8f508c24a5d1f02d1646bf009d38e64736f6c63430008000033",
					"opcodes": "PUSH1 0x80 PUSH1 0x40 MSTORE CALLVALUE DUP1 ISZERO PUSH2 0x10 JUMPI PUSH1 0x0 DUP1 REVERT JUMPDEST POP CALLER PUSH1 0x0 DUP1 PUSH2 0x100 EXP DUP2 SLOAD DUP2 PUSH20 0xFFFFFFFFFFFFFFFFFFFFFFFFFFFFFFFFFFFFFFFF MUL NOT AND SWAP1 DUP4 PUSH20 0xFFFFFFFFFFFFFFFFFFFFFFFFFFFFFFFFFFFFFFFF AND MUL OR SWAP1 SSTORE POP PUSH2 0x8B1 DUP1 PUSH2 0x60 PUSH1 0x0 CODECOPY PUSH1 0x0 RETURN INVALID PUSH1 0x80 PUSH1 0x40 MSTORE PUSH1 0x4 CALLDATASIZE LT PUSH2 0x43 JUMPI PUSH1 0x0 CALLDATALOAD PUSH1 0xE0 SHR DUP1 PUSH4 0x5145CBC0 EQ PUSH2 0x62 JUMPI DUP1 PUSH4 0xA8EC4C42 EQ PUSH2 0x8D JUMPI DUP1 PUSH4 0xB6B55F25 EQ PUSH2 0xCA JUMPI DUP1 PUSH4 0xD8780354 EQ PUSH2 0xE6 JUMPI PUSH2 0x53 JUMP JUMPDEST CALLDATASIZE PUSH2 0x53 JUMPI PUSH2 0x51 CALLVALUE PUSH2 0x102 JUMP JUMPDEST STOP JUMPDEST CALLVALUE DUP1 ISZERO PUSH2 0x5F JUMPI PUSH1 0x0 DUP1 REVERT JUMPDEST POP STOP JUMPDEST CALLVALUE DUP1 ISZERO PUSH2 0x6E JUMPI PUSH1 0x0 DUP1 REVERT JUMPDEST POP PUSH2 0x77 PUSH2 0x22D JUMP JUMPDEST PUSH1 0x40 MLOAD PUSH2 0x84 SWAP2 SWAP1 PUSH2 0x6CD JUMP JUMPDEST PUSH1 0x40 MLOAD DUP1 SWAP2 SUB SWAP1 RETURN JUMPDEST CALLVALUE DUP1 ISZERO PUSH2 0x99 JUMPI PUSH1 0x0 DUP1 REVERT JUMPDEST POP PUSH2 0xB4 PUSH1 0x4 DUP1 CALLDATASIZE SUB DUP2 ADD SWAP1 PUSH2 0xAF SWAP2 SWAP1 PUSH2 0x560 JUMP JUMPDEST PUSH2 0x235 JUMP JUMPDEST PUSH1 0x40 MLOAD PUSH2 0xC1 SWAP2 SWAP1 PUSH2 0x6CD JUMP JUMPDEST PUSH1 0x40 MLOAD DUP1 SWAP2 SUB SWAP1 RETURN JUMPDEST PUSH2 0xE4 PUSH1 0x4 DUP1 CALLDATASIZE SUB DUP2 ADD SWAP1 PUSH2 0xDF SWAP2 SWAP1 PUSH2 0x5C5 JUMP JUMPDEST PUSH2 0x102 JUMP JUMPDEST STOP JUMPDEST PUSH2 0x100 PUSH1 0x4 DUP1 CALLDATASIZE SUB DUP2 ADD SWAP1 PUSH2 0xFB SWAP2 SWAP1 PUSH2 0x589 JUMP JUMPDEST PUSH2 0x24D JUMP JUMPDEST STOP JUMPDEST DUP1 CALLER PUSH20 0xFFFFFFFFFFFFFFFFFFFFFFFFFFFFFFFFFFFFFFFF AND BALANCE LT ISZERO PUSH2 0x15C JUMPI PUSH1 0x40 MLOAD PUSH32 0x8C379A000000000000000000000000000000000000000000000000000000000 DUP2 MSTORE PUSH1 0x4 ADD PUSH2 0x153 SWAP1 PUSH2 0x6AD JUMP JUMPDEST PUSH1 0x40 MLOAD DUP1 SWAP2 SUB SWAP1 REVERT JUMPDEST PUSH2 0x1AE DUP2 PUSH1 0x1 PUSH1 0x0 CALLER PUSH20 0xFFFFFFFFFFFFFFFFFFFFFFFFFFFFFFFFFFFFFFFF AND PUSH20 0xFFFFFFFFFFFFFFFFFFFFFFFFFFFFFFFFFFFFFFFF AND DUP2 MSTORE PUSH1 0x20 ADD SWAP1 DUP2 MSTORE PUSH1 0x20 ADD PUSH1 0x0 KECCAK256 SLOAD PUSH2 0x4F5 SWAP1 SWAP2 SWAP1 PUSH4 0xFFFFFFFF AND JUMP JUMPDEST PUSH1 0x1 PUSH1 0x0 CALLER PUSH20 0xFFFFFFFFFFFFFFFFFFFFFFFFFFFFFFFFFFFFFFFF AND PUSH20 0xFFFFFFFFFFFFFFFFFFFFFFFFFFFFFFFFFFFFFFFF AND DUP2 MSTORE PUSH1 0x20 ADD SWAP1 DUP2 MSTORE PUSH1 0x20 ADD PUSH1 0x0 KECCAK256 DUP2 SWAP1 SSTORE POP PUSH32 0x2D8A08B6430A894AEA608BCAA6013D5D3E263BC49110605E4D4BA76930AE5C29 CALLER DUP3 PUSH1 0x40 MLOAD PUSH2 0x222 SWAP3 SWAP2 SWAP1 PUSH2 0x684 JUMP JUMPDEST PUSH1 0x40 MLOAD DUP1 SWAP2 SUB SWAP1 LOG1 POP JUMP JUMPDEST PUSH1 0x0 SELFBALANCE SWAP1 POP SWAP1 JUMP JUMPDEST PUSH1 0x1 PUSH1 0x20 MSTORE DUP1 PUSH1 0x0 MSTORE PUSH1 0x40 PUSH1 0x0 KECCAK256 PUSH1 0x0 SWAP2 POP SWAP1 POP SLOAD DUP2 JUMP JUMPDEST DUP1 PUSH1 0x1 PUSH1 0x0 CALLER PUSH20 0xFFFFFFFFFFFFFFFFFFFFFFFFFFFFFFFFFFFFFFFF AND PUSH20 0xFFFFFFFFFFFFFFFFFFFFFFFFFFFFFFFFFFFFFFFF AND DUP2 MSTORE PUSH1 0x20 ADD SWAP1 DUP2 MSTORE PUSH1 0x20 ADD PUSH1 0x0 KECCAK256 SLOAD LT ISZERO PUSH2 0x2CF JUMPI PUSH1 0x40 MLOAD PUSH32 0x8C379A000000000000000000000000000000000000000000000000000000000 DUP2 MSTORE PUSH1 0x4 ADD PUSH2 0x2C6 SWAP1 PUSH2 0x6AD JUMP JUMPDEST PUSH1 0x40 MLOAD DUP1 SWAP2 SUB SWAP1 REVERT JUMPDEST PUSH2 0x321 DUP2 PUSH1 0x1 PUSH1 0x0 CALLER PUSH20 0xFFFFFFFFFFFFFFFFFFFFFFFFFFFFFFFFFFFFFFFF AND PUSH20 0xFFFFFFFFFFFFFFFFFFFFFFFFFFFFFFFFFFFFFFFF AND DUP2 MSTORE PUSH1 0x20 ADD SWAP1 DUP2 MSTORE PUSH1 0x20 ADD PUSH1 0x0 KECCAK256 SLOAD PUSH2 0x50B SWAP1 SWAP2 SWAP1 PUSH4 0xFFFFFFFF AND JUMP JUMPDEST PUSH1 0x1 PUSH1 0x0 CALLER PUSH20 0xFFFFFFFFFFFFFFFFFFFFFFFFFFFFFFFFFFFFFFFF AND PUSH20 0xFFFFFFFFFFFFFFFFFFFFFFFFFFFFFFFFFFFFFFFF AND DUP2 MSTORE PUSH1 0x20 ADD SWAP1 DUP2 MSTORE PUSH1 0x20 ADD PUSH1 0x0 KECCAK256 DUP2 SWAP1 SSTORE POP PUSH2 0x3B6 DUP2 PUSH1 0x1 PUSH1 0x0 DUP6 PUSH20 0xFFFFFFFFFFFFFFFFFFFFFFFFFFFFFFFFFFFFFFFF AND PUSH20 0xFFFFFFFFFFFFFFFFFFFFFFFFFFFFFFFFFFFFFFFF AND DUP2 MSTORE PUSH1 0x20 ADD SWAP1 DUP2 MSTORE PUSH1 0x20 ADD PUSH1 0x0 KECCAK256 SLOAD PUSH2 0x4F5 SWAP1 SWAP2 SWAP1 PUSH4 0xFFFFFFFF AND JUMP JUMPDEST PUSH1 0x1 PUSH1 0x0 DUP5 PUSH20 0xFFFFFFFFFFFFFFFFFFFFFFFFFFFFFFFFFFFFFFFF AND PUSH20 0xFFFFFFFFFFFFFFFFFFFFFFFFFFFFFFFFFFFFFFFF AND DUP2 MSTORE PUSH1 0x20 ADD SWAP1 DUP2 MSTORE PUSH1 0x20 ADD PUSH1 0x0 KECCAK256 DUP2 SWAP1 SSTORE POP PUSH32 0x5DBA113B49CFA7C90315E8E604E6B506F7ABCB909B01DCB19EC39005086E68FC CALLER DUP3 PUSH1 0x40 MLOAD PUSH2 0x42A SWAP3 SWAP2 SWAP1 PUSH2 0x684 JUMP JUMPDEST PUSH1 0x40 MLOAD DUP1 SWAP2 SUB SWAP1 LOG1 PUSH32 0x2D8A08B6430A894AEA608BCAA6013D5D3E263BC49110605E4D4BA76930AE5C29 DUP3 DUP3 PUSH1 0x40 MLOAD PUSH2 0x463 SWAP3 SWAP2 SWAP1 PUSH2 0x65B JUMP JUMPDEST PUSH1 0x40 MLOAD DUP1 SWAP2 SUB SWAP1 LOG1 DUP2 PUSH20 0xFFFFFFFFFFFFFFFFFFFFFFFFFFFFFFFFFFFFFFFF AND PUSH2 0x8FC PUSH1 0x1 PUSH1 0x0 CALLER PUSH20 0xFFFFFFFFFFFFFFFFFFFFFFFFFFFFFFFFFFFFFFFF AND PUSH20 0xFFFFFFFFFFFFFFFFFFFFFFFFFFFFFFFFFFFFFFFF AND DUP2 MSTORE PUSH1 0x20 ADD SWAP1 DUP2 MSTORE PUSH1 0x20 ADD PUSH1 0x0 KECCAK256 SLOAD SWAP1 DUP2 ISZERO MUL SWAP1 PUSH1 0x40 MLOAD PUSH1 0x0 PUSH1 0x40 MLOAD DUP1 DUP4 SUB DUP2 DUP6 DUP9 DUP9 CALL SWAP4 POP POP POP POP ISZERO DUP1 ISZERO PUSH2 0x4F0 JUMPI RETURNDATASIZE PUSH1 0x0 DUP1 RETURNDATACOPY RETURNDATASIZE PUSH1 0x0 REVERT JUMPDEST POP POP POP JUMP JUMPDEST PUSH1 0x0 DUP2 DUP4 PUSH2 0x503 SWAP2 SWAP1 PUSH2 0x6F9 JUMP JUMPDEST SWAP1 POP SWAP3 SWAP2 POP POP JUMP JUMPDEST PUSH1 0x0 DUP2 DUP4 PUSH2 0x519 SWAP2 SWAP1 PUSH2 0x74F JUMP JUMPDEST SWAP1 POP SWAP3 SWAP2 POP POP JUMP JUMPDEST PUSH1 0x0 DUP2 CALLDATALOAD SWAP1 POP PUSH2 0x530 DUP2 PUSH2 0x836 JUMP JUMPDEST SWAP3 SWAP2 POP POP JUMP JUMPDEST PUSH1 0x0 DUP2 CALLDATALOAD SWAP1 POP PUSH2 0x545 DUP2 PUSH2 0x84D JUMP JUMPDEST SWAP3 SWAP2 POP POP JUMP JUMPDEST PUSH1 0x0 DUP2 CALLDATALOAD SWAP1 POP PUSH2 0x55A DUP2 PUSH2 0x864 JUMP JUMPDEST SWAP3 SWAP2 POP POP JUMP JUMPDEST PUSH1 0x0 PUSH1 0x20 DUP3 DUP5 SUB SLT ISZERO PUSH2 0x572 JUMPI PUSH1 0x0 DUP1 REVERT JUMPDEST PUSH1 0x0 PUSH2 0x580 DUP5 DUP3 DUP6 ADD PUSH2 0x521 JUMP JUMPDEST SWAP2 POP POP SWAP3 SWAP2 POP POP JUMP JUMPDEST PUSH1 0x0 DUP1 PUSH1 0x40 DUP4 DUP6 SUB SLT ISZERO PUSH2 0x59C JUMPI PUSH1 0x0 DUP1 REVERT JUMPDEST PUSH1 0x0 PUSH2 0x5AA DUP6 DUP3 DUP7 ADD PUSH2 0x536 JUMP JUMPDEST SWAP3 POP POP PUSH1 0x20 PUSH2 0x5BB DUP6 DUP3 DUP7 ADD PUSH2 0x54B JUMP JUMPDEST SWAP2 POP POP SWAP3 POP SWAP3 SWAP1 POP JUMP JUMPDEST PUSH1 0x0 PUSH1 0x20 DUP3 DUP5 SUB SLT ISZERO PUSH2 0x5D7 JUMPI PUSH1 0x0 DUP1 REVERT JUMPDEST PUSH1 0x0 PUSH2 0x5E5 DUP5 DUP3 DUP6 ADD PUSH2 0x54B JUMP JUMPDEST SWAP2 POP POP SWAP3 SWAP2 POP POP JUMP JUMPDEST PUSH2 0x5F7 DUP2 PUSH2 0x7D1 JUMP JUMPDEST DUP3 MSTORE POP POP JUMP JUMPDEST PUSH2 0x606 DUP2 PUSH2 0x783 JUMP JUMPDEST DUP3 MSTORE POP POP JUMP JUMPDEST PUSH1 0x0 PUSH2 0x619 PUSH1 0x10 DUP4 PUSH2 0x6E8 JUMP JUMPDEST SWAP2 POP PUSH32 0x4E6F7420656E6F75676820657468657200000000000000000000000000000000 PUSH1 0x0 DUP4 ADD MSTORE PUSH1 0x20 DUP3 ADD SWAP1 POP SWAP2 SWAP1 POP JUMP JUMPDEST PUSH2 0x655 DUP2 PUSH2 0x7C7 JUMP JUMPDEST DUP3 MSTORE POP POP JUMP JUMPDEST PUSH1 0x0 PUSH1 0x40 DUP3 ADD SWAP1 POP PUSH2 0x670 PUSH1 0x0 DUP4 ADD DUP6 PUSH2 0x5EE JUMP JUMPDEST PUSH2 0x67D PUSH1 0x20 DUP4 ADD DUP5 PUSH2 0x64C JUMP JUMPDEST SWAP4 SWAP3 POP POP POP JUMP JUMPDEST PUSH1 0x0 PUSH1 0x40 DUP3 ADD SWAP1 POP PUSH2 0x699 PUSH1 0x0 DUP4 ADD DUP6 PUSH2 0x5FD JUMP JUMPDEST PUSH2 0x6A6 PUSH1 0x20 DUP4 ADD DUP5 PUSH2 0x64C JUMP JUMPDEST SWAP4 SWAP3 POP POP POP JUMP JUMPDEST PUSH1 0x0 PUSH1 0x20 DUP3 ADD SWAP1 POP DUP2 DUP2 SUB PUSH1 0x0 DUP4 ADD MSTORE PUSH2 0x6C6 DUP2 PUSH2 0x60C JUMP JUMPDEST SWAP1 POP SWAP2 SWAP1 POP JUMP JUMPDEST PUSH1 0x0 PUSH1 0x20 DUP3 ADD SWAP1 POP PUSH2 0x6E2 PUSH1 0x0 DUP4 ADD DUP5 PUSH2 0x64C JUMP JUMPDEST SWAP3 SWAP2 POP POP JUMP JUMPDEST PUSH1 0x0 DUP3 DUP3 MSTORE PUSH1 0x20 DUP3 ADD SWAP1 POP SWAP3 SWAP2 POP POP JUMP JUMPDEST PUSH1 0x0 PUSH2 0x704 DUP3 PUSH2 0x7C7 JUMP JUMPDEST SWAP2 POP PUSH2 0x70F DUP4 PUSH2 0x7C7 JUMP JUMPDEST SWAP3 POP DUP3 PUSH32 0xFFFFFFFFFFFFFFFFFFFFFFFFFFFFFFFFFFFFFFFFFFFFFFFFFFFFFFFFFFFFFFFF SUB DUP3 GT ISZERO PUSH2 0x744 JUMPI PUSH2 0x743 PUSH2 0x807 JUMP JUMPDEST JUMPDEST DUP3 DUP3 ADD SWAP1 POP SWAP3 SWAP2 POP POP JUMP JUMPDEST PUSH1 0x0 PUSH2 0x75A DUP3 PUSH2 0x7C7 JUMP JUMPDEST SWAP2 POP PUSH2 0x765 DUP4 PUSH2 0x7C7 JUMP JUMPDEST SWAP3 POP DUP3 DUP3 LT ISZERO PUSH2 0x778 JUMPI PUSH2 0x777 PUSH2 0x807 JUMP JUMPDEST JUMPDEST DUP3 DUP3 SUB SWAP1 POP SWAP3 SWAP2 POP POP JUMP JUMPDEST PUSH1 0x0 PUSH2 0x78E DUP3 PUSH2 0x7A7 JUMP JUMPDEST SWAP1 POP SWAP2 SWAP1 POP JUMP JUMPDEST PUSH1 0x0 PUSH2 0x7A0 DUP3 PUSH2 0x7A7 JUMP JUMPDEST SWAP1 POP SWAP2 SWAP1 POP JUMP JUMPDEST PUSH1 0x0 PUSH20 0xFFFFFFFFFFFFFFFFFFFFFFFFFFFFFFFFFFFFFFFF DUP3 AND SWAP1 POP SWAP2 SWAP1 POP JUMP JUMPDEST PUSH1 0x0 DUP2 SWAP1 POP SWAP2 SWAP1 POP JUMP JUMPDEST PUSH1 0x0 PUSH2 0x7DC DUP3 PUSH2 0x7E3 JUMP JUMPDEST SWAP1 POP SWAP2 SWAP1 POP JUMP JUMPDEST PUSH1 0x0 PUSH2 0x7EE DUP3 PUSH2 0x7F5 JUMP JUMPDEST SWAP1 POP SWAP2 SWAP1 POP JUMP JUMPDEST PUSH1 0x0 PUSH2 0x800 DUP3 PUSH2 0x7A7 JUMP JUMPDEST SWAP1 POP SWAP2 SWAP1 POP JUMP JUMPDEST PUSH32 0x4E487B7100000000000000000000000000000000000000000000000000000000 PUSH1 0x0 MSTORE PUSH1 0x11 PUSH1 0x4 MSTORE PUSH1 0x24 PUSH1 0x0 REVERT JUMPDEST PUSH2 0x83F DUP2 PUSH2 0x783 JUMP JUMPDEST DUP2 EQ PUSH2 0x84A JUMPI PUSH1 0x0 DUP1 REVERT JUMPDEST POP JUMP JUMPDEST PUSH2 0x856 DUP2 PUSH2 0x795 JUMP JUMPDEST DUP2 EQ PUSH2 0x861 JUMPI PUSH1 0x0 DUP1 REVERT JUMPDEST POP JUMP JUMPDEST PUSH2 0x86D DUP2 PUSH2 0x7C7 JUMP JUMPDEST DUP2 EQ PUSH2 0x878 JUMPI PUSH1 0x0 DUP1 REVERT JUMPDEST POP JUMP INVALID LOG2 PUSH5 0x6970667358 0x22 SLT KECCAK256 0xCC 0x26 JUMP PUSH30 0xE0EB9BA6D4F751590585A55884E8F508C24A5D1F02D1646BF009D38E6473 PUSH16 0x6C634300080000330000000000000000 "
				},
				"gasEstimates": {
					"creation": {
						"codeDepositCost": "445000",
						"executionCost": "21346",
						"totalCost": "466346"
					},
					"external": {
						"": "178",
						"Balances(address)": "1514",
						"deposit(uint256)": "infinite",
						"getSmartContractBalance()": "317",
						"withdrawalTo(address,uint256)": "infinite"
					}
				},
				"methodIdentifiers": {
					"Balances(address)": "a8ec4c42",
					"deposit(uint256)": "b6b55f25",
					"getSmartContractBalance()": "5145cbc0",
					"withdrawalTo(address,uint256)": "d8780354"
				}
			},
			"storageLayout": {
				"storage": [
					{
						"astId": 153,
						"contract": "contracts/assignment/myWallet/MyWallet.sol:MyWallet",
						"label": "owner",
						"offset": 0,
						"slot": "0",
						"type": "t_address"
					},
					{
						"astId": 12,
						"contract": "contracts/assignment/myWallet/MyWallet.sol:MyWallet",
						"label": "Balances",
						"offset": 0,
						"slot": "1",
						"type": "t_mapping(t_address,t_uint256)"
					}
				],
				"types": {
					"t_address": {
						"encoding": "inplace",
						"label": "address",
						"numberOfBytes": "20"
					},
					"t_mapping(t_address,t_uint256)": {
						"encoding": "mapping",
						"key": "t_address",
						"label": "mapping(address => uint256)",
						"numberOfBytes": "32",
						"value": "t_uint256"
					},
					"t_uint256": {
						"encoding": "inplace",
						"label": "uint256",
						"numberOfBytes": "32"
					}
				}
			},
			"userdoc": {
				"kind": "user",
				"methods": {},
				"version": 1
			}
		}
	}
}