{
	"contracts/example/web3/eventTrigger/ItemManager.sol": {
		"ItemManager": {
			"abi": [
				{
					"anonymous": false,
					"inputs": [
						{
							"indexed": false,
							"internalType": "uint256",
							"name": "_itemPrice",
							"type": "uint256"
						},
						{
							"indexed": false,
							"internalType": "uint256",
							"name": "_step",
							"type": "uint256"
						},
						{
							"indexed": false,
							"internalType": "address",
							"name": "_itemAddress",
							"type": "address"
						}
					],
					"name": "SupplyChainStep",
					"type": "event"
				},
				{
					"inputs": [
						{
							"internalType": "string",
							"name": "_identifier",
							"type": "string"
						},
						{
							"internalType": "uint256",
							"name": "_itemPrice",
							"type": "uint256"
						}
					],
					"name": "createItem",
					"outputs": [],
					"stateMutability": "nonpayable",
					"type": "function"
				},
				{
					"inputs": [
						{
							"internalType": "uint256",
							"name": "",
							"type": "uint256"
						}
					],
					"name": "items",
					"outputs": [
						{
							"internalType": "contract Item",
							"name": "_item",
							"type": "address"
						},
						{
							"internalType": "string",
							"name": "_identifier",
							"type": "string"
						},
						{
							"internalType": "uint256",
							"name": "_itemPrice",
							"type": "uint256"
						},
						{
							"internalType": "enum ItemManager.SupplyChainState",
							"name": "_state",
							"type": "uint8"
						}
					],
					"stateMutability": "view",
					"type": "function"
				},
				{
					"inputs": [
						{
							"internalType": "uint256",
							"name": "_itemIndex",
							"type": "uint256"
						}
					],
					"name": "triggerDelivery",
					"outputs": [],
					"stateMutability": "nonpayable",
					"type": "function"
				},
				{
					"inputs": [
						{
							"internalType": "uint256",
							"name": "_itemIndex",
							"type": "uint256"
						}
					],
					"name": "triggerPayment",
					"outputs": [],
					"stateMutability": "payable",
					"type": "function"
				}
			],
			"devdoc": {
				"methods": {}
			},
			"evm": {
				"assembly": "    /* \"contracts/example/web3/eventTrigger/ItemManager.sol\":1392:2972  contract ItemManager {... */\n  mstore(0x40, 0x80)\n  callvalue\n    /* \"--CODEGEN--\":8:17   */\n  dup1\n    /* \"--CODEGEN--\":5:7   */\n  iszero\n  tag_1\n  jumpi\n    /* \"--CODEGEN--\":30:31   */\n  0x00\n    /* \"--CODEGEN--\":27:28   */\n  dup1\n    /* \"--CODEGEN--\":20:32   */\n  revert\n    /* \"--CODEGEN--\":5:7   */\ntag_1:\n    /* \"contracts/example/web3/eventTrigger/ItemManager.sol\":1392:2972  contract ItemManager {... */\n  pop\n  dataSize(sub_0)\n  dup1\n  dataOffset(sub_0)\n  0x00\n  codecopy\n  0x00\n  return\nstop\n\nsub_0: assembly {\n        /* \"contracts/example/web3/eventTrigger/ItemManager.sol\":1392:2972  contract ItemManager {... */\n      mstore(0x40, 0x80)\n      jumpi(tag_1, lt(calldatasize, 0x04))\n      shr(0xe0, calldataload(0x00))\n      dup1\n      0x800fb83f\n      eq\n      tag_2\n      jumpi\n      dup1\n      0x8c551742\n      eq\n      tag_3\n      jumpi\n      dup1\n      0xbfb231d2\n      eq\n      tag_4\n      jumpi\n      dup1\n      0xcd31831e\n      eq\n      tag_5\n      jumpi\n    tag_1:\n      0x00\n      dup1\n      revert\n        /* \"contracts/example/web3/eventTrigger/ItemManager.sol\":2214:2637  function triggerPayment(uint _itemIndex) public payable {... */\n    tag_2:\n      tag_6\n      0x04\n      dup1\n      calldatasize\n      sub\n        /* \"--CODEGEN--\":13:15   */\n      0x20\n        /* \"--CODEGEN--\":8:11   */\n      dup2\n        /* \"--CODEGEN--\":5:16   */\n      lt\n        /* \"--CODEGEN--\":2:4   */\n      iszero\n      tag_7\n      jumpi\n        /* \"--CODEGEN--\":29:30   */\n      0x00\n        /* \"--CODEGEN--\":26:27   */\n      dup1\n        /* \"--CODEGEN--\":19:31   */\n      revert\n        /* \"--CODEGEN--\":2:4   */\n    tag_7:\n        /* \"contracts/example/web3/eventTrigger/ItemManager.sol\":2214:2637  function triggerPayment(uint _itemIndex) public payable {... */\n      dup2\n      add\n      swap1\n      dup1\n      dup1\n      calldataload\n      swap1\n      0x20\n      add\n      swap1\n      swap3\n      swap2\n      swap1\n      pop\n      pop\n      pop\n      tag_8\n      jump\t// in\n    tag_6:\n      stop\n        /* \"contracts/example/web3/eventTrigger/ItemManager.sol\":1760:2208  function createItem(string memory _identifier, uint _itemPrice) public {... */\n    tag_3:\n      callvalue\n        /* \"--CODEGEN--\":8:17   */\n      dup1\n        /* \"--CODEGEN--\":5:7   */\n      iszero\n      tag_9\n      jumpi\n        /* \"--CODEGEN--\":30:31   */\n      0x00\n        /* \"--CODEGEN--\":27:28   */\n      dup1\n        /* \"--CODEGEN--\":20:32   */\n      revert\n        /* \"--CODEGEN--\":5:7   */\n    tag_9:\n        /* \"contracts/example/web3/eventTrigger/ItemManager.sol\":1760:2208  function createItem(string memory _identifier, uint _itemPrice) public {... */\n      pop\n      tag_10\n      0x04\n      dup1\n      calldatasize\n      sub\n        /* \"--CODEGEN--\":13:15   */\n      0x40\n        /* \"--CODEGEN--\":8:11   */\n      dup2\n        /* \"--CODEGEN--\":5:16   */\n      lt\n        /* \"--CODEGEN--\":2:4   */\n      iszero\n      tag_11\n      jumpi\n        /* \"--CODEGEN--\":29:30   */\n      0x00\n        /* \"--CODEGEN--\":26:27   */\n      dup1\n        /* \"--CODEGEN--\":19:31   */\n      revert\n        /* \"--CODEGEN--\":2:4   */\n    tag_11:\n        /* \"contracts/example/web3/eventTrigger/ItemManager.sol\":1760:2208  function createItem(string memory _identifier, uint _itemPrice) public {... */\n      dup2\n      add\n      swap1\n      dup1\n      dup1\n      calldataload\n      swap1\n      0x20\n      add\n      swap1\n        /* \"--CODEGEN--\":21:32   */\n      0x0100000000\n        /* \"--CODEGEN--\":8:19   */\n      dup2\n        /* \"--CODEGEN--\":5:33   */\n      gt\n        /* \"--CODEGEN--\":2:4   */\n      iszero\n      tag_12\n      jumpi\n        /* \"--CODEGEN--\":46:47   */\n      0x00\n        /* \"--CODEGEN--\":43:44   */\n      dup1\n        /* \"--CODEGEN--\":36:48   */\n      revert\n        /* \"--CODEGEN--\":2:4   */\n    tag_12:\n        /* \"contracts/example/web3/eventTrigger/ItemManager.sol\":1760:2208  function createItem(string memory _identifier, uint _itemPrice) public {... */\n      dup3\n      add\n        /* \"--CODEGEN--\":35:44   */\n      dup4\n        /* \"--CODEGEN--\":28:32   */\n      0x20\n        /* \"--CODEGEN--\":12:26   */\n      dup3\n        /* \"--CODEGEN--\":8:33   */\n      add\n        /* \"--CODEGEN--\":5:45   */\n      gt\n        /* \"--CODEGEN--\":2:4   */\n      iszero\n      tag_13\n      jumpi\n        /* \"--CODEGEN--\":58:59   */\n      0x00\n        /* \"--CODEGEN--\":55:56   */\n      dup1\n        /* \"--CODEGEN--\":48:60   */\n      revert\n        /* \"--CODEGEN--\":2:4   */\n    tag_13:\n        /* \"contracts/example/web3/eventTrigger/ItemManager.sol\":1760:2208  function createItem(string memory _identifier, uint _itemPrice) public {... */\n      dup1\n      calldataload\n      swap1\n      0x20\n      add\n      swap2\n        /* \"--CODEGEN--\":100:109   */\n      dup5\n        /* \"--CODEGEN--\":95:96   */\n      0x01\n        /* \"--CODEGEN--\":81:93   */\n      dup4\n        /* \"--CODEGEN--\":77:97   */\n      mul\n        /* \"--CODEGEN--\":67:75   */\n      dup5\n        /* \"--CODEGEN--\":63:98   */\n      add\n        /* \"--CODEGEN--\":60:110   */\n      gt\n        /* \"--CODEGEN--\":39:50   */\n      0x0100000000\n        /* \"--CODEGEN--\":25:37   */\n      dup4\n        /* \"--CODEGEN--\":22:51   */\n      gt\n        /* \"--CODEGEN--\":11:118   */\n      or\n        /* \"--CODEGEN--\":8:10   */\n      iszero\n      tag_14\n      jumpi\n        /* \"--CODEGEN--\":131:132   */\n      0x00\n        /* \"--CODEGEN--\":128:129   */\n      dup1\n        /* \"--CODEGEN--\":121:133   */\n      revert\n        /* \"--CODEGEN--\":8:10   */\n    tag_14:\n        /* \"contracts/example/web3/eventTrigger/ItemManager.sol\":1760:2208  function createItem(string memory _identifier, uint _itemPrice) public {... */\n      swap2\n      swap1\n      dup1\n      dup1\n      0x1f\n      add\n      0x20\n      dup1\n      swap2\n      div\n      mul\n      0x20\n      add\n      mload(0x40)\n      swap1\n      dup2\n      add\n      0x40\n      mstore\n      dup1\n      swap4\n      swap3\n      swap2\n      swap1\n      dup2\n      dup2\n      mstore\n      0x20\n      add\n      dup4\n      dup4\n        /* \"--CODEGEN--\":30:33   */\n      dup1\n        /* \"--CODEGEN--\":22:28   */\n      dup3\n        /* \"--CODEGEN--\":14:20   */\n      dup5\n        /* \"--CODEGEN--\":1:34   */\n      calldatacopy\n        /* \"--CODEGEN--\":99:100   */\n      0x00\n        /* \"--CODEGEN--\":93:96   */\n      dup2\n        /* \"--CODEGEN--\":85:91   */\n      dup5\n        /* \"--CODEGEN--\":81:97   */\n      add\n        /* \"--CODEGEN--\":74:101   */\n      mstore\n        /* \"--CODEGEN--\":137:141   */\n      0x1f\n        /* \"--CODEGEN--\":133:142   */\n      not\n        /* \"--CODEGEN--\":126:130   */\n      0x1f\n        /* \"--CODEGEN--\":121:124   */\n      dup3\n        /* \"--CODEGEN--\":117:131   */\n      add\n        /* \"--CODEGEN--\":113:143   */\n      and\n        /* \"--CODEGEN--\":106:143   */\n      swap1\n      pop\n        /* \"--CODEGEN--\":169:172   */\n      dup1\n        /* \"--CODEGEN--\":161:167   */\n      dup4\n        /* \"--CODEGEN--\":157:173   */\n      add\n        /* \"--CODEGEN--\":147:173   */\n      swap3\n      pop\n        /* \"contracts/example/web3/eventTrigger/ItemManager.sol\":1760:2208  function createItem(string memory _identifier, uint _itemPrice) public {... */\n      pop\n      pop\n      pop\n      pop\n      pop\n      pop\n      swap2\n      swap3\n      swap2\n      swap3\n      swap1\n      dup1\n      calldataload\n      swap1\n      0x20\n      add\n      swap1\n      swap3\n      swap2\n      swap1\n      pop\n      pop\n      pop\n      tag_15\n      jump\t// in\n    tag_10:\n      stop\n        /* \"contracts/example/web3/eventTrigger/ItemManager.sol\":1618:1654  mapping(uint => S_Item) public items */\n    tag_4:\n      callvalue\n        /* \"--CODEGEN--\":8:17   */\n      dup1\n        /* \"--CODEGEN--\":5:7   */\n      iszero\n      tag_16\n      jumpi\n        /* \"--CODEGEN--\":30:31   */\n      0x00\n        /* \"--CODEGEN--\":27:28   */\n      dup1\n        /* \"--CODEGEN--\":20:32   */\n      revert\n        /* \"--CODEGEN--\":5:7   */\n    tag_16:\n        /* \"contracts/example/web3/eventTrigger/ItemManager.sol\":1618:1654  mapping(uint => S_Item) public items */\n      pop\n      tag_17\n      0x04\n      dup1\n      calldatasize\n      sub\n        /* \"--CODEGEN--\":13:15   */\n      0x20\n        /* \"--CODEGEN--\":8:11   */\n      dup2\n        /* \"--CODEGEN--\":5:16   */\n      lt\n        /* \"--CODEGEN--\":2:4   */\n      iszero\n      tag_18\n      jumpi\n        /* \"--CODEGEN--\":29:30   */\n      0x00\n        /* \"--CODEGEN--\":26:27   */\n      dup1\n        /* \"--CODEGEN--\":19:31   */\n      revert\n        /* \"--CODEGEN--\":2:4   */\n    tag_18:\n        /* \"contracts/example/web3/eventTrigger/ItemManager.sol\":1618:1654  mapping(uint => S_Item) public items */\n      dup2\n      add\n      swap1\n      dup1\n      dup1\n      calldataload\n      swap1\n      0x20\n      add\n      swap1\n      swap3\n      swap2\n      swap1\n      pop\n      pop\n      pop\n      tag_19\n      jump\t// in\n    tag_17:\n      mload(0x40)\n      dup1\n      dup6\n      0xffffffffffffffffffffffffffffffffffffffff\n      and\n      0xffffffffffffffffffffffffffffffffffffffff\n      and\n      dup2\n      mstore\n      0x20\n      add\n      dup1\n      0x20\n      add\n      dup5\n      dup2\n      mstore\n      0x20\n      add\n      dup4\n      0x02\n      dup2\n      gt\n      iszero\n      tag_20\n      jumpi\n      invalid\n    tag_20:\n      0xff\n      and\n      dup2\n      mstore\n      0x20\n      add\n      dup3\n      dup2\n      sub\n      dup3\n      mstore\n      dup6\n      dup2\n      dup2\n      mload\n      dup2\n      mstore\n      0x20\n      add\n      swap2\n      pop\n      dup1\n      mload\n      swap1\n      0x20\n      add\n      swap1\n      dup1\n      dup4\n      dup4\n        /* \"--CODEGEN--\":23:24   */\n      0x00\n        /* \"--CODEGEN--\":8:108   */\n    tag_21:\n        /* \"--CODEGEN--\":33:36   */\n      dup4\n        /* \"--CODEGEN--\":30:31   */\n      dup2\n        /* \"--CODEGEN--\":27:37   */\n      lt\n        /* \"--CODEGEN--\":8:108   */\n      iszero\n      tag_23\n      jumpi\n        /* \"--CODEGEN--\":99:100   */\n      dup1\n        /* \"--CODEGEN--\":94:97   */\n      dup3\n        /* \"--CODEGEN--\":90:101   */\n      add\n        /* \"--CODEGEN--\":84:102   */\n      mload\n        /* \"--CODEGEN--\":80:81   */\n      dup2\n        /* \"--CODEGEN--\":75:78   */\n      dup5\n        /* \"--CODEGEN--\":71:82   */\n      add\n        /* \"--CODEGEN--\":64:103   */\n      mstore\n        /* \"--CODEGEN--\":52:54   */\n      0x20\n        /* \"--CODEGEN--\":49:50   */\n      dup2\n        /* \"--CODEGEN--\":45:55   */\n      add\n        /* \"--CODEGEN--\":40:55   */\n      swap1\n      pop\n        /* \"--CODEGEN--\":8:108   */\n      jump(tag_21)\n    tag_23:\n        /* \"--CODEGEN--\":12:26   */\n      pop\n        /* \"contracts/example/web3/eventTrigger/ItemManager.sol\":1618:1654  mapping(uint => S_Item) public items */\n      pop\n      pop\n      pop\n      swap1\n      pop\n      swap1\n      dup2\n      add\n      swap1\n      0x1f\n      and\n      dup1\n      iszero\n      tag_24\n      jumpi\n      dup1\n      dup3\n      sub\n      dup1\n      mload\n      0x01\n      dup4\n      0x20\n      sub\n      0x0100\n      exp\n      sub\n      not\n      and\n      dup2\n      mstore\n      0x20\n      add\n      swap2\n      pop\n    tag_24:\n      pop\n      swap6\n      pop\n      pop\n      pop\n      pop\n      pop\n      pop\n      mload(0x40)\n      dup1\n      swap2\n      sub\n      swap1\n      return\n        /* \"contracts/example/web3/eventTrigger/ItemManager.sol\":2643:2970  function triggerDelivery(uint _itemIndex) public {... */\n    tag_5:\n      callvalue\n        /* \"--CODEGEN--\":8:17   */\n      dup1\n        /* \"--CODEGEN--\":5:7   */\n      iszero\n      tag_25\n      jumpi\n        /* \"--CODEGEN--\":30:31   */\n      0x00\n        /* \"--CODEGEN--\":27:28   */\n      dup1\n        /* \"--CODEGEN--\":20:32   */\n      revert\n        /* \"--CODEGEN--\":5:7   */\n    tag_25:\n        /* \"contracts/example/web3/eventTrigger/ItemManager.sol\":2643:2970  function triggerDelivery(uint _itemIndex) public {... */\n      pop\n      tag_26\n      0x04\n      dup1\n      calldatasize\n      sub\n        /* \"--CODEGEN--\":13:15   */\n      0x20\n        /* \"--CODEGEN--\":8:11   */\n      dup2\n        /* \"--CODEGEN--\":5:16   */\n      lt\n        /* \"--CODEGEN--\":2:4   */\n      iszero\n      tag_27\n      jumpi\n        /* \"--CODEGEN--\":29:30   */\n      0x00\n        /* \"--CODEGEN--\":26:27   */\n      dup1\n        /* \"--CODEGEN--\":19:31   */\n      revert\n        /* \"--CODEGEN--\":2:4   */\n    tag_27:\n        /* \"contracts/example/web3/eventTrigger/ItemManager.sol\":2643:2970  function triggerDelivery(uint _itemIndex) public {... */\n      dup2\n      add\n      swap1\n      dup1\n      dup1\n      calldataload\n      swap1\n      0x20\n      add\n      swap1\n      swap3\n      swap2\n      swap1\n      pop\n      pop\n      pop\n      tag_28\n      jump\t// in\n    tag_26:\n      stop\n        /* \"contracts/example/web3/eventTrigger/ItemManager.sol\":2214:2637  function triggerPayment(uint _itemIndex) public payable {... */\n    tag_8:\n        /* \"contracts/example/web3/eventTrigger/ItemManager.sol\":2320:2329  msg.value */\n      callvalue\n        /* \"contracts/example/web3/eventTrigger/ItemManager.sol\":2288:2293  items */\n      0x00\n        /* \"contracts/example/web3/eventTrigger/ItemManager.sol\":2288:2305  items[_itemIndex] */\n      dup1\n        /* \"contracts/example/web3/eventTrigger/ItemManager.sol\":2294:2304  _itemIndex */\n      dup4\n        /* \"contracts/example/web3/eventTrigger/ItemManager.sol\":2288:2305  items[_itemIndex] */\n      dup2\n      mstore\n      0x20\n      add\n      swap1\n      dup2\n      mstore\n      0x20\n      add\n      0x00\n      keccak256\n        /* \"contracts/example/web3/eventTrigger/ItemManager.sol\":2288:2316  items[_itemIndex]._itemPrice */\n      0x02\n      add\n      sload\n        /* \"contracts/example/web3/eventTrigger/ItemManager.sol\":2288:2329  items[_itemIndex]._itemPrice == msg.value */\n      eq\n        /* \"contracts/example/web3/eventTrigger/ItemManager.sol\":2280:2361  require(items[_itemIndex]._itemPrice == msg.value, \"Only full payments accepted\") */\n      tag_30\n      jumpi\n      mload(0x40)\n      0x08c379a000000000000000000000000000000000000000000000000000000000\n      dup2\n      mstore\n      0x04\n      add\n      dup1\n      dup1\n      0x20\n      add\n      dup3\n      dup2\n      sub\n      dup3\n      mstore\n      0x1b\n      dup2\n      mstore\n      0x20\n      add\n      dup1\n      0x4f6e6c792066756c6c207061796d656e74732061636365707465640000000000\n      dup2\n      mstore\n      pop\n      0x20\n      add\n      swap2\n      pop\n      pop\n      mload(0x40)\n      dup1\n      swap2\n      sub\n      swap1\n      revert\n    tag_30:\n        /* \"contracts/example/web3/eventTrigger/ItemManager.sol\":2407:2431  SupplyChainState.Created */\n      0x00\n        /* \"contracts/example/web3/eventTrigger/ItemManager.sol\":2379:2431  items[_itemIndex]._state == SupplyChainState.Created */\n      0x02\n      dup2\n      gt\n      iszero\n      tag_31\n      jumpi\n      invalid\n    tag_31:\n        /* \"contracts/example/web3/eventTrigger/ItemManager.sol\":2379:2384  items */\n      0x00\n        /* \"contracts/example/web3/eventTrigger/ItemManager.sol\":2379:2396  items[_itemIndex] */\n      dup1\n        /* \"contracts/example/web3/eventTrigger/ItemManager.sol\":2385:2395  _itemIndex */\n      dup4\n        /* \"contracts/example/web3/eventTrigger/ItemManager.sol\":2379:2396  items[_itemIndex] */\n      dup2\n      mstore\n      0x20\n      add\n      swap1\n      dup2\n      mstore\n      0x20\n      add\n      0x00\n      keccak256\n        /* \"contracts/example/web3/eventTrigger/ItemManager.sol\":2379:2403  items[_itemIndex]._state */\n      0x03\n      add\n      0x00\n      swap1\n      sload\n      swap1\n      0x0100\n      exp\n      swap1\n      div\n      0xff\n      and\n        /* \"contracts/example/web3/eventTrigger/ItemManager.sol\":2379:2431  items[_itemIndex]._state == SupplyChainState.Created */\n      0x02\n      dup2\n      gt\n      iszero\n      tag_32\n      jumpi\n      invalid\n    tag_32:\n      eq\n        /* \"contracts/example/web3/eventTrigger/ItemManager.sol\":2371:2464  require(items[_itemIndex]._state == SupplyChainState.Created, \"Item is further in the chain\") */\n      tag_33\n      jumpi\n      mload(0x40)\n      0x08c379a000000000000000000000000000000000000000000000000000000000\n      dup2\n      mstore\n      0x04\n      add\n      dup1\n      dup1\n      0x20\n      add\n      dup3\n      dup2\n      sub\n      dup3\n      mstore\n      0x1c\n      dup2\n      mstore\n      0x20\n      add\n      dup1\n      0x4974656d206973206675727468657220696e2074686520636861696e00000000\n      dup2\n      mstore\n      pop\n      0x20\n      add\n      swap2\n      pop\n      pop\n      mload(0x40)\n      dup1\n      swap2\n      sub\n      swap1\n      revert\n    tag_33:\n        /* \"contracts/example/web3/eventTrigger/ItemManager.sol\":2501:2522  SupplyChainState.Paid */\n      0x01\n        /* \"contracts/example/web3/eventTrigger/ItemManager.sol\":2474:2479  items */\n      0x00\n        /* \"contracts/example/web3/eventTrigger/ItemManager.sol\":2474:2491  items[_itemIndex] */\n      dup1\n        /* \"contracts/example/web3/eventTrigger/ItemManager.sol\":2480:2490  _itemIndex */\n      dup4\n        /* \"contracts/example/web3/eventTrigger/ItemManager.sol\":2474:2491  items[_itemIndex] */\n      dup2\n      mstore\n      0x20\n      add\n      swap1\n      dup2\n      mstore\n      0x20\n      add\n      0x00\n      keccak256\n        /* \"contracts/example/web3/eventTrigger/ItemManager.sol\":2474:2498  items[_itemIndex]._state */\n      0x03\n      add\n      0x00\n        /* \"contracts/example/web3/eventTrigger/ItemManager.sol\":2474:2522  items[_itemIndex]._state = SupplyChainState.Paid */\n      0x0100\n      exp\n      dup2\n      sload\n      dup2\n      0xff\n      mul\n      not\n      and\n      swap1\n      dup4\n      0x02\n      dup2\n      gt\n      iszero\n      tag_34\n      jumpi\n      invalid\n    tag_34:\n      mul\n      or\n      swap1\n      sstore\n      pop\n        /* \"contracts/example/web3/eventTrigger/ItemManager.sol\":2538:2630  SupplyChainStep(_itemIndex, uint(items[itemIndex]._state), address(items[_itemIndex]._item)) */\n      0xa4035636e99f06b7651a604c1019fa4e8779fe68ef27eeb74dff2de348f6199b\n        /* \"contracts/example/web3/eventTrigger/ItemManager.sol\":2554:2564  _itemIndex */\n      dup2\n        /* \"contracts/example/web3/eventTrigger/ItemManager.sol\":2571:2576  items */\n      0x00\n        /* \"contracts/example/web3/eventTrigger/ItemManager.sol\":2571:2587  items[itemIndex] */\n      dup1\n        /* \"contracts/example/web3/eventTrigger/ItemManager.sol\":2577:2586  itemIndex */\n      sload(0x01)\n        /* \"contracts/example/web3/eventTrigger/ItemManager.sol\":2571:2587  items[itemIndex] */\n      dup2\n      mstore\n      0x20\n      add\n      swap1\n      dup2\n      mstore\n      0x20\n      add\n      0x00\n      keccak256\n        /* \"contracts/example/web3/eventTrigger/ItemManager.sol\":2571:2594  items[itemIndex]._state */\n      0x03\n      add\n      0x00\n      swap1\n      sload\n      swap1\n      0x0100\n      exp\n      swap1\n      div\n      0xff\n      and\n        /* \"contracts/example/web3/eventTrigger/ItemManager.sol\":2566:2595  uint(items[itemIndex]._state) */\n      0x02\n      dup2\n      gt\n      iszero\n      tag_35\n      jumpi\n      invalid\n    tag_35:\n        /* \"contracts/example/web3/eventTrigger/ItemManager.sol\":2605:2610  items */\n      0x00\n        /* \"contracts/example/web3/eventTrigger/ItemManager.sol\":2605:2622  items[_itemIndex] */\n      dup1\n        /* \"contracts/example/web3/eventTrigger/ItemManager.sol\":2611:2621  _itemIndex */\n      dup6\n        /* \"contracts/example/web3/eventTrigger/ItemManager.sol\":2605:2622  items[_itemIndex] */\n      dup2\n      mstore\n      0x20\n      add\n      swap1\n      dup2\n      mstore\n      0x20\n      add\n      0x00\n      keccak256\n        /* \"contracts/example/web3/eventTrigger/ItemManager.sol\":2605:2628  items[_itemIndex]._item */\n      0x00\n      add\n      0x00\n      swap1\n      sload\n      swap1\n      0x0100\n      exp\n      swap1\n      div\n      0xffffffffffffffffffffffffffffffffffffffff\n      and\n        /* \"contracts/example/web3/eventTrigger/ItemManager.sol\":2538:2630  SupplyChainStep(_itemIndex, uint(items[itemIndex]._state), address(items[_itemIndex]._item)) */\n      mload(0x40)\n      dup1\n      dup5\n      dup2\n      mstore\n      0x20\n      add\n      dup4\n      dup2\n      mstore\n      0x20\n      add\n      dup3\n      0xffffffffffffffffffffffffffffffffffffffff\n      and\n      0xffffffffffffffffffffffffffffffffffffffff\n      and\n      dup2\n      mstore\n      0x20\n      add\n      swap4\n      pop\n      pop\n      pop\n      pop\n      mload(0x40)\n      dup1\n      swap2\n      sub\n      swap1\n      log1\n        /* \"contracts/example/web3/eventTrigger/ItemManager.sol\":2214:2637  function triggerPayment(uint _itemIndex) public payable {... */\n      pop\n      jump\t// out\n        /* \"contracts/example/web3/eventTrigger/ItemManager.sol\":1760:2208  function createItem(string memory _identifier, uint _itemPrice) public {... */\n    tag_15:\n        /* \"contracts/example/web3/eventTrigger/ItemManager.sol\":1841:1850  Item item */\n      0x00\n        /* \"contracts/example/web3/eventTrigger/ItemManager.sol\":1862:1866  this */\n      address\n        /* \"contracts/example/web3/eventTrigger/ItemManager.sol\":1868:1878  _itemPrice */\n      dup3\n        /* \"contracts/example/web3/eventTrigger/ItemManager.sol\":1880:1889  itemIndex */\n      sload(0x01)\n        /* \"contracts/example/web3/eventTrigger/ItemManager.sol\":1853:1890  new Item(this, _itemPrice, itemIndex) */\n      mload(0x40)\n      tag_37\n      swap1\n      tag_38\n      jump\t// in\n    tag_37:\n      dup1\n      dup5\n      0xffffffffffffffffffffffffffffffffffffffff\n      and\n      0xffffffffffffffffffffffffffffffffffffffff\n      and\n      dup2\n      mstore\n      0x20\n      add\n      dup4\n      dup2\n      mstore\n      0x20\n      add\n      dup3\n      dup2\n      mstore\n      0x20\n      add\n      swap4\n      pop\n      pop\n      pop\n      pop\n      mload(0x40)\n      dup1\n      swap2\n      sub\n      swap1\n      0x00\n      create\n      dup1\n      iszero\n        /* \"--CODEGEN--\":8:17   */\n      dup1\n        /* \"--CODEGEN--\":5:7   */\n      iszero\n      tag_39\n      jumpi\n        /* \"--CODEGEN--\":45:61   */\n      returndatasize\n        /* \"--CODEGEN--\":42:43   */\n      0x00\n        /* \"--CODEGEN--\":39:40   */\n      dup1\n        /* \"--CODEGEN--\":24:62   */\n      returndatacopy\n        /* \"--CODEGEN--\":77:93   */\n      returndatasize\n        /* \"--CODEGEN--\":74:75   */\n      0x00\n        /* \"--CODEGEN--\":67:94   */\n      revert\n        /* \"--CODEGEN--\":5:7   */\n    tag_39:\n        /* \"contracts/example/web3/eventTrigger/ItemManager.sol\":1853:1890  new Item(this, _itemPrice, itemIndex) */\n      pop\n        /* \"contracts/example/web3/eventTrigger/ItemManager.sol\":1841:1890  Item item = new Item(this, _itemPrice, itemIndex) */\n      swap1\n      pop\n        /* \"contracts/example/web3/eventTrigger/ItemManager.sol\":1926:1930  item */\n      dup1\n        /* \"contracts/example/web3/eventTrigger/ItemManager.sol\":1901:1906  items */\n      0x00\n        /* \"contracts/example/web3/eventTrigger/ItemManager.sol\":1901:1917  items[itemIndex] */\n      dup1\n        /* \"contracts/example/web3/eventTrigger/ItemManager.sol\":1907:1916  itemIndex */\n      sload(0x01)\n        /* \"contracts/example/web3/eventTrigger/ItemManager.sol\":1901:1917  items[itemIndex] */\n      dup2\n      mstore\n      0x20\n      add\n      swap1\n      dup2\n      mstore\n      0x20\n      add\n      0x00\n      keccak256\n        /* \"contracts/example/web3/eventTrigger/ItemManager.sol\":1901:1923  items[itemIndex]._item */\n      0x00\n      add\n      0x00\n        /* \"contracts/example/web3/eventTrigger/ItemManager.sol\":1901:1930  items[itemIndex]._item = item */\n      0x0100\n      exp\n      dup2\n      sload\n      dup2\n      0xffffffffffffffffffffffffffffffffffffffff\n      mul\n      not\n      and\n      swap1\n      dup4\n      0xffffffffffffffffffffffffffffffffffffffff\n      and\n      mul\n      or\n      swap1\n      sstore\n      pop\n        /* \"contracts/example/web3/eventTrigger/ItemManager.sol\":1971:1982  _identifier */\n      dup3\n        /* \"contracts/example/web3/eventTrigger/ItemManager.sol\":1940:1945  items */\n      0x00\n        /* \"contracts/example/web3/eventTrigger/ItemManager.sol\":1940:1956  items[itemIndex] */\n      dup1\n        /* \"contracts/example/web3/eventTrigger/ItemManager.sol\":1946:1955  itemIndex */\n      sload(0x01)\n        /* \"contracts/example/web3/eventTrigger/ItemManager.sol\":1940:1956  items[itemIndex] */\n      dup2\n      mstore\n      0x20\n      add\n      swap1\n      dup2\n      mstore\n      0x20\n      add\n      0x00\n      keccak256\n        /* \"contracts/example/web3/eventTrigger/ItemManager.sol\":1940:1968  items[itemIndex]._identifier */\n      0x01\n      add\n        /* \"contracts/example/web3/eventTrigger/ItemManager.sol\":1940:1982  items[itemIndex]._identifier = _identifier */\n      swap1\n      dup1\n      mload\n      swap1\n      0x20\n      add\n      swap1\n      tag_40\n      swap3\n      swap2\n      swap1\n      tag_41\n      jump\t// in\n    tag_40:\n      pop\n        /* \"contracts/example/web3/eventTrigger/ItemManager.sol\":2022:2032  _itemPrice */\n      dup2\n        /* \"contracts/example/web3/eventTrigger/ItemManager.sol\":1992:1997  items */\n      0x00\n        /* \"contracts/example/web3/eventTrigger/ItemManager.sol\":1992:2008  items[itemIndex] */\n      dup1\n        /* \"contracts/example/web3/eventTrigger/ItemManager.sol\":1998:2007  itemIndex */\n      sload(0x01)\n        /* \"contracts/example/web3/eventTrigger/ItemManager.sol\":1992:2008  items[itemIndex] */\n      dup2\n      mstore\n      0x20\n      add\n      swap1\n      dup2\n      mstore\n      0x20\n      add\n      0x00\n      keccak256\n        /* \"contracts/example/web3/eventTrigger/ItemManager.sol\":1992:2019  items[itemIndex]._itemPrice */\n      0x02\n      add\n        /* \"contracts/example/web3/eventTrigger/ItemManager.sol\":1992:2032  items[itemIndex]._itemPrice = _itemPrice */\n      dup2\n      swap1\n      sstore\n      pop\n        /* \"contracts/example/web3/eventTrigger/ItemManager.sol\":2068:2092  SupplyChainState.Created */\n      0x00\n        /* \"contracts/example/web3/eventTrigger/ItemManager.sol\":2042:2047  items */\n      dup1\n        /* \"contracts/example/web3/eventTrigger/ItemManager.sol\":2042:2058  items[itemIndex] */\n      0x00\n        /* \"contracts/example/web3/eventTrigger/ItemManager.sol\":2048:2057  itemIndex */\n      sload(0x01)\n        /* \"contracts/example/web3/eventTrigger/ItemManager.sol\":2042:2058  items[itemIndex] */\n      dup2\n      mstore\n      0x20\n      add\n      swap1\n      dup2\n      mstore\n      0x20\n      add\n      0x00\n      keccak256\n        /* \"contracts/example/web3/eventTrigger/ItemManager.sol\":2042:2065  items[itemIndex]._state */\n      0x03\n      add\n      0x00\n        /* \"contracts/example/web3/eventTrigger/ItemManager.sol\":2042:2092  items[itemIndex]._state = SupplyChainState.Created */\n      0x0100\n      exp\n      dup2\n      sload\n      dup2\n      0xff\n      mul\n      not\n      and\n      swap1\n      dup4\n      0x02\n      dup2\n      gt\n      iszero\n      tag_42\n      jumpi\n      invalid\n    tag_42:\n      mul\n      or\n      swap1\n      sstore\n      pop\n        /* \"contracts/example/web3/eventTrigger/ItemManager.sol\":2108:2180  SupplyChainStep(itemIndex, uint(items[itemIndex]._state), address(item)) */\n      0xa4035636e99f06b7651a604c1019fa4e8779fe68ef27eeb74dff2de348f6199b\n        /* \"contracts/example/web3/eventTrigger/ItemManager.sol\":2124:2133  itemIndex */\n      sload(0x01)\n        /* \"contracts/example/web3/eventTrigger/ItemManager.sol\":2140:2145  items */\n      0x00\n        /* \"contracts/example/web3/eventTrigger/ItemManager.sol\":2140:2156  items[itemIndex] */\n      dup1\n        /* \"contracts/example/web3/eventTrigger/ItemManager.sol\":2146:2155  itemIndex */\n      sload(0x01)\n        /* \"contracts/example/web3/eventTrigger/ItemManager.sol\":2140:2156  items[itemIndex] */\n      dup2\n      mstore\n      0x20\n      add\n      swap1\n      dup2\n      mstore\n      0x20\n      add\n      0x00\n      keccak256\n        /* \"contracts/example/web3/eventTrigger/ItemManager.sol\":2140:2163  items[itemIndex]._state */\n      0x03\n      add\n      0x00\n      swap1\n      sload\n      swap1\n      0x0100\n      exp\n      swap1\n      div\n      0xff\n      and\n        /* \"contracts/example/web3/eventTrigger/ItemManager.sol\":2135:2164  uint(items[itemIndex]._state) */\n      0x02\n      dup2\n      gt\n      iszero\n      tag_43\n      jumpi\n      invalid\n    tag_43:\n        /* \"contracts/example/web3/eventTrigger/ItemManager.sol\":2174:2178  item */\n      dup4\n        /* \"contracts/example/web3/eventTrigger/ItemManager.sol\":2108:2180  SupplyChainStep(itemIndex, uint(items[itemIndex]._state), address(item)) */\n      mload(0x40)\n      dup1\n      dup5\n      dup2\n      mstore\n      0x20\n      add\n      dup4\n      dup2\n      mstore\n      0x20\n      add\n      dup3\n      0xffffffffffffffffffffffffffffffffffffffff\n      and\n      0xffffffffffffffffffffffffffffffffffffffff\n      and\n      dup2\n      mstore\n      0x20\n      add\n      swap4\n      pop\n      pop\n      pop\n      pop\n      mload(0x40)\n      dup1\n      swap2\n      sub\n      swap1\n      log1\n        /* \"contracts/example/web3/eventTrigger/ItemManager.sol\":2190:2199  itemIndex */\n      0x01\n      0x00\n        /* \"contracts/example/web3/eventTrigger/ItemManager.sol\":2190:2201  itemIndex++ */\n      dup2\n      sload\n      dup1\n      swap3\n      swap2\n      swap1\n      0x01\n      add\n      swap2\n      swap1\n      pop\n      sstore\n      pop\n        /* \"contracts/example/web3/eventTrigger/ItemManager.sol\":1760:2208  function createItem(string memory _identifier, uint _itemPrice) public {... */\n      pop\n      pop\n      pop\n      jump\t// out\n        /* \"contracts/example/web3/eventTrigger/ItemManager.sol\":1618:1654  mapping(uint => S_Item) public items */\n    tag_19:\n      mstore(0x20, 0x00)\n      dup1\n      0x00\n      mstore\n      keccak256(0x00, 0x40)\n      0x00\n      swap2\n      pop\n      swap1\n      pop\n      dup1\n      0x00\n      add\n      0x00\n      swap1\n      sload\n      swap1\n      0x0100\n      exp\n      swap1\n      div\n      0xffffffffffffffffffffffffffffffffffffffff\n      and\n      swap1\n      dup1\n      0x01\n      add\n      dup1\n      sload\n      0x01\n      dup2\n      0x01\n      and\n      iszero\n      0x0100\n      mul\n      sub\n      and\n      0x02\n      swap1\n      div\n      dup1\n      0x1f\n      add\n      0x20\n      dup1\n      swap2\n      div\n      mul\n      0x20\n      add\n      mload(0x40)\n      swap1\n      dup2\n      add\n      0x40\n      mstore\n      dup1\n      swap3\n      swap2\n      swap1\n      dup2\n      dup2\n      mstore\n      0x20\n      add\n      dup3\n      dup1\n      sload\n      0x01\n      dup2\n      0x01\n      and\n      iszero\n      0x0100\n      mul\n      sub\n      and\n      0x02\n      swap1\n      div\n      dup1\n      iszero\n      tag_44\n      jumpi\n      dup1\n      0x1f\n      lt\n      tag_45\n      jumpi\n      0x0100\n      dup1\n      dup4\n      sload\n      div\n      mul\n      dup4\n      mstore\n      swap2\n      0x20\n      add\n      swap2\n      jump(tag_44)\n    tag_45:\n      dup3\n      add\n      swap2\n      swap1\n      0x00\n      mstore\n      keccak256(0x00, 0x20)\n      swap1\n    tag_46:\n      dup2\n      sload\n      dup2\n      mstore\n      swap1\n      0x01\n      add\n      swap1\n      0x20\n      add\n      dup1\n      dup4\n      gt\n      tag_46\n      jumpi\n      dup3\n      swap1\n      sub\n      0x1f\n      and\n      dup3\n      add\n      swap2\n    tag_44:\n      pop\n      pop\n      pop\n      pop\n      pop\n      swap1\n      dup1\n      0x02\n      add\n      sload\n      swap1\n      dup1\n      0x03\n      add\n      0x00\n      swap1\n      sload\n      swap1\n      0x0100\n      exp\n      swap1\n      div\n      0xff\n      and\n      swap1\n      pop\n      dup5\n      jump\t// out\n        /* \"contracts/example/web3/eventTrigger/ItemManager.sol\":2643:2970  function triggerDelivery(uint _itemIndex) public {... */\n    tag_28:\n        /* \"contracts/example/web3/eventTrigger/ItemManager.sol\":2738:2759  SupplyChainState.Paid */\n      0x01\n        /* \"contracts/example/web3/eventTrigger/ItemManager.sol\":2710:2759  items[_itemIndex]._state == SupplyChainState.Paid */\n      0x02\n      dup2\n      gt\n      iszero\n      tag_48\n      jumpi\n      invalid\n    tag_48:\n        /* \"contracts/example/web3/eventTrigger/ItemManager.sol\":2710:2715  items */\n      0x00\n        /* \"contracts/example/web3/eventTrigger/ItemManager.sol\":2710:2727  items[_itemIndex] */\n      dup1\n        /* \"contracts/example/web3/eventTrigger/ItemManager.sol\":2716:2726  _itemIndex */\n      dup4\n        /* \"contracts/example/web3/eventTrigger/ItemManager.sol\":2710:2727  items[_itemIndex] */\n      dup2\n      mstore\n      0x20\n      add\n      swap1\n      dup2\n      mstore\n      0x20\n      add\n      0x00\n      keccak256\n        /* \"contracts/example/web3/eventTrigger/ItemManager.sol\":2710:2734  items[_itemIndex]._state */\n      0x03\n      add\n      0x00\n      swap1\n      sload\n      swap1\n      0x0100\n      exp\n      swap1\n      div\n      0xff\n      and\n        /* \"contracts/example/web3/eventTrigger/ItemManager.sol\":2710:2759  items[_itemIndex]._state == SupplyChainState.Paid */\n      0x02\n      dup2\n      gt\n      iszero\n      tag_49\n      jumpi\n      invalid\n    tag_49:\n      eq\n        /* \"contracts/example/web3/eventTrigger/ItemManager.sol\":2702:2792  require(items[_itemIndex]._state == SupplyChainState.Paid, \"Item is further in the chain\") */\n      tag_50\n      jumpi\n      mload(0x40)\n      0x08c379a000000000000000000000000000000000000000000000000000000000\n      dup2\n      mstore\n      0x04\n      add\n      dup1\n      dup1\n      0x20\n      add\n      dup3\n      dup2\n      sub\n      dup3\n      mstore\n      0x1c\n      dup2\n      mstore\n      0x20\n      add\n      dup1\n      0x4974656d206973206675727468657220696e2074686520636861696e00000000\n      dup2\n      mstore\n      pop\n      0x20\n      add\n      swap2\n      pop\n      pop\n      mload(0x40)\n      dup1\n      swap2\n      sub\n      swap1\n      revert\n    tag_50:\n        /* \"contracts/example/web3/eventTrigger/ItemManager.sol\":2829:2855  SupplyChainState.Delivered */\n      0x02\n        /* \"contracts/example/web3/eventTrigger/ItemManager.sol\":2802:2807  items */\n      0x00\n        /* \"contracts/example/web3/eventTrigger/ItemManager.sol\":2802:2819  items[_itemIndex] */\n      dup1\n        /* \"contracts/example/web3/eventTrigger/ItemManager.sol\":2808:2818  _itemIndex */\n      dup4\n        /* \"contracts/example/web3/eventTrigger/ItemManager.sol\":2802:2819  items[_itemIndex] */\n      dup2\n      mstore\n      0x20\n      add\n      swap1\n      dup2\n      mstore\n      0x20\n      add\n      0x00\n      keccak256\n        /* \"contracts/example/web3/eventTrigger/ItemManager.sol\":2802:2826  items[_itemIndex]._state */\n      0x03\n      add\n      0x00\n        /* \"contracts/example/web3/eventTrigger/ItemManager.sol\":2802:2855  items[_itemIndex]._state = SupplyChainState.Delivered */\n      0x0100\n      exp\n      dup2\n      sload\n      dup2\n      0xff\n      mul\n      not\n      and\n      swap1\n      dup4\n      0x02\n      dup2\n      gt\n      iszero\n      tag_51\n      jumpi\n      invalid\n    tag_51:\n      mul\n      or\n      swap1\n      sstore\n      pop\n        /* \"contracts/example/web3/eventTrigger/ItemManager.sol\":2871:2963  SupplyChainStep(_itemIndex, uint(items[itemIndex]._state), address(items[_itemIndex]._item)) */\n      0xa4035636e99f06b7651a604c1019fa4e8779fe68ef27eeb74dff2de348f6199b\n        /* \"contracts/example/web3/eventTrigger/ItemManager.sol\":2887:2897  _itemIndex */\n      dup2\n        /* \"contracts/example/web3/eventTrigger/ItemManager.sol\":2904:2909  items */\n      0x00\n        /* \"contracts/example/web3/eventTrigger/ItemManager.sol\":2904:2920  items[itemIndex] */\n      dup1\n        /* \"contracts/example/web3/eventTrigger/ItemManager.sol\":2910:2919  itemIndex */\n      sload(0x01)\n        /* \"contracts/example/web3/eventTrigger/ItemManager.sol\":2904:2920  items[itemIndex] */\n      dup2\n      mstore\n      0x20\n      add\n      swap1\n      dup2\n      mstore\n      0x20\n      add\n      0x00\n      keccak256\n        /* \"contracts/example/web3/eventTrigger/ItemManager.sol\":2904:2927  items[itemIndex]._state */\n      0x03\n      add\n      0x00\n      swap1\n      sload\n      swap1\n      0x0100\n      exp\n      swap1\n      div\n      0xff\n      and\n        /* \"contracts/example/web3/eventTrigger/ItemManager.sol\":2899:2928  uint(items[itemIndex]._state) */\n      0x02\n      dup2\n      gt\n      iszero\n      tag_52\n      jumpi\n      invalid\n    tag_52:\n        /* \"contracts/example/web3/eventTrigger/ItemManager.sol\":2938:2943  items */\n      0x00\n        /* \"contracts/example/web3/eventTrigger/ItemManager.sol\":2938:2955  items[_itemIndex] */\n      dup1\n        /* \"contracts/example/web3/eventTrigger/ItemManager.sol\":2944:2954  _itemIndex */\n      dup6\n        /* \"contracts/example/web3/eventTrigger/ItemManager.sol\":2938:2955  items[_itemIndex] */\n      dup2\n      mstore\n      0x20\n      add\n      swap1\n      dup2\n      mstore\n      0x20\n      add\n      0x00\n      keccak256\n        /* \"contracts/example/web3/eventTrigger/ItemManager.sol\":2938:2961  items[_itemIndex]._item */\n      0x00\n      add\n      0x00\n      swap1\n      sload\n      swap1\n      0x0100\n      exp\n      swap1\n      div\n      0xffffffffffffffffffffffffffffffffffffffff\n      and\n        /* \"contracts/example/web3/eventTrigger/ItemManager.sol\":2871:2963  SupplyChainStep(_itemIndex, uint(items[itemIndex]._state), address(items[_itemIndex]._item)) */\n      mload(0x40)\n      dup1\n      dup5\n      dup2\n      mstore\n      0x20\n      add\n      dup4\n      dup2\n      mstore\n      0x20\n      add\n      dup3\n      0xffffffffffffffffffffffffffffffffffffffff\n      and\n      0xffffffffffffffffffffffffffffffffffffffff\n      and\n      dup2\n      mstore\n      0x20\n      add\n      swap4\n      pop\n      pop\n      pop\n      pop\n      mload(0x40)\n      dup1\n      swap2\n      sub\n      swap1\n      log1\n        /* \"contracts/example/web3/eventTrigger/ItemManager.sol\":2643:2970  function triggerDelivery(uint _itemIndex) public {... */\n      pop\n      jump\t// out\n        /* \"contracts/example/web3/eventTrigger/ItemManager.sol\":1392:2972  contract ItemManager {... */\n    tag_38:\n      dataSize(sub_0)\n      dup1\n      dataOffset(sub_0)\n      dup4\n      codecopy\n      add\n      swap1\n      jump\t// out\n    tag_41:\n      dup3\n      dup1\n      sload\n      0x01\n      dup2\n      0x01\n      and\n      iszero\n      0x0100\n      mul\n      sub\n      and\n      0x02\n      swap1\n      div\n      swap1\n      0x00\n      mstore\n      keccak256(0x00, 0x20)\n      swap1\n      0x1f\n      add\n      0x20\n      swap1\n      div\n      dup2\n      add\n      swap3\n      dup3\n      0x1f\n      lt\n      tag_54\n      jumpi\n      dup1\n      mload\n      not(0xff)\n      and\n      dup4\n      dup1\n      add\n      or\n      dup6\n      sstore\n      jump(tag_53)\n    tag_54:\n      dup3\n      dup1\n      add\n      0x01\n      add\n      dup6\n      sstore\n      dup3\n      iszero\n      tag_53\n      jumpi\n      swap2\n      dup3\n      add\n    tag_55:\n      dup3\n      dup2\n      gt\n      iszero\n      tag_56\n      jumpi\n      dup3\n      mload\n      dup3\n      sstore\n      swap2\n      0x20\n      add\n      swap2\n      swap1\n      0x01\n      add\n      swap1\n      jump(tag_55)\n    tag_56:\n    tag_53:\n      pop\n      swap1\n      pop\n      tag_57\n      swap2\n      swap1\n      tag_58\n      jump\t// in\n    tag_57:\n      pop\n      swap1\n      jump\t// out\n    tag_58:\n      tag_59\n      swap2\n      swap1\n    tag_60:\n      dup1\n      dup3\n      gt\n      iszero\n      tag_61\n      jumpi\n      0x00\n      dup2\n      0x00\n      swap1\n      sstore\n      pop\n      0x01\n      add\n      jump(tag_60)\n    tag_61:\n      pop\n      swap1\n      jump\n    tag_59:\n      swap1\n      jump\t// out\n    stop\n\n    sub_0: assembly {\n            /* \"contracts/example/web3/eventTrigger/ItemManager.sol\":51:1390  contract Item {... */\n          mstore(0x40, 0x80)\n            /* \"contracts/example/web3/eventTrigger/ItemManager.sol\":183:369  constructor(ItemManager _parentContract, uint _priceInWei, uint _index) public {... */\n          callvalue\n            /* \"--CODEGEN--\":8:17   */\n          dup1\n            /* \"--CODEGEN--\":5:7   */\n          iszero\n          tag_1\n          jumpi\n            /* \"--CODEGEN--\":30:31   */\n          0x00\n            /* \"--CODEGEN--\":27:28   */\n          dup1\n            /* \"--CODEGEN--\":20:32   */\n          revert\n            /* \"--CODEGEN--\":5:7   */\n        tag_1:\n            /* \"contracts/example/web3/eventTrigger/ItemManager.sol\":183:369  constructor(ItemManager _parentContract, uint _priceInWei, uint _index) public {... */\n          pop\n          mload(0x40)\n          sub(codesize, bytecodeSize)\n          dup1\n          bytecodeSize\n          dup4\n          codecopy\n          dup2\n          dup2\n          add\n          0x40\n          mstore\n            /* \"--CODEGEN--\":13:15   */\n          0x60\n            /* \"--CODEGEN--\":8:11   */\n          dup2\n            /* \"--CODEGEN--\":5:16   */\n          lt\n            /* \"--CODEGEN--\":2:4   */\n          iszero\n          tag_2\n          jumpi\n            /* \"--CODEGEN--\":29:30   */\n          0x00\n            /* \"--CODEGEN--\":26:27   */\n          dup1\n            /* \"--CODEGEN--\":19:31   */\n          revert\n            /* \"--CODEGEN--\":2:4   */\n        tag_2:\n            /* \"contracts/example/web3/eventTrigger/ItemManager.sol\":183:369  constructor(ItemManager _parentContract, uint _priceInWei, uint _index) public {... */\n          dup2\n          add\n          swap1\n          dup1\n          dup1\n          mload\n          swap1\n          0x20\n          add\n          swap1\n          swap3\n          swap2\n          swap1\n          dup1\n          mload\n          swap1\n          0x20\n          add\n          swap1\n          swap3\n          swap2\n          swap1\n          dup1\n          mload\n          swap1\n          0x20\n          add\n          swap1\n          swap3\n          swap2\n          swap1\n          pop\n          pop\n          pop\n            /* \"contracts/example/web3/eventTrigger/ItemManager.sol\":285:296  _priceInWei */\n          dup2\n            /* \"contracts/example/web3/eventTrigger/ItemManager.sol\":272:282  priceInWei */\n          0x00\n            /* \"contracts/example/web3/eventTrigger/ItemManager.sol\":272:296  priceInWei = _priceInWei */\n          dup2\n          swap1\n          sstore\n          pop\n            /* \"contracts/example/web3/eventTrigger/ItemManager.sol\":314:320  _index */\n          dup1\n            /* \"contracts/example/web3/eventTrigger/ItemManager.sol\":306:311  index */\n          0x02\n            /* \"contracts/example/web3/eventTrigger/ItemManager.sol\":306:320  index = _index */\n          dup2\n          swap1\n          sstore\n          pop\n            /* \"contracts/example/web3/eventTrigger/ItemManager.sol\":347:362  _parentContract */\n          dup3\n            /* \"contracts/example/web3/eventTrigger/ItemManager.sol\":330:344  parentContract */\n          0x03\n          0x00\n            /* \"contracts/example/web3/eventTrigger/ItemManager.sol\":330:362  parentContract = _parentContract */\n          0x0100\n          exp\n          dup2\n          sload\n          dup2\n          0xffffffffffffffffffffffffffffffffffffffff\n          mul\n          not\n          and\n          swap1\n          dup4\n          0xffffffffffffffffffffffffffffffffffffffff\n          and\n          mul\n          or\n          swap1\n          sstore\n          pop\n            /* \"contracts/example/web3/eventTrigger/ItemManager.sol\":183:369  constructor(ItemManager _parentContract, uint _priceInWei, uint _index) public {... */\n          pop\n          pop\n          pop\n            /* \"contracts/example/web3/eventTrigger/ItemManager.sol\":51:1390  contract Item {... */\n          dataSize(sub_0)\n          dup1\n          dataOffset(sub_0)\n          0x00\n          codecopy\n          0x00\n          return\n        stop\n\n        sub_0: assembly {\n                /* \"contracts/example/web3/eventTrigger/ItemManager.sol\":51:1390  contract Item {... */\n              mstore(0x40, 0x80)\n              jumpi(tag_1, lt(calldatasize, 0x04))\n              shr(0xe0, calldataload(0x00))\n              dup1\n              0x2986c0e5\n              eq\n              tag_3\n              jumpi\n              dup1\n              0x3c8da588\n              eq\n              tag_4\n              jumpi\n              dup1\n              0x89794d00\n              eq\n              tag_5\n              jumpi\n              jump(tag_2)\n            tag_1:\n              jumpi(tag_2, calldatasize)\n                /* \"contracts/example/web3/eventTrigger/ItemManager.sol\":620:621  0 */\n              0x00\n                /* \"contracts/example/web3/eventTrigger/ItemManager.sol\":607:616  pricePaid */\n              sload(0x01)\n                /* \"contracts/example/web3/eventTrigger/ItemManager.sol\":607:621  pricePaid == 0 */\n              eq\n                /* \"contracts/example/web3/eventTrigger/ItemManager.sol\":599:647  require(pricePaid == 0, \"Items is paid already\") */\n              tag_8\n              jumpi\n              mload(0x40)\n              0x08c379a000000000000000000000000000000000000000000000000000000000\n              dup2\n              mstore\n              0x04\n              add\n              dup1\n              dup1\n              0x20\n              add\n              dup3\n              dup2\n              sub\n              dup3\n              mstore\n              0x15\n              dup2\n              mstore\n              0x20\n              add\n              dup1\n              0x4974656d73206973207061696420616c72656164790000000000000000000000\n              dup2\n              mstore\n              pop\n              0x20\n              add\n              swap2\n              pop\n              pop\n              mload(0x40)\n              dup1\n              swap2\n              sub\n              swap1\n              revert\n            tag_8:\n                /* \"contracts/example/web3/eventTrigger/ItemManager.sol\":679:688  msg.value */\n              callvalue\n                /* \"contracts/example/web3/eventTrigger/ItemManager.sol\":665:675  priceInWei */\n              sload(0x00)\n                /* \"contracts/example/web3/eventTrigger/ItemManager.sol\":665:688  priceInWei == msg.value */\n              eq\n                /* \"contracts/example/web3/eventTrigger/ItemManager.sol\":657:719  require(priceInWei == msg.value, \"Only full payments allowed\") */\n              tag_9\n              jumpi\n              mload(0x40)\n              0x08c379a000000000000000000000000000000000000000000000000000000000\n              dup2\n              mstore\n              0x04\n              add\n              dup1\n              dup1\n              0x20\n              add\n              dup3\n              dup2\n              sub\n              dup3\n              mstore\n              0x1a\n              dup2\n              mstore\n              0x20\n              add\n              dup1\n              0x4f6e6c792066756c6c207061796d656e747320616c6c6f776564000000000000\n              dup2\n              mstore\n              pop\n              0x20\n              add\n              swap2\n              pop\n              pop\n              mload(0x40)\n              dup1\n              swap2\n              sub\n              swap1\n              revert\n            tag_9:\n                /* \"contracts/example/web3/eventTrigger/ItemManager.sol\":742:751  msg.value */\n              callvalue\n                /* \"contracts/example/web3/eventTrigger/ItemManager.sol\":729:738  pricePaid */\n              0x01\n              0x00\n                /* \"contracts/example/web3/eventTrigger/ItemManager.sol\":729:751  pricePaid += msg.value */\n              dup3\n              dup3\n              sload\n              add\n              swap3\n              pop\n              pop\n              dup2\n              swap1\n              sstore\n              pop\n                /* \"contracts/example/web3/eventTrigger/ItemManager.sol\":1151:1163  bool success */\n              0x00\n                /* \"contracts/example/web3/eventTrigger/ItemManager.sol\":1177:1191  parentContract */\n              0x03\n              0x00\n              swap1\n              sload\n              swap1\n              0x0100\n              exp\n              swap1\n              div\n              0xffffffffffffffffffffffffffffffffffffffff\n              and\n                /* \"contracts/example/web3/eventTrigger/ItemManager.sol\":1169:1197  address(parentContract).call */\n              0xffffffffffffffffffffffffffffffffffffffff\n              and\n                /* \"contracts/example/web3/eventTrigger/ItemManager.sol\":1204:1213  msg.value */\n              callvalue\n                /* \"contracts/example/web3/eventTrigger/ItemManager.sol\":1266:1271  index */\n              sload(0x02)\n                /* \"contracts/example/web3/eventTrigger/ItemManager.sol\":1215:1272  abi.encodeWithSignature(\"triggerPayment(uint256)\", index) */\n              add(0x24, mload(0x40))\n              dup1\n              dup3\n              dup2\n              mstore\n              0x20\n              add\n              swap2\n              pop\n              pop\n              mload(0x40)\n                /* \"--CODEGEN--\":49:53   */\n              0x20\n                /* \"--CODEGEN--\":39:46   */\n              dup2\n                /* \"--CODEGEN--\":30:37   */\n              dup4\n                /* \"--CODEGEN--\":26:47   */\n              sub\n                /* \"--CODEGEN--\":22:54   */\n              sub\n                /* \"--CODEGEN--\":13:20   */\n              dup2\n                /* \"--CODEGEN--\":6:55   */\n              mstore\n                /* \"contracts/example/web3/eventTrigger/ItemManager.sol\":1215:1272  abi.encodeWithSignature(\"triggerPayment(uint256)\", index) */\n              swap1\n              0x40\n              mstore\n              and(not(0xffffffffffffffffffffffffffffffffffffffffffffffffffffffff), 0x800fb83f00000000000000000000000000000000000000000000000000000000)\n                /* \"--CODEGEN--\":38:42   */\n              0x20\n                /* \"--CODEGEN--\":29:36   */\n              dup3\n                /* \"--CODEGEN--\":25:43   */\n              add\n                /* \"--CODEGEN--\":67:77   */\n              dup1\n                /* \"--CODEGEN--\":61:78   */\n              mload\n                /* \"--CODEGEN--\":96:154   */\n              0xffffffffffffffffffffffffffffffffffffffffffffffffffffffff\n                /* \"--CODEGEN--\":199:207   */\n              dup4\n                /* \"--CODEGEN--\":192:196   */\n              dup2\n                /* \"--CODEGEN--\":186:190   */\n              dup4\n                /* \"--CODEGEN--\":182:197   */\n              and\n                /* \"--CODEGEN--\":179:208   */\n              or\n                /* \"--CODEGEN--\":167:177   */\n              dup4\n                /* \"--CODEGEN--\":160:209   */\n              mstore\n                /* \"--CODEGEN--\":0:215   */\n              pop\n              pop\n              pop\n                /* \"contracts/example/web3/eventTrigger/ItemManager.sol\":1215:1272  abi.encodeWithSignature(\"triggerPayment(uint256)\", index) */\n              pop\n                /* \"contracts/example/web3/eventTrigger/ItemManager.sol\":1169:1273  address(parentContract).call.value(msg.value)(abi.encodeWithSignature(\"triggerPayment(uint256)\", index)) */\n              mload(0x40)\n              dup1\n              dup3\n              dup1\n              mload\n              swap1\n              0x20\n              add\n              swap1\n              dup1\n              dup4\n              dup4\n                /* \"--CODEGEN--\":36:189   */\n            tag_10:\n                /* \"--CODEGEN--\":66:68   */\n              0x20\n                /* \"--CODEGEN--\":61:64   */\n              dup4\n                /* \"--CODEGEN--\":58:69   */\n              lt\n                /* \"--CODEGEN--\":36:189   */\n              tag_12\n              jumpi\n                /* \"--CODEGEN--\":182:185   */\n              dup1\n                /* \"--CODEGEN--\":176:186   */\n              mload\n                /* \"--CODEGEN--\":171:174   */\n              dup3\n                /* \"--CODEGEN--\":164:187   */\n              mstore\n                /* \"--CODEGEN--\":98:100   */\n              0x20\n                /* \"--CODEGEN--\":93:96   */\n              dup3\n                /* \"--CODEGEN--\":89:101   */\n              add\n                /* \"--CODEGEN--\":82:101   */\n              swap2\n              pop\n                /* \"--CODEGEN--\":123:125   */\n              0x20\n                /* \"--CODEGEN--\":118:121   */\n              dup2\n                /* \"--CODEGEN--\":114:126   */\n              add\n                /* \"--CODEGEN--\":107:126   */\n              swap1\n              pop\n                /* \"--CODEGEN--\":148:150   */\n              0x20\n                /* \"--CODEGEN--\":143:146   */\n              dup4\n                /* \"--CODEGEN--\":139:151   */\n              sub\n                /* \"--CODEGEN--\":132:151   */\n              swap3\n              pop\n                /* \"--CODEGEN--\":36:189   */\n              jump(tag_10)\n            tag_12:\n                /* \"--CODEGEN--\":274:275   */\n              0x01\n                /* \"--CODEGEN--\":267:270   */\n              dup4\n                /* \"--CODEGEN--\":263:265   */\n              0x20\n                /* \"--CODEGEN--\":259:271   */\n              sub\n                /* \"--CODEGEN--\":254:257   */\n              0x0100\n                /* \"--CODEGEN--\":250:272   */\n              exp\n                /* \"--CODEGEN--\":246:276   */\n              sub\n                /* \"--CODEGEN--\":315:319   */\n              dup1\n                /* \"--CODEGEN--\":311:320   */\n              not\n                /* \"--CODEGEN--\":305:308   */\n              dup3\n                /* \"--CODEGEN--\":299:309   */\n              mload\n                /* \"--CODEGEN--\":295:321   */\n              and\n                /* \"--CODEGEN--\":356:360   */\n              dup2\n                /* \"--CODEGEN--\":350:353   */\n              dup5\n                /* \"--CODEGEN--\":344:354   */\n              mload\n                /* \"--CODEGEN--\":340:361   */\n              and\n                /* \"--CODEGEN--\":389:396   */\n              dup1\n                /* \"--CODEGEN--\":380:387   */\n              dup3\n                /* \"--CODEGEN--\":377:397   */\n              or\n                /* \"--CODEGEN--\":372:375   */\n              dup6\n                /* \"--CODEGEN--\":365:398   */\n              mstore\n                /* \"--CODEGEN--\":3:402   */\n              pop\n              pop\n              pop\n                /* \"contracts/example/web3/eventTrigger/ItemManager.sol\":1169:1273  address(parentContract).call.value(msg.value)(abi.encodeWithSignature(\"triggerPayment(uint256)\", index)) */\n              pop\n              pop\n              pop\n              swap1\n              pop\n              add\n              swap2\n              pop\n              pop\n              0x00\n              mload(0x40)\n              dup1\n              dup4\n              sub\n              dup2\n              dup6\n              dup8\n              gas\n              call\n              swap3\n              pop\n              pop\n              pop\n              returndatasize\n                /* \"--CODEGEN--\":12:13   */\n              dup1\n                /* \"--CODEGEN--\":19:20   */\n              0x00\n                /* \"--CODEGEN--\":14:41   */\n              dup2\n              eq\n              tag_15\n              jumpi\n                /* \"--CODEGEN--\":67:71   */\n              0x40\n                /* \"--CODEGEN--\":61:72   */\n              mload\n                /* \"--CODEGEN--\":56:72   */\n              swap2\n              pop\n                /* \"--CODEGEN--\":134:138   */\n              0x1f\n                /* \"--CODEGEN--\":130:139   */\n              not\n                /* \"--CODEGEN--\":123:127   */\n              0x3f\n                /* \"--CODEGEN--\":105:121   */\n              returndatasize\n                /* \"--CODEGEN--\":101:128   */\n              add\n                /* \"--CODEGEN--\":97:140   */\n              and\n                /* \"--CODEGEN--\":94:95   */\n              dup3\n                /* \"--CODEGEN--\":90:141   */\n              add\n                /* \"--CODEGEN--\":84:88   */\n              0x40\n                /* \"--CODEGEN--\":77:142   */\n              mstore\n                /* \"--CODEGEN--\":157:173   */\n              returndatasize\n                /* \"--CODEGEN--\":154:155   */\n              dup3\n                /* \"--CODEGEN--\":147:174   */\n              mstore\n                /* \"--CODEGEN--\":211:227   */\n              returndatasize\n                /* \"--CODEGEN--\":208:209   */\n              0x00\n                /* \"--CODEGEN--\":201:205   */\n              0x20\n                /* \"--CODEGEN--\":198:199   */\n              dup5\n                /* \"--CODEGEN--\":194:206   */\n              add\n                /* \"--CODEGEN--\":179:228   */\n              returndatacopy\n                /* \"--CODEGEN--\":5:233   */\n              jump(tag_14)\n                /* \"--CODEGEN--\":14:41   */\n            tag_15:\n                /* \"--CODEGEN--\":32:36   */\n              0x60\n                /* \"--CODEGEN--\":27:36   */\n              swap2\n              pop\n                /* \"--CODEGEN--\":5:233   */\n            tag_14:\n              pop\n                /* \"contracts/example/web3/eventTrigger/ItemManager.sol\":1150:1273  (bool success, ) = address(parentContract).call.value(msg.value)(abi.encodeWithSignature(\"triggerPayment(uint256)\", index)) */\n              pop\n              swap1\n              pop\n                /* \"contracts/example/web3/eventTrigger/ItemManager.sol\":1291:1298  success */\n              dup1\n                /* \"contracts/example/web3/eventTrigger/ItemManager.sol\":1283:1347  require(success, \"The transaction wasn't successful, canceling\") */\n              tag_16\n              jumpi\n              mload(0x40)\n              0x08c379a000000000000000000000000000000000000000000000000000000000\n              dup2\n              mstore\n              0x04\n              add\n              dup1\n              dup1\n              0x20\n              add\n              dup3\n              dup2\n              sub\n              dup3\n              mstore\n              0x2c\n              dup2\n              mstore\n              0x20\n              add\n              dup1\n              data_69d8812b8d6d459c686092136f102311ee25289d5ee25df7f864b01bd1fbe3b0\n              0x2c\n              swap2\n              codecopy\n              0x40\n              add\n              swap2\n              pop\n              pop\n              mload(0x40)\n              dup1\n              swap2\n              sub\n              swap1\n              revert\n            tag_16:\n                /* \"contracts/example/web3/eventTrigger/ItemManager.sol\":375:1354  receive() external payable {... */\n              pop\n                /* \"contracts/example/web3/eventTrigger/ItemManager.sol\":51:1390  contract Item {... */\n              stop\n            tag_2:\n              callvalue\n                /* \"--CODEGEN--\":8:17   */\n              dup1\n                /* \"--CODEGEN--\":5:7   */\n              iszero\n              tag_17\n              jumpi\n                /* \"--CODEGEN--\":30:31   */\n              0x00\n                /* \"--CODEGEN--\":27:28   */\n              dup1\n                /* \"--CODEGEN--\":20:32   */\n              revert\n                /* \"--CODEGEN--\":5:7   */\n            tag_17:\n                /* \"contracts/example/web3/eventTrigger/ItemManager.sol\":51:1390  contract Item {... */\n              pop\n              stop\n                /* \"contracts/example/web3/eventTrigger/ItemManager.sol\":126:143  uint public index */\n            tag_3:\n              callvalue\n                /* \"--CODEGEN--\":8:17   */\n              dup1\n                /* \"--CODEGEN--\":5:7   */\n              iszero\n              tag_20\n              jumpi\n                /* \"--CODEGEN--\":30:31   */\n              0x00\n                /* \"--CODEGEN--\":27:28   */\n              dup1\n                /* \"--CODEGEN--\":20:32   */\n              revert\n                /* \"--CODEGEN--\":5:7   */\n            tag_20:\n                /* \"contracts/example/web3/eventTrigger/ItemManager.sol\":126:143  uint public index */\n              pop\n              tag_21\n              tag_22\n              jump\t// in\n            tag_21:\n              mload(0x40)\n              dup1\n              dup3\n              dup2\n              mstore\n              0x20\n              add\n              swap2\n              pop\n              pop\n              mload(0x40)\n              dup1\n              swap2\n              sub\n              swap1\n              return\n                /* \"contracts/example/web3/eventTrigger/ItemManager.sol\":71:93  uint public priceInWei */\n            tag_4:\n              callvalue\n                /* \"--CODEGEN--\":8:17   */\n              dup1\n                /* \"--CODEGEN--\":5:7   */\n              iszero\n              tag_23\n              jumpi\n                /* \"--CODEGEN--\":30:31   */\n              0x00\n                /* \"--CODEGEN--\":27:28   */\n              dup1\n                /* \"--CODEGEN--\":20:32   */\n              revert\n                /* \"--CODEGEN--\":5:7   */\n            tag_23:\n                /* \"contracts/example/web3/eventTrigger/ItemManager.sol\":71:93  uint public priceInWei */\n              pop\n              tag_24\n              tag_25\n              jump\t// in\n            tag_24:\n              mload(0x40)\n              dup1\n              dup3\n              dup2\n              mstore\n              0x20\n              add\n              swap2\n              pop\n              pop\n              mload(0x40)\n              dup1\n              swap2\n              sub\n              swap1\n              return\n                /* \"contracts/example/web3/eventTrigger/ItemManager.sol\":99:120  uint public pricePaid */\n            tag_5:\n              callvalue\n                /* \"--CODEGEN--\":8:17   */\n              dup1\n                /* \"--CODEGEN--\":5:7   */\n              iszero\n              tag_26\n              jumpi\n                /* \"--CODEGEN--\":30:31   */\n              0x00\n                /* \"--CODEGEN--\":27:28   */\n              dup1\n                /* \"--CODEGEN--\":20:32   */\n              revert\n                /* \"--CODEGEN--\":5:7   */\n            tag_26:\n                /* \"contracts/example/web3/eventTrigger/ItemManager.sol\":99:120  uint public pricePaid */\n              pop\n              tag_27\n              tag_28\n              jump\t// in\n            tag_27:\n              mload(0x40)\n              dup1\n              dup3\n              dup2\n              mstore\n              0x20\n              add\n              swap2\n              pop\n              pop\n              mload(0x40)\n              dup1\n              swap2\n              sub\n              swap1\n              return\n                /* \"contracts/example/web3/eventTrigger/ItemManager.sol\":126:143  uint public index */\n            tag_22:\n              sload(0x02)\n              dup2\n              jump\t// out\n                /* \"contracts/example/web3/eventTrigger/ItemManager.sol\":71:93  uint public priceInWei */\n            tag_25:\n              sload(0x00)\n              dup2\n              jump\t// out\n                /* \"contracts/example/web3/eventTrigger/ItemManager.sol\":99:120  uint public pricePaid */\n            tag_28:\n              sload(0x01)\n              dup2\n              jump\t// out\n            stop\n            data_69d8812b8d6d459c686092136f102311ee25289d5ee25df7f864b01bd1fbe3b0 546865207472616e73616374696f6e207761736e2774207375636365737366756c2c2063616e63656c696e67\n\n            auxdata: 0xa2646970667358221220d27cc3093a581a6f594d72716a798c7e848f28fd05aa68ad1b58c9103f46582a64736f6c63430006000033\n        }\n    }\n\n    auxdata: 0xa264697066735822122048a9f4b9356107ad623354745487c043b5a4bcc79ef449ecc18b3ef61aaa017a64736f6c63430006000033\n}\n",
				"bytecode": {
					"linkReferences": {},
					"object": "608060405234801561001057600080fd5b50610f2b806100206000396000f3fe60806040526004361061003f5760003560e01c8063800fb83f146100445780638c55174214610072578063bfb231d214610144578063cd31831e14610247575b600080fd5b6100706004803603602081101561005a57600080fd5b8101908080359060200190929190505050610282565b005b34801561007e57600080fd5b506101426004803603604081101561009557600080fd5b81019080803590602001906401000000008111156100b257600080fd5b8201836020820111156100c457600080fd5b803590602001918460018302840111640100000000831117156100e657600080fd5b91908080601f016020809104026020016040519081016040528093929190818152602001838380828437600081840152601f19601f820116905080830192505050505050509192919290803590602001909291905050506104cb565b005b34801561015057600080fd5b5061017d6004803603602081101561016757600080fd5b81019080803590602001909291905050506106d3565b604051808573ffffffffffffffffffffffffffffffffffffffff1673ffffffffffffffffffffffffffffffffffffffff168152602001806020018481526020018360028111156101c957fe5b60ff168152602001828103825285818151815260200191508051906020019080838360005b838110156102095780820151818401526020810190506101ee565b50505050905090810190601f1680156102365780820380516001836020036101000a031916815260200191505b509550505050505060405180910390f35b34801561025357600080fd5b506102806004803603602081101561026a57600080fd5b81019080803590602001909291905050506107c8565b005b34600080838152602001908152602001600020600201541461030c576040517f08c379a000000000000000000000000000000000000000000000000000000000815260040180806020018281038252601b8152602001807f4f6e6c792066756c6c207061796d656e7473206163636570746564000000000081525060200191505060405180910390fd5b6000600281111561031957fe5b60008083815260200190815260200160002060030160009054906101000a900460ff16600281111561034757fe5b146103ba576040517f08c379a000000000000000000000000000000000000000000000000000000000815260040180806020018281038252601c8152602001807f4974656d206973206675727468657220696e2074686520636861696e0000000081525060200191505060405180910390fd5b600160008083815260200190815260200160002060030160006101000a81548160ff021916908360028111156103ec57fe5b02179055507fa4035636e99f06b7651a604c1019fa4e8779fe68ef27eeb74dff2de348f6199b81600080600154815260200190815260200160002060030160009054906101000a900460ff16600281111561044357fe5b60008085815260200190815260200160002060000160009054906101000a900473ffffffffffffffffffffffffffffffffffffffff16604051808481526020018381526020018273ffffffffffffffffffffffffffffffffffffffff1673ffffffffffffffffffffffffffffffffffffffff168152602001935050505060405180910390a150565b600030826001546040516104de90610987565b808473ffffffffffffffffffffffffffffffffffffffff1673ffffffffffffffffffffffffffffffffffffffff1681526020018381526020018281526020019350505050604051809103906000f08015801561053e573d6000803e3d6000fd5b50905080600080600154815260200190815260200160002060000160006101000a81548173ffffffffffffffffffffffffffffffffffffffff021916908373ffffffffffffffffffffffffffffffffffffffff16021790555082600080600154815260200190815260200160002060010190805190602001906105c2929190610994565b50816000806001548152602001908152602001600020600201819055506000806000600154815260200190815260200160002060030160006101000a81548160ff0219169083600281111561061357fe5b02179055507fa4035636e99f06b7651a604c1019fa4e8779fe68ef27eeb74dff2de348f6199b600154600080600154815260200190815260200160002060030160009054906101000a900460ff16600281111561066c57fe5b83604051808481526020018381526020018273ffffffffffffffffffffffffffffffffffffffff1673ffffffffffffffffffffffffffffffffffffffff168152602001935050505060405180910390a1600160008154809291906001019190505550505050565b60006020528060005260406000206000915090508060000160009054906101000a900473ffffffffffffffffffffffffffffffffffffffff1690806001018054600181600116156101000203166002900480601f0160208091040260200160405190810160405280929190818152602001828054600181600116156101000203166002900480156107a55780601f1061077a576101008083540402835291602001916107a5565b820191906000526020600020905b81548152906001019060200180831161078857829003601f168201915b5050505050908060020154908060030160009054906101000a900460ff16905084565b600160028111156107d557fe5b60008083815260200190815260200160002060030160009054906101000a900460ff16600281111561080357fe5b14610876576040517f08c379a000000000000000000000000000000000000000000000000000000000815260040180806020018281038252601c8152602001807f4974656d206973206675727468657220696e2074686520636861696e0000000081525060200191505060405180910390fd5b600260008083815260200190815260200160002060030160006101000a81548160ff021916908360028111156108a857fe5b02179055507fa4035636e99f06b7651a604c1019fa4e8779fe68ef27eeb74dff2de348f6199b81600080600154815260200190815260200160002060030160009054906101000a900460ff1660028111156108ff57fe5b60008085815260200190815260200160002060000160009054906101000a900473ffffffffffffffffffffffffffffffffffffffff16604051808481526020018381526020018273ffffffffffffffffffffffffffffffffffffffff1673ffffffffffffffffffffffffffffffffffffffff168152602001935050505060405180910390a150565b6104bc80610a3a83390190565b828054600181600116156101000203166002900490600052602060002090601f016020900481019282601f106109d557805160ff1916838001178555610a03565b82800160010185558215610a03579182015b82811115610a025782518255916020019190600101906109e7565b5b509050610a109190610a14565b5090565b610a3691905b80821115610a32576000816000905550600101610a1a565b5090565b9056fe608060405234801561001057600080fd5b506040516104bc3803806104bc8339818101604052606081101561003357600080fd5b81019080805190602001909291908051906020019092919080519060200190929190505050816000819055508060028190555082600360006101000a81548173ffffffffffffffffffffffffffffffffffffffff021916908373ffffffffffffffffffffffffffffffffffffffff160217905550505050610403806100b96000396000f3fe6080604052600436106100385760003560e01c80632986c0e51461030e5780633c8da5881461033957806389794d0014610364576102ff565b366102ff576000600154146100b5576040517f08c379a00000000000000000000000000000000000000000000000000000000081526004018080602001828103825260158152602001807f4974656d73206973207061696420616c7265616479000000000000000000000081525060200191505060405180910390fd5b346000541461012c576040517f08c379a000000000000000000000000000000000000000000000000000000000815260040180806020018281038252601a8152602001807f4f6e6c792066756c6c207061796d656e747320616c6c6f77656400000000000081525060200191505060405180910390fd5b346001600082825401925050819055506000600360009054906101000a900473ffffffffffffffffffffffffffffffffffffffff1673ffffffffffffffffffffffffffffffffffffffff1634600254604051602401808281526020019150506040516020818303038152906040527f800fb83f000000000000000000000000000000000000000000000000000000007bffffffffffffffffffffffffffffffffffffffffffffffffffffffff19166020820180517bffffffffffffffffffffffffffffffffffffffffffffffffffffffff83818316178352505050506040518082805190602001908083835b6020831061023b5780518252602082019150602081019050602083039250610218565b6001836020036101000a03801982511681845116808217855250505050505090500191505060006040518083038185875af1925050503d806000811461029d576040519150601f19603f3d011682016040523d82523d6000602084013e6102a2565b606091505b50509050806102fc576040517f08c379a000000000000000000000000000000000000000000000000000000000815260040180806020018281038252602c8152602001806103a2602c913960400191505060405180910390fd5b50005b34801561030b57600080fd5b50005b34801561031a57600080fd5b5061032361038f565b6040518082815260200191505060405180910390f35b34801561034557600080fd5b5061034e610395565b6040518082815260200191505060405180910390f35b34801561037057600080fd5b5061037961039b565b6040518082815260200191505060405180910390f35b60025481565b60005481565b6001548156fe546865207472616e73616374696f6e207761736e2774207375636365737366756c2c2063616e63656c696e67a2646970667358221220d27cc3093a581a6f594d72716a798c7e848f28fd05aa68ad1b58c9103f46582a64736f6c63430006000033a264697066735822122048a9f4b9356107ad623354745487c043b5a4bcc79ef449ecc18b3ef61aaa017a64736f6c63430006000033",
					"opcodes": "PUSH1 0x80 PUSH1 0x40 MSTORE CALLVALUE DUP1 ISZERO PUSH2 0x10 JUMPI PUSH1 0x0 DUP1 REVERT JUMPDEST POP PUSH2 0xF2B DUP1 PUSH2 0x20 PUSH1 0x0 CODECOPY PUSH1 0x0 RETURN INVALID PUSH1 0x80 PUSH1 0x40 MSTORE PUSH1 0x4 CALLDATASIZE LT PUSH2 0x3F JUMPI PUSH1 0x0 CALLDATALOAD PUSH1 0xE0 SHR DUP1 PUSH4 0x800FB83F EQ PUSH2 0x44 JUMPI DUP1 PUSH4 0x8C551742 EQ PUSH2 0x72 JUMPI DUP1 PUSH4 0xBFB231D2 EQ PUSH2 0x144 JUMPI DUP1 PUSH4 0xCD31831E EQ PUSH2 0x247 JUMPI JUMPDEST PUSH1 0x0 DUP1 REVERT JUMPDEST PUSH2 0x70 PUSH1 0x4 DUP1 CALLDATASIZE SUB PUSH1 0x20 DUP2 LT ISZERO PUSH2 0x5A JUMPI PUSH1 0x0 DUP1 REVERT JUMPDEST DUP2 ADD SWAP1 DUP1 DUP1 CALLDATALOAD SWAP1 PUSH1 0x20 ADD SWAP1 SWAP3 SWAP2 SWAP1 POP POP POP PUSH2 0x282 JUMP JUMPDEST STOP JUMPDEST CALLVALUE DUP1 ISZERO PUSH2 0x7E JUMPI PUSH1 0x0 DUP1 REVERT JUMPDEST POP PUSH2 0x142 PUSH1 0x4 DUP1 CALLDATASIZE SUB PUSH1 0x40 DUP2 LT ISZERO PUSH2 0x95 JUMPI PUSH1 0x0 DUP1 REVERT JUMPDEST DUP2 ADD SWAP1 DUP1 DUP1 CALLDATALOAD SWAP1 PUSH1 0x20 ADD SWAP1 PUSH5 0x100000000 DUP2 GT ISZERO PUSH2 0xB2 JUMPI PUSH1 0x0 DUP1 REVERT JUMPDEST DUP3 ADD DUP4 PUSH1 0x20 DUP3 ADD GT ISZERO PUSH2 0xC4 JUMPI PUSH1 0x0 DUP1 REVERT JUMPDEST DUP1 CALLDATALOAD SWAP1 PUSH1 0x20 ADD SWAP2 DUP5 PUSH1 0x1 DUP4 MUL DUP5 ADD GT PUSH5 0x100000000 DUP4 GT OR ISZERO PUSH2 0xE6 JUMPI PUSH1 0x0 DUP1 REVERT JUMPDEST SWAP2 SWAP1 DUP1 DUP1 PUSH1 0x1F ADD PUSH1 0x20 DUP1 SWAP2 DIV MUL PUSH1 0x20 ADD PUSH1 0x40 MLOAD SWAP1 DUP2 ADD PUSH1 0x40 MSTORE DUP1 SWAP4 SWAP3 SWAP2 SWAP1 DUP2 DUP2 MSTORE PUSH1 0x20 ADD DUP4 DUP4 DUP1 DUP3 DUP5 CALLDATACOPY PUSH1 0x0 DUP2 DUP5 ADD MSTORE PUSH1 0x1F NOT PUSH1 0x1F DUP3 ADD AND SWAP1 POP DUP1 DUP4 ADD SWAP3 POP POP POP POP POP POP POP SWAP2 SWAP3 SWAP2 SWAP3 SWAP1 DUP1 CALLDATALOAD SWAP1 PUSH1 0x20 ADD SWAP1 SWAP3 SWAP2 SWAP1 POP POP POP PUSH2 0x4CB JUMP JUMPDEST STOP JUMPDEST CALLVALUE DUP1 ISZERO PUSH2 0x150 JUMPI PUSH1 0x0 DUP1 REVERT JUMPDEST POP PUSH2 0x17D PUSH1 0x4 DUP1 CALLDATASIZE SUB PUSH1 0x20 DUP2 LT ISZERO PUSH2 0x167 JUMPI PUSH1 0x0 DUP1 REVERT JUMPDEST DUP2 ADD SWAP1 DUP1 DUP1 CALLDATALOAD SWAP1 PUSH1 0x20 ADD SWAP1 SWAP3 SWAP2 SWAP1 POP POP POP PUSH2 0x6D3 JUMP JUMPDEST PUSH1 0x40 MLOAD DUP1 DUP6 PUSH20 0xFFFFFFFFFFFFFFFFFFFFFFFFFFFFFFFFFFFFFFFF AND PUSH20 0xFFFFFFFFFFFFFFFFFFFFFFFFFFFFFFFFFFFFFFFF AND DUP2 MSTORE PUSH1 0x20 ADD DUP1 PUSH1 0x20 ADD DUP5 DUP2 MSTORE PUSH1 0x20 ADD DUP4 PUSH1 0x2 DUP2 GT ISZERO PUSH2 0x1C9 JUMPI INVALID JUMPDEST PUSH1 0xFF AND DUP2 MSTORE PUSH1 0x20 ADD DUP3 DUP2 SUB DUP3 MSTORE DUP6 DUP2 DUP2 MLOAD DUP2 MSTORE PUSH1 0x20 ADD SWAP2 POP DUP1 MLOAD SWAP1 PUSH1 0x20 ADD SWAP1 DUP1 DUP4 DUP4 PUSH1 0x0 JUMPDEST DUP4 DUP2 LT ISZERO PUSH2 0x209 JUMPI DUP1 DUP3 ADD MLOAD DUP2 DUP5 ADD MSTORE PUSH1 0x20 DUP2 ADD SWAP1 POP PUSH2 0x1EE JUMP JUMPDEST POP POP POP POP SWAP1 POP SWAP1 DUP2 ADD SWAP1 PUSH1 0x1F AND DUP1 ISZERO PUSH2 0x236 JUMPI DUP1 DUP3 SUB DUP1 MLOAD PUSH1 0x1 DUP4 PUSH1 0x20 SUB PUSH2 0x100 EXP SUB NOT AND DUP2 MSTORE PUSH1 0x20 ADD SWAP2 POP JUMPDEST POP SWAP6 POP POP POP POP POP POP PUSH1 0x40 MLOAD DUP1 SWAP2 SUB SWAP1 RETURN JUMPDEST CALLVALUE DUP1 ISZERO PUSH2 0x253 JUMPI PUSH1 0x0 DUP1 REVERT JUMPDEST POP PUSH2 0x280 PUSH1 0x4 DUP1 CALLDATASIZE SUB PUSH1 0x20 DUP2 LT ISZERO PUSH2 0x26A JUMPI PUSH1 0x0 DUP1 REVERT JUMPDEST DUP2 ADD SWAP1 DUP1 DUP1 CALLDATALOAD SWAP1 PUSH1 0x20 ADD SWAP1 SWAP3 SWAP2 SWAP1 POP POP POP PUSH2 0x7C8 JUMP JUMPDEST STOP JUMPDEST CALLVALUE PUSH1 0x0 DUP1 DUP4 DUP2 MSTORE PUSH1 0x20 ADD SWAP1 DUP2 MSTORE PUSH1 0x20 ADD PUSH1 0x0 KECCAK256 PUSH1 0x2 ADD SLOAD EQ PUSH2 0x30C JUMPI PUSH1 0x40 MLOAD PUSH32 0x8C379A000000000000000000000000000000000000000000000000000000000 DUP2 MSTORE PUSH1 0x4 ADD DUP1 DUP1 PUSH1 0x20 ADD DUP3 DUP2 SUB DUP3 MSTORE PUSH1 0x1B DUP2 MSTORE PUSH1 0x20 ADD DUP1 PUSH32 0x4F6E6C792066756C6C207061796D656E74732061636365707465640000000000 DUP2 MSTORE POP PUSH1 0x20 ADD SWAP2 POP POP PUSH1 0x40 MLOAD DUP1 SWAP2 SUB SWAP1 REVERT JUMPDEST PUSH1 0x0 PUSH1 0x2 DUP2 GT ISZERO PUSH2 0x319 JUMPI INVALID JUMPDEST PUSH1 0x0 DUP1 DUP4 DUP2 MSTORE PUSH1 0x20 ADD SWAP1 DUP2 MSTORE PUSH1 0x20 ADD PUSH1 0x0 KECCAK256 PUSH1 0x3 ADD PUSH1 0x0 SWAP1 SLOAD SWAP1 PUSH2 0x100 EXP SWAP1 DIV PUSH1 0xFF AND PUSH1 0x2 DUP2 GT ISZERO PUSH2 0x347 JUMPI INVALID JUMPDEST EQ PUSH2 0x3BA JUMPI PUSH1 0x40 MLOAD PUSH32 0x8C379A000000000000000000000000000000000000000000000000000000000 DUP2 MSTORE PUSH1 0x4 ADD DUP1 DUP1 PUSH1 0x20 ADD DUP3 DUP2 SUB DUP3 MSTORE PUSH1 0x1C DUP2 MSTORE PUSH1 0x20 ADD DUP1 PUSH32 0x4974656D206973206675727468657220696E2074686520636861696E00000000 DUP2 MSTORE POP PUSH1 0x20 ADD SWAP2 POP POP PUSH1 0x40 MLOAD DUP1 SWAP2 SUB SWAP1 REVERT JUMPDEST PUSH1 0x1 PUSH1 0x0 DUP1 DUP4 DUP2 MSTORE PUSH1 0x20 ADD SWAP1 DUP2 MSTORE PUSH1 0x20 ADD PUSH1 0x0 KECCAK256 PUSH1 0x3 ADD PUSH1 0x0 PUSH2 0x100 EXP DUP2 SLOAD DUP2 PUSH1 0xFF MUL NOT AND SWAP1 DUP4 PUSH1 0x2 DUP2 GT ISZERO PUSH2 0x3EC JUMPI INVALID JUMPDEST MUL OR SWAP1 SSTORE POP PUSH32 0xA4035636E99F06B7651A604C1019FA4E8779FE68EF27EEB74DFF2DE348F6199B DUP2 PUSH1 0x0 DUP1 PUSH1 0x1 SLOAD DUP2 MSTORE PUSH1 0x20 ADD SWAP1 DUP2 MSTORE PUSH1 0x20 ADD PUSH1 0x0 KECCAK256 PUSH1 0x3 ADD PUSH1 0x0 SWAP1 SLOAD SWAP1 PUSH2 0x100 EXP SWAP1 DIV PUSH1 0xFF AND PUSH1 0x2 DUP2 GT ISZERO PUSH2 0x443 JUMPI INVALID JUMPDEST PUSH1 0x0 DUP1 DUP6 DUP2 MSTORE PUSH1 0x20 ADD SWAP1 DUP2 MSTORE PUSH1 0x20 ADD PUSH1 0x0 KECCAK256 PUSH1 0x0 ADD PUSH1 0x0 SWAP1 SLOAD SWAP1 PUSH2 0x100 EXP SWAP1 DIV PUSH20 0xFFFFFFFFFFFFFFFFFFFFFFFFFFFFFFFFFFFFFFFF AND PUSH1 0x40 MLOAD DUP1 DUP5 DUP2 MSTORE PUSH1 0x20 ADD DUP4 DUP2 MSTORE PUSH1 0x20 ADD DUP3 PUSH20 0xFFFFFFFFFFFFFFFFFFFFFFFFFFFFFFFFFFFFFFFF AND PUSH20 0xFFFFFFFFFFFFFFFFFFFFFFFFFFFFFFFFFFFFFFFF AND DUP2 MSTORE PUSH1 0x20 ADD SWAP4 POP POP POP POP PUSH1 0x40 MLOAD DUP1 SWAP2 SUB SWAP1 LOG1 POP JUMP JUMPDEST PUSH1 0x0 ADDRESS DUP3 PUSH1 0x1 SLOAD PUSH1 0x40 MLOAD PUSH2 0x4DE SWAP1 PUSH2 0x987 JUMP JUMPDEST DUP1 DUP5 PUSH20 0xFFFFFFFFFFFFFFFFFFFFFFFFFFFFFFFFFFFFFFFF AND PUSH20 0xFFFFFFFFFFFFFFFFFFFFFFFFFFFFFFFFFFFFFFFF AND DUP2 MSTORE PUSH1 0x20 ADD DUP4 DUP2 MSTORE PUSH1 0x20 ADD DUP3 DUP2 MSTORE PUSH1 0x20 ADD SWAP4 POP POP POP POP PUSH1 0x40 MLOAD DUP1 SWAP2 SUB SWAP1 PUSH1 0x0 CREATE DUP1 ISZERO DUP1 ISZERO PUSH2 0x53E JUMPI RETURNDATASIZE PUSH1 0x0 DUP1 RETURNDATACOPY RETURNDATASIZE PUSH1 0x0 REVERT JUMPDEST POP SWAP1 POP DUP1 PUSH1 0x0 DUP1 PUSH1 0x1 SLOAD DUP2 MSTORE PUSH1 0x20 ADD SWAP1 DUP2 MSTORE PUSH1 0x20 ADD PUSH1 0x0 KECCAK256 PUSH1 0x0 ADD PUSH1 0x0 PUSH2 0x100 EXP DUP2 SLOAD DUP2 PUSH20 0xFFFFFFFFFFFFFFFFFFFFFFFFFFFFFFFFFFFFFFFF MUL NOT AND SWAP1 DUP4 PUSH20 0xFFFFFFFFFFFFFFFFFFFFFFFFFFFFFFFFFFFFFFFF AND MUL OR SWAP1 SSTORE POP DUP3 PUSH1 0x0 DUP1 PUSH1 0x1 SLOAD DUP2 MSTORE PUSH1 0x20 ADD SWAP1 DUP2 MSTORE PUSH1 0x20 ADD PUSH1 0x0 KECCAK256 PUSH1 0x1 ADD SWAP1 DUP1 MLOAD SWAP1 PUSH1 0x20 ADD SWAP1 PUSH2 0x5C2 SWAP3 SWAP2 SWAP1 PUSH2 0x994 JUMP JUMPDEST POP DUP2 PUSH1 0x0 DUP1 PUSH1 0x1 SLOAD DUP2 MSTORE PUSH1 0x20 ADD SWAP1 DUP2 MSTORE PUSH1 0x20 ADD PUSH1 0x0 KECCAK256 PUSH1 0x2 ADD DUP2 SWAP1 SSTORE POP PUSH1 0x0 DUP1 PUSH1 0x0 PUSH1 0x1 SLOAD DUP2 MSTORE PUSH1 0x20 ADD SWAP1 DUP2 MSTORE PUSH1 0x20 ADD PUSH1 0x0 KECCAK256 PUSH1 0x3 ADD PUSH1 0x0 PUSH2 0x100 EXP DUP2 SLOAD DUP2 PUSH1 0xFF MUL NOT AND SWAP1 DUP4 PUSH1 0x2 DUP2 GT ISZERO PUSH2 0x613 JUMPI INVALID JUMPDEST MUL OR SWAP1 SSTORE POP PUSH32 0xA4035636E99F06B7651A604C1019FA4E8779FE68EF27EEB74DFF2DE348F6199B PUSH1 0x1 SLOAD PUSH1 0x0 DUP1 PUSH1 0x1 SLOAD DUP2 MSTORE PUSH1 0x20 ADD SWAP1 DUP2 MSTORE PUSH1 0x20 ADD PUSH1 0x0 KECCAK256 PUSH1 0x3 ADD PUSH1 0x0 SWAP1 SLOAD SWAP1 PUSH2 0x100 EXP SWAP1 DIV PUSH1 0xFF AND PUSH1 0x2 DUP2 GT ISZERO PUSH2 0x66C JUMPI INVALID JUMPDEST DUP4 PUSH1 0x40 MLOAD DUP1 DUP5 DUP2 MSTORE PUSH1 0x20 ADD DUP4 DUP2 MSTORE PUSH1 0x20 ADD DUP3 PUSH20 0xFFFFFFFFFFFFFFFFFFFFFFFFFFFFFFFFFFFFFFFF AND PUSH20 0xFFFFFFFFFFFFFFFFFFFFFFFFFFFFFFFFFFFFFFFF AND DUP2 MSTORE PUSH1 0x20 ADD SWAP4 POP POP POP POP PUSH1 0x40 MLOAD DUP1 SWAP2 SUB SWAP1 LOG1 PUSH1 0x1 PUSH1 0x0 DUP2 SLOAD DUP1 SWAP3 SWAP2 SWAP1 PUSH1 0x1 ADD SWAP2 SWAP1 POP SSTORE POP POP POP POP JUMP JUMPDEST PUSH1 0x0 PUSH1 0x20 MSTORE DUP1 PUSH1 0x0 MSTORE PUSH1 0x40 PUSH1 0x0 KECCAK256 PUSH1 0x0 SWAP2 POP SWAP1 POP DUP1 PUSH1 0x0 ADD PUSH1 0x0 SWAP1 SLOAD SWAP1 PUSH2 0x100 EXP SWAP1 DIV PUSH20 0xFFFFFFFFFFFFFFFFFFFFFFFFFFFFFFFFFFFFFFFF AND SWAP1 DUP1 PUSH1 0x1 ADD DUP1 SLOAD PUSH1 0x1 DUP2 PUSH1 0x1 AND ISZERO PUSH2 0x100 MUL SUB AND PUSH1 0x2 SWAP1 DIV DUP1 PUSH1 0x1F ADD PUSH1 0x20 DUP1 SWAP2 DIV MUL PUSH1 0x20 ADD PUSH1 0x40 MLOAD SWAP1 DUP2 ADD PUSH1 0x40 MSTORE DUP1 SWAP3 SWAP2 SWAP1 DUP2 DUP2 MSTORE PUSH1 0x20 ADD DUP3 DUP1 SLOAD PUSH1 0x1 DUP2 PUSH1 0x1 AND ISZERO PUSH2 0x100 MUL SUB AND PUSH1 0x2 SWAP1 DIV DUP1 ISZERO PUSH2 0x7A5 JUMPI DUP1 PUSH1 0x1F LT PUSH2 0x77A JUMPI PUSH2 0x100 DUP1 DUP4 SLOAD DIV MUL DUP4 MSTORE SWAP2 PUSH1 0x20 ADD SWAP2 PUSH2 0x7A5 JUMP JUMPDEST DUP3 ADD SWAP2 SWAP1 PUSH1 0x0 MSTORE PUSH1 0x20 PUSH1 0x0 KECCAK256 SWAP1 JUMPDEST DUP2 SLOAD DUP2 MSTORE SWAP1 PUSH1 0x1 ADD SWAP1 PUSH1 0x20 ADD DUP1 DUP4 GT PUSH2 0x788 JUMPI DUP3 SWAP1 SUB PUSH1 0x1F AND DUP3 ADD SWAP2 JUMPDEST POP POP POP POP POP SWAP1 DUP1 PUSH1 0x2 ADD SLOAD SWAP1 DUP1 PUSH1 0x3 ADD PUSH1 0x0 SWAP1 SLOAD SWAP1 PUSH2 0x100 EXP SWAP1 DIV PUSH1 0xFF AND SWAP1 POP DUP5 JUMP JUMPDEST PUSH1 0x1 PUSH1 0x2 DUP2 GT ISZERO PUSH2 0x7D5 JUMPI INVALID JUMPDEST PUSH1 0x0 DUP1 DUP4 DUP2 MSTORE PUSH1 0x20 ADD SWAP1 DUP2 MSTORE PUSH1 0x20 ADD PUSH1 0x0 KECCAK256 PUSH1 0x3 ADD PUSH1 0x0 SWAP1 SLOAD SWAP1 PUSH2 0x100 EXP SWAP1 DIV PUSH1 0xFF AND PUSH1 0x2 DUP2 GT ISZERO PUSH2 0x803 JUMPI INVALID JUMPDEST EQ PUSH2 0x876 JUMPI PUSH1 0x40 MLOAD PUSH32 0x8C379A000000000000000000000000000000000000000000000000000000000 DUP2 MSTORE PUSH1 0x4 ADD DUP1 DUP1 PUSH1 0x20 ADD DUP3 DUP2 SUB DUP3 MSTORE PUSH1 0x1C DUP2 MSTORE PUSH1 0x20 ADD DUP1 PUSH32 0x4974656D206973206675727468657220696E2074686520636861696E00000000 DUP2 MSTORE POP PUSH1 0x20 ADD SWAP2 POP POP PUSH1 0x40 MLOAD DUP1 SWAP2 SUB SWAP1 REVERT JUMPDEST PUSH1 0x2 PUSH1 0x0 DUP1 DUP4 DUP2 MSTORE PUSH1 0x20 ADD SWAP1 DUP2 MSTORE PUSH1 0x20 ADD PUSH1 0x0 KECCAK256 PUSH1 0x3 ADD PUSH1 0x0 PUSH2 0x100 EXP DUP2 SLOAD DUP2 PUSH1 0xFF MUL NOT AND SWAP1 DUP4 PUSH1 0x2 DUP2 GT ISZERO PUSH2 0x8A8 JUMPI INVALID JUMPDEST MUL OR SWAP1 SSTORE POP PUSH32 0xA4035636E99F06B7651A604C1019FA4E8779FE68EF27EEB74DFF2DE348F6199B DUP2 PUSH1 0x0 DUP1 PUSH1 0x1 SLOAD DUP2 MSTORE PUSH1 0x20 ADD SWAP1 DUP2 MSTORE PUSH1 0x20 ADD PUSH1 0x0 KECCAK256 PUSH1 0x3 ADD PUSH1 0x0 SWAP1 SLOAD SWAP1 PUSH2 0x100 EXP SWAP1 DIV PUSH1 0xFF AND PUSH1 0x2 DUP2 GT ISZERO PUSH2 0x8FF JUMPI INVALID JUMPDEST PUSH1 0x0 DUP1 DUP6 DUP2 MSTORE PUSH1 0x20 ADD SWAP1 DUP2 MSTORE PUSH1 0x20 ADD PUSH1 0x0 KECCAK256 PUSH1 0x0 ADD PUSH1 0x0 SWAP1 SLOAD SWAP1 PUSH2 0x100 EXP SWAP1 DIV PUSH20 0xFFFFFFFFFFFFFFFFFFFFFFFFFFFFFFFFFFFFFFFF AND PUSH1 0x40 MLOAD DUP1 DUP5 DUP2 MSTORE PUSH1 0x20 ADD DUP4 DUP2 MSTORE PUSH1 0x20 ADD DUP3 PUSH20 0xFFFFFFFFFFFFFFFFFFFFFFFFFFFFFFFFFFFFFFFF AND PUSH20 0xFFFFFFFFFFFFFFFFFFFFFFFFFFFFFFFFFFFFFFFF AND DUP2 MSTORE PUSH1 0x20 ADD SWAP4 POP POP POP POP PUSH1 0x40 MLOAD DUP1 SWAP2 SUB SWAP1 LOG1 POP JUMP JUMPDEST PUSH2 0x4BC DUP1 PUSH2 0xA3A DUP4 CODECOPY ADD SWAP1 JUMP JUMPDEST DUP3 DUP1 SLOAD PUSH1 0x1 DUP2 PUSH1 0x1 AND ISZERO PUSH2 0x100 MUL SUB AND PUSH1 0x2 SWAP1 DIV SWAP1 PUSH1 0x0 MSTORE PUSH1 0x20 PUSH1 0x0 KECCAK256 SWAP1 PUSH1 0x1F ADD PUSH1 0x20 SWAP1 DIV DUP2 ADD SWAP3 DUP3 PUSH1 0x1F LT PUSH2 0x9D5 JUMPI DUP1 MLOAD PUSH1 0xFF NOT AND DUP4 DUP1 ADD OR DUP6 SSTORE PUSH2 0xA03 JUMP JUMPDEST DUP3 DUP1 ADD PUSH1 0x1 ADD DUP6 SSTORE DUP3 ISZERO PUSH2 0xA03 JUMPI SWAP2 DUP3 ADD JUMPDEST DUP3 DUP2 GT ISZERO PUSH2 0xA02 JUMPI DUP3 MLOAD DUP3 SSTORE SWAP2 PUSH1 0x20 ADD SWAP2 SWAP1 PUSH1 0x1 ADD SWAP1 PUSH2 0x9E7 JUMP JUMPDEST JUMPDEST POP SWAP1 POP PUSH2 0xA10 SWAP2 SWAP1 PUSH2 0xA14 JUMP JUMPDEST POP SWAP1 JUMP JUMPDEST PUSH2 0xA36 SWAP2 SWAP1 JUMPDEST DUP1 DUP3 GT ISZERO PUSH2 0xA32 JUMPI PUSH1 0x0 DUP2 PUSH1 0x0 SWAP1 SSTORE POP PUSH1 0x1 ADD PUSH2 0xA1A JUMP JUMPDEST POP SWAP1 JUMP JUMPDEST SWAP1 JUMP INVALID PUSH1 0x80 PUSH1 0x40 MSTORE CALLVALUE DUP1 ISZERO PUSH2 0x10 JUMPI PUSH1 0x0 DUP1 REVERT JUMPDEST POP PUSH1 0x40 MLOAD PUSH2 0x4BC CODESIZE SUB DUP1 PUSH2 0x4BC DUP4 CODECOPY DUP2 DUP2 ADD PUSH1 0x40 MSTORE PUSH1 0x60 DUP2 LT ISZERO PUSH2 0x33 JUMPI PUSH1 0x0 DUP1 REVERT JUMPDEST DUP2 ADD SWAP1 DUP1 DUP1 MLOAD SWAP1 PUSH1 0x20 ADD SWAP1 SWAP3 SWAP2 SWAP1 DUP1 MLOAD SWAP1 PUSH1 0x20 ADD SWAP1 SWAP3 SWAP2 SWAP1 DUP1 MLOAD SWAP1 PUSH1 0x20 ADD SWAP1 SWAP3 SWAP2 SWAP1 POP POP POP DUP2 PUSH1 0x0 DUP2 SWAP1 SSTORE POP DUP1 PUSH1 0x2 DUP2 SWAP1 SSTORE POP DUP3 PUSH1 0x3 PUSH1 0x0 PUSH2 0x100 EXP DUP2 SLOAD DUP2 PUSH20 0xFFFFFFFFFFFFFFFFFFFFFFFFFFFFFFFFFFFFFFFF MUL NOT AND SWAP1 DUP4 PUSH20 0xFFFFFFFFFFFFFFFFFFFFFFFFFFFFFFFFFFFFFFFF AND MUL OR SWAP1 SSTORE POP POP POP POP PUSH2 0x403 DUP1 PUSH2 0xB9 PUSH1 0x0 CODECOPY PUSH1 0x0 RETURN INVALID PUSH1 0x80 PUSH1 0x40 MSTORE PUSH1 0x4 CALLDATASIZE LT PUSH2 0x38 JUMPI PUSH1 0x0 CALLDATALOAD PUSH1 0xE0 SHR DUP1 PUSH4 0x2986C0E5 EQ PUSH2 0x30E JUMPI DUP1 PUSH4 0x3C8DA588 EQ PUSH2 0x339 JUMPI DUP1 PUSH4 0x89794D00 EQ PUSH2 0x364 JUMPI PUSH2 0x2FF JUMP JUMPDEST CALLDATASIZE PUSH2 0x2FF JUMPI PUSH1 0x0 PUSH1 0x1 SLOAD EQ PUSH2 0xB5 JUMPI PUSH1 0x40 MLOAD PUSH32 0x8C379A000000000000000000000000000000000000000000000000000000000 DUP2 MSTORE PUSH1 0x4 ADD DUP1 DUP1 PUSH1 0x20 ADD DUP3 DUP2 SUB DUP3 MSTORE PUSH1 0x15 DUP2 MSTORE PUSH1 0x20 ADD DUP1 PUSH32 0x4974656D73206973207061696420616C72656164790000000000000000000000 DUP2 MSTORE POP PUSH1 0x20 ADD SWAP2 POP POP PUSH1 0x40 MLOAD DUP1 SWAP2 SUB SWAP1 REVERT JUMPDEST CALLVALUE PUSH1 0x0 SLOAD EQ PUSH2 0x12C JUMPI PUSH1 0x40 MLOAD PUSH32 0x8C379A000000000000000000000000000000000000000000000000000000000 DUP2 MSTORE PUSH1 0x4 ADD DUP1 DUP1 PUSH1 0x20 ADD DUP3 DUP2 SUB DUP3 MSTORE PUSH1 0x1A DUP2 MSTORE PUSH1 0x20 ADD DUP1 PUSH32 0x4F6E6C792066756C6C207061796D656E747320616C6C6F776564000000000000 DUP2 MSTORE POP PUSH1 0x20 ADD SWAP2 POP POP PUSH1 0x40 MLOAD DUP1 SWAP2 SUB SWAP1 REVERT JUMPDEST CALLVALUE PUSH1 0x1 PUSH1 0x0 DUP3 DUP3 SLOAD ADD SWAP3 POP POP DUP2 SWAP1 SSTORE POP PUSH1 0x0 PUSH1 0x3 PUSH1 0x0 SWAP1 SLOAD SWAP1 PUSH2 0x100 EXP SWAP1 DIV PUSH20 0xFFFFFFFFFFFFFFFFFFFFFFFFFFFFFFFFFFFFFFFF AND PUSH20 0xFFFFFFFFFFFFFFFFFFFFFFFFFFFFFFFFFFFFFFFF AND CALLVALUE PUSH1 0x2 SLOAD PUSH1 0x40 MLOAD PUSH1 0x24 ADD DUP1 DUP3 DUP2 MSTORE PUSH1 0x20 ADD SWAP2 POP POP PUSH1 0x40 MLOAD PUSH1 0x20 DUP2 DUP4 SUB SUB DUP2 MSTORE SWAP1 PUSH1 0x40 MSTORE PUSH32 0x800FB83F00000000000000000000000000000000000000000000000000000000 PUSH28 0xFFFFFFFFFFFFFFFFFFFFFFFFFFFFFFFFFFFFFFFFFFFFFFFFFFFFFFFF NOT AND PUSH1 0x20 DUP3 ADD DUP1 MLOAD PUSH28 0xFFFFFFFFFFFFFFFFFFFFFFFFFFFFFFFFFFFFFFFFFFFFFFFFFFFFFFFF DUP4 DUP2 DUP4 AND OR DUP4 MSTORE POP POP POP POP PUSH1 0x40 MLOAD DUP1 DUP3 DUP1 MLOAD SWAP1 PUSH1 0x20 ADD SWAP1 DUP1 DUP4 DUP4 JUMPDEST PUSH1 0x20 DUP4 LT PUSH2 0x23B JUMPI DUP1 MLOAD DUP3 MSTORE PUSH1 0x20 DUP3 ADD SWAP2 POP PUSH1 0x20 DUP2 ADD SWAP1 POP PUSH1 0x20 DUP4 SUB SWAP3 POP PUSH2 0x218 JUMP JUMPDEST PUSH1 0x1 DUP4 PUSH1 0x20 SUB PUSH2 0x100 EXP SUB DUP1 NOT DUP3 MLOAD AND DUP2 DUP5 MLOAD AND DUP1 DUP3 OR DUP6 MSTORE POP POP POP POP POP POP SWAP1 POP ADD SWAP2 POP POP PUSH1 0x0 PUSH1 0x40 MLOAD DUP1 DUP4 SUB DUP2 DUP6 DUP8 GAS CALL SWAP3 POP POP POP RETURNDATASIZE DUP1 PUSH1 0x0 DUP2 EQ PUSH2 0x29D JUMPI PUSH1 0x40 MLOAD SWAP2 POP PUSH1 0x1F NOT PUSH1 0x3F RETURNDATASIZE ADD AND DUP3 ADD PUSH1 0x40 MSTORE RETURNDATASIZE DUP3 MSTORE RETURNDATASIZE PUSH1 0x0 PUSH1 0x20 DUP5 ADD RETURNDATACOPY PUSH2 0x2A2 JUMP JUMPDEST PUSH1 0x60 SWAP2 POP JUMPDEST POP POP SWAP1 POP DUP1 PUSH2 0x2FC JUMPI PUSH1 0x40 MLOAD PUSH32 0x8C379A000000000000000000000000000000000000000000000000000000000 DUP2 MSTORE PUSH1 0x4 ADD DUP1 DUP1 PUSH1 0x20 ADD DUP3 DUP2 SUB DUP3 MSTORE PUSH1 0x2C DUP2 MSTORE PUSH1 0x20 ADD DUP1 PUSH2 0x3A2 PUSH1 0x2C SWAP2 CODECOPY PUSH1 0x40 ADD SWAP2 POP POP PUSH1 0x40 MLOAD DUP1 SWAP2 SUB SWAP1 REVERT JUMPDEST POP STOP JUMPDEST CALLVALUE DUP1 ISZERO PUSH2 0x30B JUMPI PUSH1 0x0 DUP1 REVERT JUMPDEST POP STOP JUMPDEST CALLVALUE DUP1 ISZERO PUSH2 0x31A JUMPI PUSH1 0x0 DUP1 REVERT JUMPDEST POP PUSH2 0x323 PUSH2 0x38F JUMP JUMPDEST PUSH1 0x40 MLOAD DUP1 DUP3 DUP2 MSTORE PUSH1 0x20 ADD SWAP2 POP POP PUSH1 0x40 MLOAD DUP1 SWAP2 SUB SWAP1 RETURN JUMPDEST CALLVALUE DUP1 ISZERO PUSH2 0x345 JUMPI PUSH1 0x0 DUP1 REVERT JUMPDEST POP PUSH2 0x34E PUSH2 0x395 JUMP JUMPDEST PUSH1 0x40 MLOAD DUP1 DUP3 DUP2 MSTORE PUSH1 0x20 ADD SWAP2 POP POP PUSH1 0x40 MLOAD DUP1 SWAP2 SUB SWAP1 RETURN JUMPDEST CALLVALUE DUP1 ISZERO PUSH2 0x370 JUMPI PUSH1 0x0 DUP1 REVERT JUMPDEST POP PUSH2 0x379 PUSH2 0x39B JUMP JUMPDEST PUSH1 0x40 MLOAD DUP1 DUP3 DUP2 MSTORE PUSH1 0x20 ADD SWAP2 POP POP PUSH1 0x40 MLOAD DUP1 SWAP2 SUB SWAP1 RETURN JUMPDEST PUSH1 0x2 SLOAD DUP2 JUMP JUMPDEST PUSH1 0x0 SLOAD DUP2 JUMP JUMPDEST PUSH1 0x1 SLOAD DUP2 JUMP INVALID SLOAD PUSH9 0x65207472616E736163 PUSH21 0x696F6E207761736E2774207375636365737366756C 0x2C KECCAK256 PUSH4 0x616E6365 PUSH13 0x696E67A2646970667358221220 0xD2 PUSH29 0xC3093A581A6F594D72716A798C7E848F28FD05AA68AD1B58C9103F4658 0x2A PUSH5 0x736F6C6343 STOP MOD STOP STOP CALLER LOG2 PUSH5 0x6970667358 0x22 SLT KECCAK256 0x48 0xA9 DELEGATECALL 0xB9 CALLDATALOAD PUSH2 0x7AD PUSH3 0x335474 SLOAD DUP8 0xC0 NUMBER 0xB5 LOG4 0xBC 0xC7 SWAP15 DELEGATECALL 0x49 0xEC 0xC1 DUP12 RETURNDATACOPY 0xF6 BYTE 0xAA ADD PUSH27 0x64736F6C6343000600003300000000000000000000000000000000 "
				},
				"gasEstimates": {
					"creation": {
						"codeDepositCost": "776600",
						"executionCost": "812",
						"totalCost": "777412"
					},
					"external": {
						"createItem(string,uint256)": "infinite",
						"items(uint256)": "infinite",
						"triggerDelivery(uint256)": "26541",
						"triggerPayment(uint256)": "27357"
					}
				},
				"methodIdentifiers": {
					"createItem(string,uint256)": "8c551742",
					"items(uint256)": "bfb231d2",
					"triggerDelivery(uint256)": "cd31831e",
					"triggerPayment(uint256)": "800fb83f"
				}
			},
			"storageLayout": {
				"storage": [
					{
						"astId": 101,
						"contract": "contracts/example/web3/eventTrigger/ItemManager.sol:ItemManager",
						"label": "items",
						"offset": 0,
						"slot": "0",
						"type": "t_mapping(t_uint256,t_struct(S_Item)97_storage)"
					},
					{
						"astId": 103,
						"contract": "contracts/example/web3/eventTrigger/ItemManager.sol:ItemManager",
						"label": "itemIndex",
						"offset": 0,
						"slot": "1",
						"type": "t_uint256"
					}
				],
				"types": {
					"t_contract(Item)84": {
						"encoding": "inplace",
						"label": "contract Item",
						"numberOfBytes": "20"
					},
					"t_enum(SupplyChainState)88": {
						"encoding": "inplace",
						"label": "enum ItemManager.SupplyChainState",
						"numberOfBytes": "1"
					},
					"t_mapping(t_uint256,t_struct(S_Item)97_storage)": {
						"encoding": "mapping",
						"key": "t_uint256",
						"label": "mapping(uint256 => struct ItemManager.S_Item)",
						"numberOfBytes": "32",
						"value": "t_struct(S_Item)97_storage"
					},
					"t_string_storage": {
						"encoding": "bytes",
						"label": "string",
						"numberOfBytes": "32"
					},
					"t_struct(S_Item)97_storage": {
						"encoding": "inplace",
						"label": "struct ItemManager.S_Item",
						"members": [
							{
								"astId": 90,
								"contract": "contracts/example/web3/eventTrigger/ItemManager.sol:ItemManager",
								"label": "_item",
								"offset": 0,
								"slot": "0",
								"type": "t_contract(Item)84"
							},
							{
								"astId": 92,
								"contract": "contracts/example/web3/eventTrigger/ItemManager.sol:ItemManager",
								"label": "_identifier",
								"offset": 0,
								"slot": "1",
								"type": "t_string_storage"
							},
							{
								"astId": 94,
								"contract": "contracts/example/web3/eventTrigger/ItemManager.sol:ItemManager",
								"label": "_itemPrice",
								"offset": 0,
								"slot": "2",
								"type": "t_uint256"
							},
							{
								"astId": 96,
								"contract": "contracts/example/web3/eventTrigger/ItemManager.sol:ItemManager",
								"label": "_state",
								"offset": 0,
								"slot": "3",
								"type": "t_enum(SupplyChainState)88"
							}
						],
						"numberOfBytes": "128"
					},
					"t_uint256": {
						"encoding": "inplace",
						"label": "uint256",
						"numberOfBytes": "32"
					}
				}
			},
			"userdoc": {
				"methods": {}
			}
		}
	}
}