{
	"contracts/example/web3/eventTrigger/ItemManager.sol": {
		"Item": {
			"abi": [
				{
					"inputs": [
						{
							"internalType": "contract ItemManager",
							"name": "_parentContract",
							"type": "address"
						},
						{
							"internalType": "uint256",
							"name": "_priceInWei",
							"type": "uint256"
						},
						{
							"internalType": "uint256",
							"name": "_index",
							"type": "uint256"
						}
					],
					"stateMutability": "nonpayable",
					"type": "constructor"
				},
				{
					"inputs": [],
					"name": "inex",
					"outputs": [
						{
							"internalType": "uint256",
							"name": "",
							"type": "uint256"
						}
					],
					"stateMutability": "view",
					"type": "function"
				},
				{
					"inputs": [],
					"name": "priceInWei",
					"outputs": [
						{
							"internalType": "uint256",
							"name": "",
							"type": "uint256"
						}
					],
					"stateMutability": "view",
					"type": "function"
				}
			],
			"devdoc": {
				"methods": {}
			},
			"evm": {
				"assembly": "    /* \"contracts/example/web3/eventTrigger/ItemManager.sol\":25:251  contract Item {... */\n  mstore(0x40, 0x80)\n    /* \"contracts/example/web3/eventTrigger/ItemManager.sol\":129:249  constructor(ItemManager _parentContract, uint _priceInWei, uint _index) public {... */\n  callvalue\n    /* \"--CODEGEN--\":8:17   */\n  dup1\n    /* \"--CODEGEN--\":5:7   */\n  iszero\n  tag_1\n  jumpi\n    /* \"--CODEGEN--\":30:31   */\n  0x00\n    /* \"--CODEGEN--\":27:28   */\n  dup1\n    /* \"--CODEGEN--\":20:32   */\n  revert\n    /* \"--CODEGEN--\":5:7   */\ntag_1:\n    /* \"contracts/example/web3/eventTrigger/ItemManager.sol\":129:249  constructor(ItemManager _parentContract, uint _priceInWei, uint _index) public {... */\n  pop\n  mload(0x40)\n  sub(codesize, bytecodeSize)\n  dup1\n  bytecodeSize\n  dup4\n  codecopy\n  dup2\n  dup2\n  add\n  0x40\n  mstore\n    /* \"--CODEGEN--\":13:15   */\n  0x60\n    /* \"--CODEGEN--\":8:11   */\n  dup2\n    /* \"--CODEGEN--\":5:16   */\n  lt\n    /* \"--CODEGEN--\":2:4   */\n  iszero\n  tag_2\n  jumpi\n    /* \"--CODEGEN--\":29:30   */\n  0x00\n    /* \"--CODEGEN--\":26:27   */\n  dup1\n    /* \"--CODEGEN--\":19:31   */\n  revert\n    /* \"--CODEGEN--\":2:4   */\ntag_2:\n    /* \"contracts/example/web3/eventTrigger/ItemManager.sol\":129:249  constructor(ItemManager _parentContract, uint _priceInWei, uint _index) public {... */\n  dup2\n  add\n  swap1\n  dup1\n  dup1\n  mload\n  swap1\n  0x20\n  add\n  swap1\n  swap3\n  swap2\n  swap1\n  dup1\n  mload\n  swap1\n  0x20\n  add\n  swap1\n  swap3\n  swap2\n  swap1\n  dup1\n  mload\n  swap1\n  0x20\n  add\n  swap1\n  swap3\n  swap2\n  swap1\n  pop\n  pop\n  pop\n    /* \"contracts/example/web3/eventTrigger/ItemManager.sol\":231:242  _priceInWei */\n  dup2\n    /* \"contracts/example/web3/eventTrigger/ItemManager.sol\":218:228  priceInWei */\n  0x00\n    /* \"contracts/example/web3/eventTrigger/ItemManager.sol\":218:242  priceInWei = _priceInWei */\n  dup2\n  swap1\n  sstore\n  pop\n    /* \"contracts/example/web3/eventTrigger/ItemManager.sol\":129:249  constructor(ItemManager _parentContract, uint _priceInWei, uint _index) public {... */\n  pop\n  pop\n  pop\n    /* \"contracts/example/web3/eventTrigger/ItemManager.sol\":25:251  contract Item {... */\n  dataSize(sub_0)\n  dup1\n  dataOffset(sub_0)\n  0x00\n  codecopy\n  0x00\n  return\nstop\n\nsub_0: assembly {\n        /* \"contracts/example/web3/eventTrigger/ItemManager.sol\":25:251  contract Item {... */\n      mstore(0x40, 0x80)\n      callvalue\n        /* \"--CODEGEN--\":8:17   */\n      dup1\n        /* \"--CODEGEN--\":5:7   */\n      iszero\n      tag_1\n      jumpi\n        /* \"--CODEGEN--\":30:31   */\n      0x00\n        /* \"--CODEGEN--\":27:28   */\n      dup1\n        /* \"--CODEGEN--\":20:32   */\n      revert\n        /* \"--CODEGEN--\":5:7   */\n    tag_1:\n        /* \"contracts/example/web3/eventTrigger/ItemManager.sol\":25:251  contract Item {... */\n      pop\n      jumpi(tag_2, lt(calldatasize, 0x04))\n      shr(0xe0, calldataload(0x00))\n      dup1\n      0x3c8da588\n      eq\n      tag_3\n      jumpi\n      dup1\n      0xbd963be1\n      eq\n      tag_4\n      jumpi\n    tag_2:\n      0x00\n      dup1\n      revert\n        /* \"contracts/example/web3/eventTrigger/ItemManager.sol\":45:67  uint public priceInWei */\n    tag_3:\n      tag_5\n      tag_6\n      jump\t// in\n    tag_5:\n      mload(0x40)\n      dup1\n      dup3\n      dup2\n      mstore\n      0x20\n      add\n      swap2\n      pop\n      pop\n      mload(0x40)\n      dup1\n      swap2\n      sub\n      swap1\n      return\n        /* \"contracts/example/web3/eventTrigger/ItemManager.sol\":73:89  uint public inex */\n    tag_4:\n      tag_7\n      tag_8\n      jump\t// in\n    tag_7:\n      mload(0x40)\n      dup1\n      dup3\n      dup2\n      mstore\n      0x20\n      add\n      swap2\n      pop\n      pop\n      mload(0x40)\n      dup1\n      swap2\n      sub\n      swap1\n      return\n        /* \"contracts/example/web3/eventTrigger/ItemManager.sol\":45:67  uint public priceInWei */\n    tag_6:\n      sload(0x00)\n      dup2\n      jump\t// out\n        /* \"contracts/example/web3/eventTrigger/ItemManager.sol\":73:89  uint public inex */\n    tag_8:\n      sload(0x01)\n      dup2\n      jump\t// out\n\n    auxdata: 0xa2646970667358221220fcb2f97f5fee13bc4ac0704e0c917032f332d22de13c99d7a2020686cecac85f64736f6c63430006000033\n}\n",
				"bytecode": {
					"linkReferences": {},
					"object": "608060405234801561001057600080fd5b506040516101213803806101218339818101604052606081101561003357600080fd5b810190808051906020019092919080519060200190929190805190602001909291905050508160008190555050505060b1806100706000396000f3fe6080604052348015600f57600080fd5b506004361060325760003560e01c80633c8da588146037578063bd963be1146053575b600080fd5b603d606f565b6040518082815260200191505060405180910390f35b60596075565b6040518082815260200191505060405180910390f35b60005481565b6001548156fea2646970667358221220fcb2f97f5fee13bc4ac0704e0c917032f332d22de13c99d7a2020686cecac85f64736f6c63430006000033",
					"opcodes": "PUSH1 0x80 PUSH1 0x40 MSTORE CALLVALUE DUP1 ISZERO PUSH2 0x10 JUMPI PUSH1 0x0 DUP1 REVERT JUMPDEST POP PUSH1 0x40 MLOAD PUSH2 0x121 CODESIZE SUB DUP1 PUSH2 0x121 DUP4 CODECOPY DUP2 DUP2 ADD PUSH1 0x40 MSTORE PUSH1 0x60 DUP2 LT ISZERO PUSH2 0x33 JUMPI PUSH1 0x0 DUP1 REVERT JUMPDEST DUP2 ADD SWAP1 DUP1 DUP1 MLOAD SWAP1 PUSH1 0x20 ADD SWAP1 SWAP3 SWAP2 SWAP1 DUP1 MLOAD SWAP1 PUSH1 0x20 ADD SWAP1 SWAP3 SWAP2 SWAP1 DUP1 MLOAD SWAP1 PUSH1 0x20 ADD SWAP1 SWAP3 SWAP2 SWAP1 POP POP POP DUP2 PUSH1 0x0 DUP2 SWAP1 SSTORE POP POP POP POP PUSH1 0xB1 DUP1 PUSH2 0x70 PUSH1 0x0 CODECOPY PUSH1 0x0 RETURN INVALID PUSH1 0x80 PUSH1 0x40 MSTORE CALLVALUE DUP1 ISZERO PUSH1 0xF JUMPI PUSH1 0x0 DUP1 REVERT JUMPDEST POP PUSH1 0x4 CALLDATASIZE LT PUSH1 0x32 JUMPI PUSH1 0x0 CALLDATALOAD PUSH1 0xE0 SHR DUP1 PUSH4 0x3C8DA588 EQ PUSH1 0x37 JUMPI DUP1 PUSH4 0xBD963BE1 EQ PUSH1 0x53 JUMPI JUMPDEST PUSH1 0x0 DUP1 REVERT JUMPDEST PUSH1 0x3D PUSH1 0x6F JUMP JUMPDEST PUSH1 0x40 MLOAD DUP1 DUP3 DUP2 MSTORE PUSH1 0x20 ADD SWAP2 POP POP PUSH1 0x40 MLOAD DUP1 SWAP2 SUB SWAP1 RETURN JUMPDEST PUSH1 0x59 PUSH1 0x75 JUMP JUMPDEST PUSH1 0x40 MLOAD DUP1 DUP3 DUP2 MSTORE PUSH1 0x20 ADD SWAP2 POP POP PUSH1 0x40 MLOAD DUP1 SWAP2 SUB SWAP1 RETURN JUMPDEST PUSH1 0x0 SLOAD DUP2 JUMP JUMPDEST PUSH1 0x1 SLOAD DUP2 JUMP INVALID LOG2 PUSH5 0x6970667358 0x22 SLT KECCAK256 0xFC 0xB2 0xF9 PUSH32 0x5FEE13BC4AC0704E0C917032F332D22DE13C99D7A2020686CECAC85F64736F6C PUSH4 0x43000600 STOP CALLER "
				},
				"gasEstimates": {
					"creation": {
						"codeDepositCost": "35400",
						"executionCost": "infinite",
						"totalCost": "infinite"
					},
					"external": {
						"inex()": "1005",
						"priceInWei()": "983"
					}
				},
				"methodIdentifiers": {
					"inex()": "bd963be1",
					"priceInWei()": "3c8da588"
				}
			},
			"storageLayout": {
				"storage": [
					{
						"astId": 3,
						"contract": "contracts/example/web3/eventTrigger/ItemManager.sol:Item",
						"label": "priceInWei",
						"offset": 0,
						"slot": "0",
						"type": "t_uint256"
					},
					{
						"astId": 5,
						"contract": "contracts/example/web3/eventTrigger/ItemManager.sol:Item",
						"label": "inex",
						"offset": 0,
						"slot": "1",
						"type": "t_uint256"
					},
					{
						"astId": 7,
						"contract": "contracts/example/web3/eventTrigger/ItemManager.sol:Item",
						"label": "parentContract",
						"offset": 0,
						"slot": "2",
						"type": "t_contract(ItemManager)173"
					}
				],
				"types": {
					"t_contract(ItemManager)173": {
						"encoding": "inplace",
						"label": "contract ItemManager",
						"numberOfBytes": "20"
					},
					"t_uint256": {
						"encoding": "inplace",
						"label": "uint256",
						"numberOfBytes": "32"
					}
				}
			},
			"userdoc": {
				"methods": {}
			}
		}
	}
}