{
	"contracts/assignment/simpleWallet/SimpleWallet.sol": {
		"SimpleWallet": {
			"abi": [
				{
					"stateMutability": "nonpayable",
					"type": "fallback"
				},
				{
					"inputs": [
						{
							"internalType": "address payable",
							"name": "_to",
							"type": "address"
						},
						{
							"internalType": "uint256",
							"name": "_amount",
							"type": "uint256"
						}
					],
					"name": "withdrawMoney",
					"outputs": [],
					"stateMutability": "nonpayable",
					"type": "function"
				},
				{
					"stateMutability": "payable",
					"type": "receive"
				}
			],
			"devdoc": {
				"kind": "dev",
				"methods": {},
				"version": 1
			},
			"evm": {
				"assembly": "    /* \"contracts/assignment/simpleWallet/SimpleWallet.sol\":47:291  contract SimpleWallet is Owned{... */\n  mstore(0x40, 0x80)\n  callvalue\n  dup1\n  iszero\n  tag_1\n  jumpi\n  0x00\n  dup1\n  revert\ntag_1:\n  pop\n    /* \"contracts/assignment/simpleWallet/Owned.sol\":105:115  msg.sender */\n  caller\n    /* \"contracts/assignment/simpleWallet/Owned.sol\":97:102  owner */\n  0x00\n  dup1\n    /* \"contracts/assignment/simpleWallet/Owned.sol\":97:115  owner = msg.sender */\n  0x0100\n  exp\n  dup2\n  sload\n  dup2\n  0xffffffffffffffffffffffffffffffffffffffff\n  mul\n  not\n  and\n  swap1\n  dup4\n  0xffffffffffffffffffffffffffffffffffffffff\n  and\n  mul\n  or\n  swap1\n  sstore\n  pop\n    /* \"contracts/assignment/simpleWallet/SimpleWallet.sol\":47:291  contract SimpleWallet is Owned{... */\n  dataSize(sub_0)\n  dup1\n  dataOffset(sub_0)\n  0x00\n  codecopy\n  0x00\n  return\nstop\n\nsub_0: assembly {\n        /* \"contracts/assignment/simpleWallet/SimpleWallet.sol\":47:291  contract SimpleWallet is Owned{... */\n      mstore(0x40, 0x80)\n      jumpi(tag_1, lt(calldatasize, 0x04))\n      shr(0xe0, calldataload(0x00))\n      dup1\n      0xf274c897\n      eq\n      tag_3\n      jumpi\n      jump(tag_2)\n    tag_1:\n      jumpi(tag_2, calldatasize)\n      stop\n    tag_2:\n      callvalue\n      dup1\n      iszero\n      tag_6\n      jumpi\n      0x00\n      dup1\n      revert\n    tag_6:\n      pop\n      stop\n        /* \"contracts/assignment/simpleWallet/SimpleWallet.sol\":84:197  function withdrawMoney(address payable _to, uint _amount) public onlyOwner {... */\n    tag_3:\n      callvalue\n      dup1\n      iszero\n      tag_9\n      jumpi\n      0x00\n      dup1\n      revert\n    tag_9:\n      pop\n      tag_10\n      0x04\n      dup1\n      calldatasize\n      sub\n      dup2\n      add\n      swap1\n      tag_11\n      swap2\n      swap1\n      tag_12\n      jump\t// in\n    tag_11:\n      tag_13\n      jump\t// in\n    tag_10:\n      stop\n    tag_13:\n        /* \"contracts/assignment/simpleWallet/Owned.sol\":473:478  owner */\n      0x00\n      dup1\n      sload\n      swap1\n      0x0100\n      exp\n      swap1\n      div\n      0xffffffffffffffffffffffffffffffffffffffff\n      and\n        /* \"contracts/assignment/simpleWallet/Owned.sol\":459:478  msg.sender == owner */\n      0xffffffffffffffffffffffffffffffffffffffff\n      and\n        /* \"contracts/assignment/simpleWallet/Owned.sol\":459:469  msg.sender */\n      caller\n        /* \"contracts/assignment/simpleWallet/Owned.sol\":459:478  msg.sender == owner */\n      0xffffffffffffffffffffffffffffffffffffffff\n      and\n      eq\n        /* \"contracts/assignment/simpleWallet/Owned.sol\":451:502  require(msg.sender == owner, \"You are not allowed\") */\n      tag_15\n      jumpi\n      mload(0x40)\n      0x08c379a000000000000000000000000000000000000000000000000000000000\n      dup2\n      mstore\n      0x04\n      add\n      tag_16\n      swap1\n      tag_17\n      jump\t// in\n    tag_16:\n      mload(0x40)\n      dup1\n      swap2\n      sub\n      swap1\n      revert\n    tag_15:\n        /* \"contracts/assignment/simpleWallet/SimpleWallet.sol\":169:172  _to */\n      dup2\n        /* \"contracts/assignment/simpleWallet/SimpleWallet.sol\":169:181  _to.transfer */\n      0xffffffffffffffffffffffffffffffffffffffff\n      and\n        /* \"contracts/assignment/simpleWallet/SimpleWallet.sol\":169:190  _to.transfer(_amount) */\n      0x08fc\n        /* \"contracts/assignment/simpleWallet/SimpleWallet.sol\":182:189  _amount */\n      dup3\n        /* \"contracts/assignment/simpleWallet/SimpleWallet.sol\":169:190  _to.transfer(_amount) */\n      swap1\n      dup2\n      iszero\n      mul\n      swap1\n      mload(0x40)\n      0x00\n      mload(0x40)\n      dup1\n      dup4\n      sub\n      dup2\n      dup6\n      dup9\n      dup9\n      call\n      swap4\n      pop\n      pop\n      pop\n      pop\n      iszero\n      dup1\n      iszero\n      tag_20\n      jumpi\n      returndatasize\n      0x00\n      dup1\n      returndatacopy\n      revert(0x00, returndatasize)\n    tag_20:\n      pop\n        /* \"contracts/assignment/simpleWallet/SimpleWallet.sol\":84:197  function withdrawMoney(address payable _to, uint _amount) public onlyOwner {... */\n      pop\n      pop\n      jump\t// out\n        /* \"#utility.yul\":7:162   */\n    tag_22:\n      0x00\n        /* \"#utility.yul\":99:105   */\n      dup2\n        /* \"#utility.yul\":86:106   */\n      calldataload\n        /* \"#utility.yul\":77:106   */\n      swap1\n      pop\n        /* \"#utility.yul\":115:156   */\n      tag_24\n        /* \"#utility.yul\":150:155   */\n      dup2\n        /* \"#utility.yul\":115:156   */\n      tag_25\n      jump\t// in\n    tag_24:\n        /* \"#utility.yul\":67:162   */\n      swap3\n      swap2\n      pop\n      pop\n      jump\t// out\n        /* \"#utility.yul\":168:307   */\n    tag_26:\n      0x00\n        /* \"#utility.yul\":252:258   */\n      dup2\n        /* \"#utility.yul\":239:259   */\n      calldataload\n        /* \"#utility.yul\":230:259   */\n      swap1\n      pop\n        /* \"#utility.yul\":268:301   */\n      tag_28\n        /* \"#utility.yul\":295:300   */\n      dup2\n        /* \"#utility.yul\":268:301   */\n      tag_29\n      jump\t// in\n    tag_28:\n        /* \"#utility.yul\":220:307   */\n      swap3\n      swap2\n      pop\n      pop\n      jump\t// out\n        /* \"#utility.yul\":313:736   */\n    tag_12:\n      0x00\n      dup1\n        /* \"#utility.yul\":446:448   */\n      0x40\n        /* \"#utility.yul\":434:443   */\n      dup4\n        /* \"#utility.yul\":425:432   */\n      dup6\n        /* \"#utility.yul\":421:444   */\n      sub\n        /* \"#utility.yul\":417:449   */\n      slt\n        /* \"#utility.yul\":414:416   */\n      iszero\n      tag_31\n      jumpi\n        /* \"#utility.yul\":462:463   */\n      0x00\n        /* \"#utility.yul\":459:460   */\n      dup1\n        /* \"#utility.yul\":452:464   */\n      revert\n        /* \"#utility.yul\":414:416   */\n    tag_31:\n        /* \"#utility.yul\":505:506   */\n      0x00\n        /* \"#utility.yul\":530:591   */\n      tag_32\n        /* \"#utility.yul\":583:590   */\n      dup6\n        /* \"#utility.yul\":574:580   */\n      dup3\n        /* \"#utility.yul\":563:572   */\n      dup7\n        /* \"#utility.yul\":559:581   */\n      add\n        /* \"#utility.yul\":530:591   */\n      tag_22\n      jump\t// in\n    tag_32:\n        /* \"#utility.yul\":520:591   */\n      swap3\n      pop\n        /* \"#utility.yul\":476:601   */\n      pop\n        /* \"#utility.yul\":640:642   */\n      0x20\n        /* \"#utility.yul\":666:719   */\n      tag_33\n        /* \"#utility.yul\":711:718   */\n      dup6\n        /* \"#utility.yul\":702:708   */\n      dup3\n        /* \"#utility.yul\":691:700   */\n      dup7\n        /* \"#utility.yul\":687:709   */\n      add\n        /* \"#utility.yul\":666:719   */\n      tag_26\n      jump\t// in\n    tag_33:\n        /* \"#utility.yul\":656:719   */\n      swap2\n      pop\n        /* \"#utility.yul\":611:729   */\n      pop\n        /* \"#utility.yul\":404:736   */\n      swap3\n      pop\n      swap3\n      swap1\n      pop\n      jump\t// out\n        /* \"#utility.yul\":742:1059   */\n    tag_34:\n      0x00\n        /* \"#utility.yul\":905:972   */\n      tag_36\n        /* \"#utility.yul\":969:971   */\n      0x13\n        /* \"#utility.yul\":964:967   */\n      dup4\n        /* \"#utility.yul\":905:972   */\n      tag_37\n      jump\t// in\n    tag_36:\n        /* \"#utility.yul\":898:972   */\n      swap2\n      pop\n        /* \"#utility.yul\":1002:1023   */\n      0x596f7520617265206e6f7420616c6c6f77656400000000000000000000000000\n        /* \"#utility.yul\":998:999   */\n      0x00\n        /* \"#utility.yul\":993:996   */\n      dup4\n        /* \"#utility.yul\":989:1000   */\n      add\n        /* \"#utility.yul\":982:1024   */\n      mstore\n        /* \"#utility.yul\":1050:1052   */\n      0x20\n        /* \"#utility.yul\":1045:1048   */\n      dup3\n        /* \"#utility.yul\":1041:1053   */\n      add\n        /* \"#utility.yul\":1034:1053   */\n      swap1\n      pop\n        /* \"#utility.yul\":888:1059   */\n      swap2\n      swap1\n      pop\n      jump\t// out\n        /* \"#utility.yul\":1065:1484   */\n    tag_17:\n      0x00\n        /* \"#utility.yul\":1269:1271   */\n      0x20\n        /* \"#utility.yul\":1258:1267   */\n      dup3\n        /* \"#utility.yul\":1254:1272   */\n      add\n        /* \"#utility.yul\":1246:1272   */\n      swap1\n      pop\n        /* \"#utility.yul\":1318:1327   */\n      dup2\n        /* \"#utility.yul\":1312:1316   */\n      dup2\n        /* \"#utility.yul\":1308:1328   */\n      sub\n        /* \"#utility.yul\":1304:1305   */\n      0x00\n        /* \"#utility.yul\":1293:1302   */\n      dup4\n        /* \"#utility.yul\":1289:1306   */\n      add\n        /* \"#utility.yul\":1282:1329   */\n      mstore\n        /* \"#utility.yul\":1346:1477   */\n      tag_39\n        /* \"#utility.yul\":1472:1476   */\n      dup2\n        /* \"#utility.yul\":1346:1477   */\n      tag_34\n      jump\t// in\n    tag_39:\n        /* \"#utility.yul\":1338:1477   */\n      swap1\n      pop\n        /* \"#utility.yul\":1236:1484   */\n      swap2\n      swap1\n      pop\n      jump\t// out\n        /* \"#utility.yul\":1490:1659   */\n    tag_37:\n      0x00\n        /* \"#utility.yul\":1608:1614   */\n      dup3\n        /* \"#utility.yul\":1603:1606   */\n      dup3\n        /* \"#utility.yul\":1596:1615   */\n      mstore\n        /* \"#utility.yul\":1648:1652   */\n      0x20\n        /* \"#utility.yul\":1643:1646   */\n      dup3\n        /* \"#utility.yul\":1639:1653   */\n      add\n        /* \"#utility.yul\":1624:1653   */\n      swap1\n      pop\n        /* \"#utility.yul\":1586:1659   */\n      swap3\n      swap2\n      pop\n      pop\n      jump\t// out\n        /* \"#utility.yul\":1665:1769   */\n    tag_41:\n      0x00\n        /* \"#utility.yul\":1739:1763   */\n      tag_43\n        /* \"#utility.yul\":1757:1762   */\n      dup3\n        /* \"#utility.yul\":1739:1763   */\n      tag_44\n      jump\t// in\n    tag_43:\n        /* \"#utility.yul\":1728:1763   */\n      swap1\n      pop\n        /* \"#utility.yul\":1718:1769   */\n      swap2\n      swap1\n      pop\n      jump\t// out\n        /* \"#utility.yul\":1775:1901   */\n    tag_44:\n      0x00\n        /* \"#utility.yul\":1852:1894   */\n      0xffffffffffffffffffffffffffffffffffffffff\n        /* \"#utility.yul\":1845:1850   */\n      dup3\n        /* \"#utility.yul\":1841:1895   */\n      and\n        /* \"#utility.yul\":1830:1895   */\n      swap1\n      pop\n        /* \"#utility.yul\":1820:1901   */\n      swap2\n      swap1\n      pop\n      jump\t// out\n        /* \"#utility.yul\":1907:1984   */\n    tag_46:\n      0x00\n        /* \"#utility.yul\":1973:1978   */\n      dup2\n        /* \"#utility.yul\":1962:1978   */\n      swap1\n      pop\n        /* \"#utility.yul\":1952:1984   */\n      swap2\n      swap1\n      pop\n      jump\t// out\n        /* \"#utility.yul\":1990:2128   */\n    tag_25:\n        /* \"#utility.yul\":2071:2103   */\n      tag_49\n        /* \"#utility.yul\":2097:2102   */\n      dup2\n        /* \"#utility.yul\":2071:2103   */\n      tag_41\n      jump\t// in\n    tag_49:\n        /* \"#utility.yul\":2064:2069   */\n      dup2\n        /* \"#utility.yul\":2061:2104   */\n      eq\n        /* \"#utility.yul\":2051:2053   */\n      tag_50\n      jumpi\n        /* \"#utility.yul\":2118:2119   */\n      0x00\n        /* \"#utility.yul\":2115:2116   */\n      dup1\n        /* \"#utility.yul\":2108:2120   */\n      revert\n        /* \"#utility.yul\":2051:2053   */\n    tag_50:\n        /* \"#utility.yul\":2041:2128   */\n      pop\n      jump\t// out\n        /* \"#utility.yul\":2134:2256   */\n    tag_29:\n        /* \"#utility.yul\":2207:2231   */\n      tag_52\n        /* \"#utility.yul\":2225:2230   */\n      dup2\n        /* \"#utility.yul\":2207:2231   */\n      tag_46\n      jump\t// in\n    tag_52:\n        /* \"#utility.yul\":2200:2205   */\n      dup2\n        /* \"#utility.yul\":2197:2232   */\n      eq\n        /* \"#utility.yul\":2187:2189   */\n      tag_53\n      jumpi\n        /* \"#utility.yul\":2246:2247   */\n      0x00\n        /* \"#utility.yul\":2243:2244   */\n      dup1\n        /* \"#utility.yul\":2236:2248   */\n      revert\n        /* \"#utility.yul\":2187:2189   */\n    tag_53:\n        /* \"#utility.yul\":2177:2256   */\n      pop\n      jump\t// out\n\n    auxdata: 0xa2646970667358221220c6839b3ea673a26cae9eee75de487a3c072438007e0019e29d4a75a05becf73864736f6c63430008000033\n}\n",
				"bytecode": {
					"linkReferences": {},
					"object": "608060405234801561001057600080fd5b50336000806101000a81548173ffffffffffffffffffffffffffffffffffffffff021916908373ffffffffffffffffffffffffffffffffffffffff1602179055506102b1806100606000396000f3fe6080604052600436106100225760003560e01c8063f274c8971461003857610029565b3661002957005b34801561003557600080fd5b50005b34801561004457600080fd5b5061005f600480360381019061005a9190610164565b610061565b005b60008054906101000a900473ffffffffffffffffffffffffffffffffffffffff1673ffffffffffffffffffffffffffffffffffffffff163373ffffffffffffffffffffffffffffffffffffffff16146100ef576040517f08c379a00000000000000000000000000000000000000000000000000000000081526004016100e6906101e0565b60405180910390fd5b8173ffffffffffffffffffffffffffffffffffffffff166108fc829081150290604051600060405180830381858888f19350505050158015610135573d6000803e3d6000fd5b505050565b6000813590506101498161024d565b92915050565b60008135905061015e81610264565b92915050565b6000806040838503121561017757600080fd5b60006101858582860161013a565b92505060206101968582860161014f565b9150509250929050565b60006101ad601383610200565b91507f596f7520617265206e6f7420616c6c6f776564000000000000000000000000006000830152602082019050919050565b600060208201905081810360008301526101f9816101a0565b9050919050565b600082825260208201905092915050565b600061021c82610223565b9050919050565b600073ffffffffffffffffffffffffffffffffffffffff82169050919050565b6000819050919050565b61025681610211565b811461026157600080fd5b50565b61026d81610243565b811461027857600080fd5b5056fea2646970667358221220c6839b3ea673a26cae9eee75de487a3c072438007e0019e29d4a75a05becf73864736f6c63430008000033",
					"opcodes": "PUSH1 0x80 PUSH1 0x40 MSTORE CALLVALUE DUP1 ISZERO PUSH2 0x10 JUMPI PUSH1 0x0 DUP1 REVERT JUMPDEST POP CALLER PUSH1 0x0 DUP1 PUSH2 0x100 EXP DUP2 SLOAD DUP2 PUSH20 0xFFFFFFFFFFFFFFFFFFFFFFFFFFFFFFFFFFFFFFFF MUL NOT AND SWAP1 DUP4 PUSH20 0xFFFFFFFFFFFFFFFFFFFFFFFFFFFFFFFFFFFFFFFF AND MUL OR SWAP1 SSTORE POP PUSH2 0x2B1 DUP1 PUSH2 0x60 PUSH1 0x0 CODECOPY PUSH1 0x0 RETURN INVALID PUSH1 0x80 PUSH1 0x40 MSTORE PUSH1 0x4 CALLDATASIZE LT PUSH2 0x22 JUMPI PUSH1 0x0 CALLDATALOAD PUSH1 0xE0 SHR DUP1 PUSH4 0xF274C897 EQ PUSH2 0x38 JUMPI PUSH2 0x29 JUMP JUMPDEST CALLDATASIZE PUSH2 0x29 JUMPI STOP JUMPDEST CALLVALUE DUP1 ISZERO PUSH2 0x35 JUMPI PUSH1 0x0 DUP1 REVERT JUMPDEST POP STOP JUMPDEST CALLVALUE DUP1 ISZERO PUSH2 0x44 JUMPI PUSH1 0x0 DUP1 REVERT JUMPDEST POP PUSH2 0x5F PUSH1 0x4 DUP1 CALLDATASIZE SUB DUP2 ADD SWAP1 PUSH2 0x5A SWAP2 SWAP1 PUSH2 0x164 JUMP JUMPDEST PUSH2 0x61 JUMP JUMPDEST STOP JUMPDEST PUSH1 0x0 DUP1 SLOAD SWAP1 PUSH2 0x100 EXP SWAP1 DIV PUSH20 0xFFFFFFFFFFFFFFFFFFFFFFFFFFFFFFFFFFFFFFFF AND PUSH20 0xFFFFFFFFFFFFFFFFFFFFFFFFFFFFFFFFFFFFFFFF AND CALLER PUSH20 0xFFFFFFFFFFFFFFFFFFFFFFFFFFFFFFFFFFFFFFFF AND EQ PUSH2 0xEF JUMPI PUSH1 0x40 MLOAD PUSH32 0x8C379A000000000000000000000000000000000000000000000000000000000 DUP2 MSTORE PUSH1 0x4 ADD PUSH2 0xE6 SWAP1 PUSH2 0x1E0 JUMP JUMPDEST PUSH1 0x40 MLOAD DUP1 SWAP2 SUB SWAP1 REVERT JUMPDEST DUP2 PUSH20 0xFFFFFFFFFFFFFFFFFFFFFFFFFFFFFFFFFFFFFFFF AND PUSH2 0x8FC DUP3 SWAP1 DUP2 ISZERO MUL SWAP1 PUSH1 0x40 MLOAD PUSH1 0x0 PUSH1 0x40 MLOAD DUP1 DUP4 SUB DUP2 DUP6 DUP9 DUP9 CALL SWAP4 POP POP POP POP ISZERO DUP1 ISZERO PUSH2 0x135 JUMPI RETURNDATASIZE PUSH1 0x0 DUP1 RETURNDATACOPY RETURNDATASIZE PUSH1 0x0 REVERT JUMPDEST POP POP POP JUMP JUMPDEST PUSH1 0x0 DUP2 CALLDATALOAD SWAP1 POP PUSH2 0x149 DUP2 PUSH2 0x24D JUMP JUMPDEST SWAP3 SWAP2 POP POP JUMP JUMPDEST PUSH1 0x0 DUP2 CALLDATALOAD SWAP1 POP PUSH2 0x15E DUP2 PUSH2 0x264 JUMP JUMPDEST SWAP3 SWAP2 POP POP JUMP JUMPDEST PUSH1 0x0 DUP1 PUSH1 0x40 DUP4 DUP6 SUB SLT ISZERO PUSH2 0x177 JUMPI PUSH1 0x0 DUP1 REVERT JUMPDEST PUSH1 0x0 PUSH2 0x185 DUP6 DUP3 DUP7 ADD PUSH2 0x13A JUMP JUMPDEST SWAP3 POP POP PUSH1 0x20 PUSH2 0x196 DUP6 DUP3 DUP7 ADD PUSH2 0x14F JUMP JUMPDEST SWAP2 POP POP SWAP3 POP SWAP3 SWAP1 POP JUMP JUMPDEST PUSH1 0x0 PUSH2 0x1AD PUSH1 0x13 DUP4 PUSH2 0x200 JUMP JUMPDEST SWAP2 POP PUSH32 0x596F7520617265206E6F7420616C6C6F77656400000000000000000000000000 PUSH1 0x0 DUP4 ADD MSTORE PUSH1 0x20 DUP3 ADD SWAP1 POP SWAP2 SWAP1 POP JUMP JUMPDEST PUSH1 0x0 PUSH1 0x20 DUP3 ADD SWAP1 POP DUP2 DUP2 SUB PUSH1 0x0 DUP4 ADD MSTORE PUSH2 0x1F9 DUP2 PUSH2 0x1A0 JUMP JUMPDEST SWAP1 POP SWAP2 SWAP1 POP JUMP JUMPDEST PUSH1 0x0 DUP3 DUP3 MSTORE PUSH1 0x20 DUP3 ADD SWAP1 POP SWAP3 SWAP2 POP POP JUMP JUMPDEST PUSH1 0x0 PUSH2 0x21C DUP3 PUSH2 0x223 JUMP JUMPDEST SWAP1 POP SWAP2 SWAP1 POP JUMP JUMPDEST PUSH1 0x0 PUSH20 0xFFFFFFFFFFFFFFFFFFFFFFFFFFFFFFFFFFFFFFFF DUP3 AND SWAP1 POP SWAP2 SWAP1 POP JUMP JUMPDEST PUSH1 0x0 DUP2 SWAP1 POP SWAP2 SWAP1 POP JUMP JUMPDEST PUSH2 0x256 DUP2 PUSH2 0x211 JUMP JUMPDEST DUP2 EQ PUSH2 0x261 JUMPI PUSH1 0x0 DUP1 REVERT JUMPDEST POP JUMP JUMPDEST PUSH2 0x26D DUP2 PUSH2 0x243 JUMP JUMPDEST DUP2 EQ PUSH2 0x278 JUMPI PUSH1 0x0 DUP1 REVERT JUMPDEST POP JUMP INVALID LOG2 PUSH5 0x6970667358 0x22 SLT KECCAK256 0xC6 DUP4 SWAP12 RETURNDATACOPY 0xA6 PUSH20 0xA26CAE9EEE75DE487A3C072438007E0019E29D4A PUSH22 0xA05BECF73864736F6C63430008000033000000000000 "
				},
				"gasEstimates": {
					"creation": {
						"codeDepositCost": "137800",
						"executionCost": "21049",
						"totalCost": "158849"
					},
					"external": {
						"": "112",
						"withdrawMoney(address,uint256)": "infinite"
					}
				},
				"methodIdentifiers": {
					"withdrawMoney(address,uint256)": "f274c897"
				}
			},
			"storageLayout": {
				"storage": [
					{
						"astId": 3,
						"contract": "contracts/assignment/simpleWallet/SimpleWallet.sol:SimpleWallet",
						"label": "owner",
						"offset": 0,
						"slot": "0",
						"type": "t_address"
					}
				],
				"types": {
					"t_address": {
						"encoding": "inplace",
						"label": "address",
						"numberOfBytes": "20"
					}
				}
			},
			"userdoc": {
				"kind": "user",
				"methods": {},
				"version": 1
			}
		}
	}
}