{
	"contracts/sol6changes/OverrideVirtual.sol": {
		"A": {
			"abi": [
				{
					"inputs": [],
					"name": "fun",
					"outputs": [],
					"stateMutability": "nonpayable",
					"type": "function"
				}
			],
			"devdoc": {
				"methods": {}
			},
			"evm": {
				"assembly": "    /* \"contracts/sol6changes/OverrideVirtual.sol\":35:366  contract A {... */\n  mstore(0x40, 0x80)\n  callvalue\n    /* \"--CODEGEN--\":5:14   */\n  dup1\n    /* \"--CODEGEN--\":2:4   */\n  iszero\n  tag_1\n  jumpi\n    /* \"--CODEGEN--\":27:28   */\n  0x00\n    /* \"--CODEGEN--\":24:25   */\n  dup1\n    /* \"--CODEGEN--\":17:29   */\n  revert\n    /* \"--CODEGEN--\":2:4   */\ntag_1:\n    /* \"contracts/sol6changes/OverrideVirtual.sol\":35:366  contract A {... */\n  pop\n  dataSize(sub_0)\n  dup1\n  dataOffset(sub_0)\n  0x00\n  codecopy\n  0x00\n  return\nstop\n\nsub_0: assembly {\n        /* \"contracts/sol6changes/OverrideVirtual.sol\":35:366  contract A {... */\n      mstore(0x40, 0x80)\n      callvalue\n        /* \"--CODEGEN--\":5:14   */\n      dup1\n        /* \"--CODEGEN--\":2:4   */\n      iszero\n      tag_1\n      jumpi\n        /* \"--CODEGEN--\":27:28   */\n      0x00\n        /* \"--CODEGEN--\":24:25   */\n      dup1\n        /* \"--CODEGEN--\":17:29   */\n      revert\n        /* \"--CODEGEN--\":2:4   */\n    tag_1:\n        /* \"contracts/sol6changes/OverrideVirtual.sol\":35:366  contract A {... */\n      pop\n      jumpi(tag_2, lt(calldatasize, 0x04))\n      shr(0xe0, calldataload(0x00))\n      dup1\n      0x946644cd\n      eq\n      tag_3\n      jumpi\n    tag_2:\n        /* \"--CODEGEN--\":12:13   */\n      0x00\n        /* \"--CODEGEN--\":9:10   */\n      dup1\n        /* \"--CODEGEN--\":2:14   */\n      revert\n        /* \"contracts/sol6changes/OverrideVirtual.sol\":305:364  function fun() public virtual {... */\n    tag_3:\n      tag_4\n      tag_5\n      jump\t// in\n    tag_4:\n      stop\n    tag_5:\n        /* \"contracts/sol6changes/OverrideVirtual.sol\":356:357  5 */\n      0x05\n        /* \"contracts/sol6changes/OverrideVirtual.sol\":345:353  someUint */\n      0x00\n        /* \"contracts/sol6changes/OverrideVirtual.sol\":345:357  someUint = 5 */\n      dup2\n      swap1\n      sstore\n      pop\n        /* \"contracts/sol6changes/OverrideVirtual.sol\":305:364  function fun() public virtual {... */\n      jump\t// out\n\n    auxdata: 0xa26469706673582212204f7e3d44520e4f6d96131bbe01c4de9803da93457fb34364cc870e32cc60970e64736f6c63430006070033\n}\n",
				"bytecode": {
					"linkReferences": {},
					"object": "6080604052348015600f57600080fd5b50607580601d6000396000f3fe6080604052348015600f57600080fd5b506004361060285760003560e01c8063946644cd14602d575b600080fd5b60336035565b005b600560008190555056fea26469706673582212204f7e3d44520e4f6d96131bbe01c4de9803da93457fb34364cc870e32cc60970e64736f6c63430006070033",
					"opcodes": "PUSH1 0x80 PUSH1 0x40 MSTORE CALLVALUE DUP1 ISZERO PUSH1 0xF JUMPI PUSH1 0x0 DUP1 REVERT JUMPDEST POP PUSH1 0x75 DUP1 PUSH1 0x1D PUSH1 0x0 CODECOPY PUSH1 0x0 RETURN INVALID PUSH1 0x80 PUSH1 0x40 MSTORE CALLVALUE DUP1 ISZERO PUSH1 0xF JUMPI PUSH1 0x0 DUP1 REVERT JUMPDEST POP PUSH1 0x4 CALLDATASIZE LT PUSH1 0x28 JUMPI PUSH1 0x0 CALLDATALOAD PUSH1 0xE0 SHR DUP1 PUSH4 0x946644CD EQ PUSH1 0x2D JUMPI JUMPDEST PUSH1 0x0 DUP1 REVERT JUMPDEST PUSH1 0x33 PUSH1 0x35 JUMP JUMPDEST STOP JUMPDEST PUSH1 0x5 PUSH1 0x0 DUP2 SWAP1 SSTORE POP JUMP INVALID LOG2 PUSH5 0x6970667358 0x22 SLT KECCAK256 0x4F PUSH31 0x3D44520E4F6D96131BBE01C4DE9803DA93457FB34364CC870E32CC60970E64 PUSH20 0x6F6C634300060700330000000000000000000000 "
				},
				"gasEstimates": {
					"creation": {
						"codeDepositCost": "23400",
						"executionCost": "75",
						"totalCost": "23475"
					},
					"external": {
						"fun()": "20136"
					}
				},
				"methodIdentifiers": {
					"fun()": "946644cd"
				}
			},
			"storageLayout": {
				"storage": [
					{
						"astId": 3,
						"contract": "contracts/sol6changes/OverrideVirtual.sol:A",
						"label": "someUint",
						"offset": 0,
						"slot": "0",
						"type": "t_uint256"
					}
				],
				"types": {
					"t_uint256": {
						"encoding": "inplace",
						"label": "uint256",
						"numberOfBytes": "32"
					}
				}
			},
			"userdoc": {
				"methods": {}
			}
		}
	}
}