{
	"contracts/sol6changes/Override.sol": {
		"A": {
			"abi": [
				{
					"anonymous": false,
					"inputs": [
						{
							"indexed": false,
							"internalType": "string",
							"name": "_myString",
							"type": "string"
						}
					],
					"name": "MyEvent",
					"type": "event"
				},
				{
					"constant": false,
					"inputs": [],
					"name": "funA",
					"outputs": [],
					"payable": false,
					"stateMutability": "nonpayable",
					"type": "function"
				}
			],
			"devdoc": {
				"methods": {}
			},
			"evm": {
				"assembly": "    /* \"contracts/sol6changes/Override.sol\":52:170  contract A {... */\n  mstore(0x40, 0x80)\n  callvalue\n    /* \"--CODEGEN--\":8:17   */\n  dup1\n    /* \"--CODEGEN--\":5:7   */\n  iszero\n  tag_1\n  jumpi\n    /* \"--CODEGEN--\":30:31   */\n  0x00\n    /* \"--CODEGEN--\":27:28   */\n  dup1\n    /* \"--CODEGEN--\":20:32   */\n  revert\n    /* \"--CODEGEN--\":5:7   */\ntag_1:\n    /* \"contracts/sol6changes/Override.sol\":52:170  contract A {... */\n  pop\n  dataSize(sub_0)\n  dup1\n  dataOffset(sub_0)\n  0x00\n  codecopy\n  0x00\n  return\nstop\n\nsub_0: assembly {\n        /* \"contracts/sol6changes/Override.sol\":52:170  contract A {... */\n      mstore(0x40, 0x80)\n      callvalue\n        /* \"--CODEGEN--\":8:17   */\n      dup1\n        /* \"--CODEGEN--\":5:7   */\n      iszero\n      tag_1\n      jumpi\n        /* \"--CODEGEN--\":30:31   */\n      0x00\n        /* \"--CODEGEN--\":27:28   */\n      dup1\n        /* \"--CODEGEN--\":20:32   */\n      revert\n        /* \"--CODEGEN--\":5:7   */\n    tag_1:\n        /* \"contracts/sol6changes/Override.sol\":52:170  contract A {... */\n      pop\n      jumpi(tag_2, lt(calldatasize, 0x04))\n      shr(0xe0, calldataload(0x00))\n      dup1\n      0x8e5159b0\n      eq\n      tag_3\n      jumpi\n    tag_2:\n      0x00\n      dup1\n      revert\n        /* \"contracts/sol6changes/Override.sol\":106:168  function funA() public {... */\n    tag_3:\n      tag_4\n      tag_5\n      jump\t// in\n    tag_4:\n      stop\n    tag_5:\n        /* \"contracts/sol6changes/Override.sol\":144:161  MyEvent(\"from A\") */\n      0x695a9e8aa4a54f62feafe2a96f107e287ede90c04f975155faf83eacbb68d27c\n      mload(0x40)\n      dup1\n      dup1\n      0x20\n      add\n      dup3\n      dup2\n      sub\n      dup3\n      mstore\n      0x06\n      dup2\n      mstore\n      0x20\n      add\n      dup1\n      0x66726f6d20410000000000000000000000000000000000000000000000000000\n      dup2\n      mstore\n      pop\n      0x20\n      add\n      swap2\n      pop\n      pop\n      mload(0x40)\n      dup1\n      swap2\n      sub\n      swap1\n      log1\n        /* \"contracts/sol6changes/Override.sol\":106:168  function funA() public {... */\n      jump\t// out\n\n    auxdata: 0xa265627a7a72315820cab6dbc58e96357f11932b17d8bc5241018140a446467aefd9e298e8e717854c64736f6c634300050f0032\n}\n",
				"bytecode": {
					"linkReferences": {},
					"object": "6080604052348015600f57600080fd5b5060d48061001e6000396000f3fe6080604052348015600f57600080fd5b506004361060285760003560e01c80638e5159b014602d575b600080fd5b60336035565b005b7f695a9e8aa4a54f62feafe2a96f107e287ede90c04f975155faf83eacbb68d27c6040518080602001828103825260068152602001807f66726f6d2041000000000000000000000000000000000000000000000000000081525060200191505060405180910390a156fea265627a7a72315820cab6dbc58e96357f11932b17d8bc5241018140a446467aefd9e298e8e717854c64736f6c634300050f0032",
					"opcodes": "PUSH1 0x80 PUSH1 0x40 MSTORE CALLVALUE DUP1 ISZERO PUSH1 0xF JUMPI PUSH1 0x0 DUP1 REVERT JUMPDEST POP PUSH1 0xD4 DUP1 PUSH2 0x1E PUSH1 0x0 CODECOPY PUSH1 0x0 RETURN INVALID PUSH1 0x80 PUSH1 0x40 MSTORE CALLVALUE DUP1 ISZERO PUSH1 0xF JUMPI PUSH1 0x0 DUP1 REVERT JUMPDEST POP PUSH1 0x4 CALLDATASIZE LT PUSH1 0x28 JUMPI PUSH1 0x0 CALLDATALOAD PUSH1 0xE0 SHR DUP1 PUSH4 0x8E5159B0 EQ PUSH1 0x2D JUMPI JUMPDEST PUSH1 0x0 DUP1 REVERT JUMPDEST PUSH1 0x33 PUSH1 0x35 JUMP JUMPDEST STOP JUMPDEST PUSH32 0x695A9E8AA4A54F62FEAFE2A96F107E287EDE90C04F975155FAF83EACBB68D27C PUSH1 0x40 MLOAD DUP1 DUP1 PUSH1 0x20 ADD DUP3 DUP2 SUB DUP3 MSTORE PUSH1 0x6 DUP2 MSTORE PUSH1 0x20 ADD DUP1 PUSH32 0x66726F6D20410000000000000000000000000000000000000000000000000000 DUP2 MSTORE POP PUSH1 0x20 ADD SWAP2 POP POP PUSH1 0x40 MLOAD DUP1 SWAP2 SUB SWAP1 LOG1 JUMP INVALID LOG2 PUSH6 0x627A7A723158 KECCAK256 0xCA 0xB6 0xDB 0xC5 DUP15 SWAP7 CALLDATALOAD PUSH32 0x11932B17D8BC5241018140A446467AEFD9E298E8E717854C64736F6C63430005 0xF STOP ORIGIN "
				},
				"gasEstimates": {
					"creation": {
						"codeDepositCost": "42400",
						"executionCost": "93",
						"totalCost": "42493"
					},
					"external": {
						"funA()": "1748"
					}
				},
				"methodIdentifiers": {
					"funA()": "8e5159b0"
				}
			},
			"storageLayout": {
				"storage": [],
				"types": null
			},
			"userdoc": {
				"methods": {}
			}
		}
	}
}