{
	"contracts/sol6changes/TryCatch.sol": {
		"ContractA": {
			"abi": [
				{
					"inputs": [],
					"name": "funARequireFailure",
					"outputs": [],
					"stateMutability": "pure",
					"type": "function"
				},
				{
					"inputs": [],
					"name": "funBRevertFailure",
					"outputs": [],
					"stateMutability": "pure",
					"type": "function"
				},
				{
					"inputs": [],
					"name": "funCAssertFailure",
					"outputs": [],
					"stateMutability": "pure",
					"type": "function"
				}
			],
			"devdoc": {
				"methods": {}
			},
			"evm": {
				"assembly": "    /* \"contracts/sol6changes/TryCatch.sol\":24:323  contract ContractA {... */\n  mstore(0x40, 0x80)\n  callvalue\n    /* \"--CODEGEN--\":8:17   */\n  dup1\n    /* \"--CODEGEN--\":5:7   */\n  iszero\n  tag_1\n  jumpi\n    /* \"--CODEGEN--\":30:31   */\n  0x00\n    /* \"--CODEGEN--\":27:28   */\n  dup1\n    /* \"--CODEGEN--\":20:32   */\n  revert\n    /* \"--CODEGEN--\":5:7   */\ntag_1:\n    /* \"contracts/sol6changes/TryCatch.sol\":24:323  contract ContractA {... */\n  pop\n  dataSize(sub_0)\n  dup1\n  dataOffset(sub_0)\n  0x00\n  codecopy\n  0x00\n  return\nstop\n\nsub_0: assembly {\n        /* \"contracts/sol6changes/TryCatch.sol\":24:323  contract ContractA {... */\n      mstore(0x40, 0x80)\n      callvalue\n        /* \"--CODEGEN--\":8:17   */\n      dup1\n        /* \"--CODEGEN--\":5:7   */\n      iszero\n      tag_1\n      jumpi\n        /* \"--CODEGEN--\":30:31   */\n      0x00\n        /* \"--CODEGEN--\":27:28   */\n      dup1\n        /* \"--CODEGEN--\":20:32   */\n      revert\n        /* \"--CODEGEN--\":5:7   */\n    tag_1:\n        /* \"contracts/sol6changes/TryCatch.sol\":24:323  contract ContractA {... */\n      pop\n      jumpi(tag_2, lt(calldatasize, 0x04))\n      shr(0xe0, calldataload(0x00))\n      dup1\n      0x085db7e8\n      eq\n      tag_3\n      jumpi\n      dup1\n      0x613e2865\n      eq\n      tag_4\n      jumpi\n      dup1\n      0xb0de72db\n      eq\n      tag_5\n      jumpi\n    tag_2:\n      0x00\n      dup1\n      revert\n        /* \"contracts/sol6changes/TryCatch.sol\":49:149  function funARequireFailure() public pure {... */\n    tag_3:\n      tag_6\n      tag_7\n      jump\t// in\n    tag_6:\n      stop\n        /* \"contracts/sol6changes/TryCatch.sol\":155:244  function funBRevertFailure() public pure {... */\n    tag_4:\n      tag_8\n      tag_9\n      jump\t// in\n    tag_8:\n      stop\n        /* \"contracts/sol6changes/TryCatch.sol\":250:321  function funCAssertFailure() public pure {... */\n    tag_5:\n      tag_10\n      tag_11\n      jump\t// in\n    tag_10:\n      stop\n        /* \"contracts/sol6changes/TryCatch.sol\":49:149  function funARequireFailure() public pure {... */\n    tag_7:\n        /* \"contracts/sol6changes/TryCatch.sol\":109:114  false */\n      0x00\n        /* \"contracts/sol6changes/TryCatch.sol\":101:142  require(false, \"This is an error String\") */\n      tag_13\n      jumpi\n      mload(0x40)\n      0x08c379a000000000000000000000000000000000000000000000000000000000\n      dup2\n      mstore\n      0x04\n      add\n      dup1\n      dup1\n      0x20\n      add\n      dup3\n      dup2\n      sub\n      dup3\n      mstore\n      0x17\n      dup2\n      mstore\n      0x20\n      add\n      dup1\n      0x5468697320697320616e206572726f7220537472696e67000000000000000000\n      dup2\n      mstore\n      pop\n      0x20\n      add\n      swap2\n      pop\n      pop\n      mload(0x40)\n      dup1\n      swap2\n      sub\n      swap1\n      revert\n    tag_13:\n        /* \"contracts/sol6changes/TryCatch.sol\":49:149  function funARequireFailure() public pure {... */\n      jump\t// out\n        /* \"contracts/sol6changes/TryCatch.sol\":155:244  function funBRevertFailure() public pure {... */\n    tag_9:\n        /* \"contracts/sol6changes/TryCatch.sol\":206:237  revert(\"Error from Contract A\") */\n      mload(0x40)\n      0x08c379a000000000000000000000000000000000000000000000000000000000\n      dup2\n      mstore\n      0x04\n      add\n      dup1\n      dup1\n      0x20\n      add\n      dup3\n      dup2\n      sub\n      dup3\n      mstore\n      0x15\n      dup2\n      mstore\n      0x20\n      add\n      dup1\n      0x4572726f722066726f6d20436f6e747261637420410000000000000000000000\n      dup2\n      mstore\n      pop\n      0x20\n      add\n      swap2\n      pop\n      pop\n      mload(0x40)\n      dup1\n      swap2\n      sub\n      swap1\n      revert\n        /* \"contracts/sol6changes/TryCatch.sol\":250:321  function funCAssertFailure() public pure {... */\n    tag_11:\n        /* \"contracts/sol6changes/TryCatch.sol\":308:313  false */\n      0x00\n        /* \"contracts/sol6changes/TryCatch.sol\":301:314  assert(false) */\n      tag_16\n      jumpi\n      invalid\n    tag_16:\n        /* \"contracts/sol6changes/TryCatch.sol\":250:321  function funCAssertFailure() public pure {... */\n      jump\t// out\n\n    auxdata: 0xa26469706673582212204845371296400d864ba27d04994863e556f19a29c68cba09880bc1fbbafb0a7c64736f6c63430006000033\n}\n",
				"bytecode": {
					"linkReferences": {},
					"object": "608060405234801561001057600080fd5b50610188806100206000396000f3fe608060405234801561001057600080fd5b50600436106100415760003560e01c8063085db7e814610046578063613e286514610050578063b0de72db1461005a575b600080fd5b61004e610064565b005b6100586100da565b005b610062610148565b005b60006100d8576040517f08c379a00000000000000000000000000000000000000000000000000000000081526004018080602001828103825260178152602001807f5468697320697320616e206572726f7220537472696e6700000000000000000081525060200191505060405180910390fd5b565b6040517f08c379a00000000000000000000000000000000000000000000000000000000081526004018080602001828103825260158152602001807f4572726f722066726f6d20436f6e74726163742041000000000000000000000081525060200191505060405180910390fd5b600061015057fe5b56fea26469706673582212204845371296400d864ba27d04994863e556f19a29c68cba09880bc1fbbafb0a7c64736f6c63430006000033",
					"opcodes": "PUSH1 0x80 PUSH1 0x40 MSTORE CALLVALUE DUP1 ISZERO PUSH2 0x10 JUMPI PUSH1 0x0 DUP1 REVERT JUMPDEST POP PUSH2 0x188 DUP1 PUSH2 0x20 PUSH1 0x0 CODECOPY PUSH1 0x0 RETURN INVALID PUSH1 0x80 PUSH1 0x40 MSTORE CALLVALUE DUP1 ISZERO PUSH2 0x10 JUMPI PUSH1 0x0 DUP1 REVERT JUMPDEST POP PUSH1 0x4 CALLDATASIZE LT PUSH2 0x41 JUMPI PUSH1 0x0 CALLDATALOAD PUSH1 0xE0 SHR DUP1 PUSH4 0x85DB7E8 EQ PUSH2 0x46 JUMPI DUP1 PUSH4 0x613E2865 EQ PUSH2 0x50 JUMPI DUP1 PUSH4 0xB0DE72DB EQ PUSH2 0x5A JUMPI JUMPDEST PUSH1 0x0 DUP1 REVERT JUMPDEST PUSH2 0x4E PUSH2 0x64 JUMP JUMPDEST STOP JUMPDEST PUSH2 0x58 PUSH2 0xDA JUMP JUMPDEST STOP JUMPDEST PUSH2 0x62 PUSH2 0x148 JUMP JUMPDEST STOP JUMPDEST PUSH1 0x0 PUSH2 0xD8 JUMPI PUSH1 0x40 MLOAD PUSH32 0x8C379A000000000000000000000000000000000000000000000000000000000 DUP2 MSTORE PUSH1 0x4 ADD DUP1 DUP1 PUSH1 0x20 ADD DUP3 DUP2 SUB DUP3 MSTORE PUSH1 0x17 DUP2 MSTORE PUSH1 0x20 ADD DUP1 PUSH32 0x5468697320697320616E206572726F7220537472696E67000000000000000000 DUP2 MSTORE POP PUSH1 0x20 ADD SWAP2 POP POP PUSH1 0x40 MLOAD DUP1 SWAP2 SUB SWAP1 REVERT JUMPDEST JUMP JUMPDEST PUSH1 0x40 MLOAD PUSH32 0x8C379A000000000000000000000000000000000000000000000000000000000 DUP2 MSTORE PUSH1 0x4 ADD DUP1 DUP1 PUSH1 0x20 ADD DUP3 DUP2 SUB DUP3 MSTORE PUSH1 0x15 DUP2 MSTORE PUSH1 0x20 ADD DUP1 PUSH32 0x4572726F722066726F6D20436F6E747261637420410000000000000000000000 DUP2 MSTORE POP PUSH1 0x20 ADD SWAP2 POP POP PUSH1 0x40 MLOAD DUP1 SWAP2 SUB SWAP1 REVERT JUMPDEST PUSH1 0x0 PUSH2 0x150 JUMPI INVALID JUMPDEST JUMP INVALID LOG2 PUSH5 0x6970667358 0x22 SLT KECCAK256 0x48 GASLIMIT CALLDATACOPY SLT SWAP7 BLOCKHASH 0xD DUP7 0x4B LOG2 PUSH30 0x4994863E556F19A29C68CBA09880BC1FBBAFB0A7C64736F6C6343000600 STOP CALLER "
				},
				"gasEstimates": {
					"creation": {
						"codeDepositCost": "78400",
						"executionCost": "129",
						"totalCost": "78529"
					},
					"external": {
						"funARequireFailure()": "252",
						"funBRevertFailure()": "258",
						"funCAssertFailure()": "173"
					}
				},
				"methodIdentifiers": {
					"funARequireFailure()": "085db7e8",
					"funBRevertFailure()": "613e2865",
					"funCAssertFailure()": "b0de72db"
				}
			},
			"storageLayout": {
				"storage": [],
				"types": null
			},
			"userdoc": {
				"methods": {}
			}
		}
	}
}