{
	"contracts/ERC/ERC165.sol": {
		"ERC165": {
			"abi": [
				{
					"inputs": [],
					"stateMutability": "nonpayable",
					"type": "constructor"
				},
				{
					"inputs": [
						{
							"internalType": "bytes4",
							"name": "interfaceId",
							"type": "bytes4"
						}
					],
					"name": "_registerInterface",
					"outputs": [],
					"stateMutability": "nonpayable",
					"type": "function"
				},
				{
					"inputs": [],
					"name": "calcFingerPrint",
					"outputs": [
						{
							"internalType": "bytes4",
							"name": "",
							"type": "bytes4"
						}
					],
					"stateMutability": "pure",
					"type": "function"
				},
				{
					"inputs": [
						{
							"internalType": "bytes4",
							"name": "interfaceId",
							"type": "bytes4"
						}
					],
					"name": "supportsInterface",
					"outputs": [
						{
							"internalType": "bool",
							"name": "",
							"type": "bool"
						}
					],
					"stateMutability": "view",
					"type": "function"
				}
			],
			"devdoc": {
				"kind": "dev",
				"methods": {},
				"version": 1
			},
			"evm": {
				"assembly": "    /* \"contracts/ERC/ERC165.sol\":170:794  contract ERC165 is IERC165 {... */\n  mstore(0x40, 0x80)\n    /* \"contracts/ERC/ERC165.sol\":262:323  constructor() {... */\n  callvalue\n  dup1\n  iszero\n  tag_1\n  jumpi\n  0x00\n  dup1\n  revert\ntag_1:\n  pop\n    /* \"contracts/ERC/ERC165.sol\":286:316  _registerInterface(0x01ffc9a7) */\n  tag_4\n    /* \"contracts/ERC/ERC165.sol\":305:315  0x01ffc9a7 */\n  0x01ffc9a7\n    /* \"contracts/ERC/ERC165.sol\":286:316  _registerInterface(0x01ffc9a7) */\n  0xe0\n  shl\n    /* \"contracts/ERC/ERC165.sol\":286:304  _registerInterface */\n  shl(0x20, tag_5)\n    /* \"contracts/ERC/ERC165.sol\":286:316  _registerInterface(0x01ffc9a7) */\n  0x20\n  shr\n  jump\t// in\ntag_4:\n    /* \"contracts/ERC/ERC165.sol\":170:794  contract ERC165 is IERC165 {... */\n  jump(tag_6)\n    /* \"contracts/ERC/ERC165.sol\":607:792  function _registerInterface(bytes4 interfaceId) public {... */\ntag_5:\n    /* \"contracts/ERC/ERC165.sol\":695:705  0xffffffff */\n  0xffffffff\n    /* \"contracts/ERC/ERC165.sol\":680:705  interfaceId != 0xffffffff */\n  0xe0\n  shl\n    /* \"contracts/ERC/ERC165.sol\":680:691  interfaceId */\n  dup2\n    /* \"contracts/ERC/ERC165.sol\":680:705  interfaceId != 0xffffffff */\n  not(0xffffffffffffffffffffffffffffffffffffffffffffffffffffffff)\n  and\n  sub\n    /* \"contracts/ERC/ERC165.sol\":672:735  require(interfaceId != 0xffffffff, \"ERC165: invalid interface\") */\n  tag_8\n  jumpi\n  mload(0x40)\n  0x08c379a000000000000000000000000000000000000000000000000000000000\n  dup2\n  mstore\n  0x04\n  add\n  tag_9\n  swap1\n  tag_10\n  jump\t// in\ntag_9:\n  mload(0x40)\n  dup1\n  swap2\n  sub\n  swap1\n  revert\ntag_8:\n    /* \"contracts/ERC/ERC165.sol\":781:785  true */\n  0x01\n    /* \"contracts/ERC/ERC165.sol\":745:765  _supportedInterfaces */\n  0x00\n    /* \"contracts/ERC/ERC165.sol\":745:778  _supportedInterfaces[interfaceId] */\n  dup1\n    /* \"contracts/ERC/ERC165.sol\":766:777  interfaceId */\n  dup4\n    /* \"contracts/ERC/ERC165.sol\":745:778  _supportedInterfaces[interfaceId] */\n  not(0xffffffffffffffffffffffffffffffffffffffffffffffffffffffff)\n  and\n  not(0xffffffffffffffffffffffffffffffffffffffffffffffffffffffff)\n  and\n  dup2\n  mstore\n  0x20\n  add\n  swap1\n  dup2\n  mstore\n  0x20\n  add\n  0x00\n  keccak256\n  0x00\n    /* \"contracts/ERC/ERC165.sol\":745:785  _supportedInterfaces[interfaceId] = true */\n  0x0100\n  exp\n  dup2\n  sload\n  dup2\n  0xff\n  mul\n  not\n  and\n  swap1\n  dup4\n  iszero\n  iszero\n  mul\n  or\n  swap1\n  sstore\n  pop\n    /* \"contracts/ERC/ERC165.sol\":607:792  function _registerInterface(bytes4 interfaceId) public {... */\n  pop\n  jump\t// out\n    /* \"#utility.yul\":7:176   */\ntag_11:\n    /* \"#utility.yul\":91:102   */\n  0x00\n    /* \"#utility.yul\":125:131   */\n  dup3\n    /* \"#utility.yul\":120:123   */\n  dup3\n    /* \"#utility.yul\":113:132   */\n  mstore\n    /* \"#utility.yul\":165:169   */\n  0x20\n    /* \"#utility.yul\":160:163   */\n  dup3\n    /* \"#utility.yul\":156:170   */\n  add\n    /* \"#utility.yul\":141:170   */\n  swap1\n  pop\n    /* \"#utility.yul\":7:176   */\n  swap3\n  swap2\n  pop\n  pop\n  jump\t// out\n    /* \"#utility.yul\":182:357   */\ntag_12:\n    /* \"#utility.yul\":322:349   */\n  0x4552433136353a20696e76616c696420696e7465726661636500000000000000\n    /* \"#utility.yul\":318:319   */\n  0x00\n    /* \"#utility.yul\":310:316   */\n  dup3\n    /* \"#utility.yul\":306:320   */\n  add\n    /* \"#utility.yul\":299:350   */\n  mstore\n    /* \"#utility.yul\":182:357   */\n  pop\n  jump\t// out\n    /* \"#utility.yul\":363:729   */\ntag_13:\n    /* \"#utility.yul\":505:508   */\n  0x00\n    /* \"#utility.yul\":526:593   */\n  tag_18\n    /* \"#utility.yul\":590:592   */\n  0x19\n    /* \"#utility.yul\":585:588   */\n  dup4\n    /* \"#utility.yul\":526:593   */\n  tag_11\n  jump\t// in\ntag_18:\n    /* \"#utility.yul\":519:593   */\n  swap2\n  pop\n    /* \"#utility.yul\":602:695   */\n  tag_19\n    /* \"#utility.yul\":691:694   */\n  dup3\n    /* \"#utility.yul\":602:695   */\n  tag_12\n  jump\t// in\ntag_19:\n    /* \"#utility.yul\":720:722   */\n  0x20\n    /* \"#utility.yul\":715:718   */\n  dup3\n    /* \"#utility.yul\":711:723   */\n  add\n    /* \"#utility.yul\":704:723   */\n  swap1\n  pop\n    /* \"#utility.yul\":363:729   */\n  swap2\n  swap1\n  pop\n  jump\t// out\n    /* \"#utility.yul\":735:1154   */\ntag_10:\n    /* \"#utility.yul\":901:905   */\n  0x00\n    /* \"#utility.yul\":939:941   */\n  0x20\n    /* \"#utility.yul\":928:937   */\n  dup3\n    /* \"#utility.yul\":924:942   */\n  add\n    /* \"#utility.yul\":916:942   */\n  swap1\n  pop\n    /* \"#utility.yul\":988:997   */\n  dup2\n    /* \"#utility.yul\":982:986   */\n  dup2\n    /* \"#utility.yul\":978:998   */\n  sub\n    /* \"#utility.yul\":974:975   */\n  0x00\n    /* \"#utility.yul\":963:972   */\n  dup4\n    /* \"#utility.yul\":959:976   */\n  add\n    /* \"#utility.yul\":952:999   */\n  mstore\n    /* \"#utility.yul\":1016:1147   */\n  tag_21\n    /* \"#utility.yul\":1142:1146   */\n  dup2\n    /* \"#utility.yul\":1016:1147   */\n  tag_13\n  jump\t// in\ntag_21:\n    /* \"#utility.yul\":1008:1147   */\n  swap1\n  pop\n    /* \"#utility.yul\":735:1154   */\n  swap2\n  swap1\n  pop\n  jump\t// out\n    /* \"contracts/ERC/ERC165.sol\":170:794  contract ERC165 is IERC165 {... */\ntag_6:\n  dataSize(sub_0)\n  dup1\n  dataOffset(sub_0)\n  0x00\n  codecopy\n  0x00\n  return\nstop\n\nsub_0: assembly {\n        /* \"contracts/ERC/ERC165.sol\":170:794  contract ERC165 is IERC165 {... */\n      mstore(0x40, 0x80)\n      callvalue\n      dup1\n      iszero\n      tag_1\n      jumpi\n      0x00\n      dup1\n      revert\n    tag_1:\n      pop\n      jumpi(tag_2, lt(calldatasize, 0x04))\n      shr(0xe0, calldataload(0x00))\n      dup1\n      0x01ffc9a7\n      eq\n      tag_3\n      jumpi\n      dup1\n      0x068417d9\n      eq\n      tag_4\n      jumpi\n      dup1\n      0x8b1ccaee\n      eq\n      tag_5\n      jumpi\n    tag_2:\n      0x00\n      dup1\n      revert\n        /* \"contracts/ERC/ERC165.sol\":460:601  function supportsInterface(bytes4 interfaceId) external override view returns(bool) {... */\n    tag_3:\n      tag_6\n      0x04\n      dup1\n      calldatasize\n      sub\n      dup2\n      add\n      swap1\n      tag_7\n      swap2\n      swap1\n      tag_8\n      jump\t// in\n    tag_7:\n      tag_9\n      jump\t// in\n    tag_6:\n      mload(0x40)\n      tag_10\n      swap2\n      swap1\n      tag_11\n      jump\t// in\n    tag_10:\n      mload(0x40)\n      dup1\n      swap2\n      sub\n      swap1\n      return\n        /* \"contracts/ERC/ERC165.sol\":607:792  function _registerInterface(bytes4 interfaceId) public {... */\n    tag_4:\n      tag_12\n      0x04\n      dup1\n      calldatasize\n      sub\n      dup2\n      add\n      swap1\n      tag_13\n      swap2\n      swap1\n      tag_8\n      jump\t// in\n    tag_13:\n      tag_14\n      jump\t// in\n    tag_12:\n      stop\n        /* \"contracts/ERC/ERC165.sol\":329:454  function calcFingerPrint() public pure returns(bytes4) {... */\n    tag_5:\n      tag_15\n      tag_16\n      jump\t// in\n    tag_15:\n      mload(0x40)\n      tag_17\n      swap2\n      swap1\n      tag_18\n      jump\t// in\n    tag_17:\n      mload(0x40)\n      dup1\n      swap2\n      sub\n      swap1\n      return\n        /* \"contracts/ERC/ERC165.sol\":460:601  function supportsInterface(bytes4 interfaceId) external override view returns(bool) {... */\n    tag_9:\n        /* \"contracts/ERC/ERC165.sol\":538:542  bool */\n      0x00\n        /* \"contracts/ERC/ERC165.sol\":561:581  _supportedInterfaces */\n      dup1\n        /* \"contracts/ERC/ERC165.sol\":561:594  _supportedInterfaces[interfaceId] */\n      0x00\n        /* \"contracts/ERC/ERC165.sol\":582:593  interfaceId */\n      dup4\n        /* \"contracts/ERC/ERC165.sol\":561:594  _supportedInterfaces[interfaceId] */\n      not(0xffffffffffffffffffffffffffffffffffffffffffffffffffffffff)\n      and\n      not(0xffffffffffffffffffffffffffffffffffffffffffffffffffffffff)\n      and\n      dup2\n      mstore\n      0x20\n      add\n      swap1\n      dup2\n      mstore\n      0x20\n      add\n      0x00\n      keccak256\n      0x00\n      swap1\n      sload\n      swap1\n      0x0100\n      exp\n      swap1\n      div\n      0xff\n      and\n        /* \"contracts/ERC/ERC165.sol\":554:594  return _supportedInterfaces[interfaceId] */\n      swap1\n      pop\n        /* \"contracts/ERC/ERC165.sol\":460:601  function supportsInterface(bytes4 interfaceId) external override view returns(bool) {... */\n      swap2\n      swap1\n      pop\n      jump\t// out\n        /* \"contracts/ERC/ERC165.sol\":607:792  function _registerInterface(bytes4 interfaceId) public {... */\n    tag_14:\n        /* \"contracts/ERC/ERC165.sol\":695:705  0xffffffff */\n      0xffffffff\n        /* \"contracts/ERC/ERC165.sol\":680:705  interfaceId != 0xffffffff */\n      0xe0\n      shl\n        /* \"contracts/ERC/ERC165.sol\":680:691  interfaceId */\n      dup2\n        /* \"contracts/ERC/ERC165.sol\":680:705  interfaceId != 0xffffffff */\n      not(0xffffffffffffffffffffffffffffffffffffffffffffffffffffffff)\n      and\n      sub\n        /* \"contracts/ERC/ERC165.sol\":672:735  require(interfaceId != 0xffffffff, \"ERC165: invalid interface\") */\n      tag_21\n      jumpi\n      mload(0x40)\n      0x08c379a000000000000000000000000000000000000000000000000000000000\n      dup2\n      mstore\n      0x04\n      add\n      tag_22\n      swap1\n      tag_23\n      jump\t// in\n    tag_22:\n      mload(0x40)\n      dup1\n      swap2\n      sub\n      swap1\n      revert\n    tag_21:\n        /* \"contracts/ERC/ERC165.sol\":781:785  true */\n      0x01\n        /* \"contracts/ERC/ERC165.sol\":745:765  _supportedInterfaces */\n      0x00\n        /* \"contracts/ERC/ERC165.sol\":745:778  _supportedInterfaces[interfaceId] */\n      dup1\n        /* \"contracts/ERC/ERC165.sol\":766:777  interfaceId */\n      dup4\n        /* \"contracts/ERC/ERC165.sol\":745:778  _supportedInterfaces[interfaceId] */\n      not(0xffffffffffffffffffffffffffffffffffffffffffffffffffffffff)\n      and\n      not(0xffffffffffffffffffffffffffffffffffffffffffffffffffffffff)\n      and\n      dup2\n      mstore\n      0x20\n      add\n      swap1\n      dup2\n      mstore\n      0x20\n      add\n      0x00\n      keccak256\n      0x00\n        /* \"contracts/ERC/ERC165.sol\":745:785  _supportedInterfaces[interfaceId] = true */\n      0x0100\n      exp\n      dup2\n      sload\n      dup2\n      0xff\n      mul\n      not\n      and\n      swap1\n      dup4\n      iszero\n      iszero\n      mul\n      or\n      swap1\n      sstore\n      pop\n        /* \"contracts/ERC/ERC165.sol\":607:792  function _registerInterface(bytes4 interfaceId) public {... */\n      pop\n      jump\t// out\n        /* \"contracts/ERC/ERC165.sol\":329:454  function calcFingerPrint() public pure returns(bytes4) {... */\n    tag_16:\n        /* \"contracts/ERC/ERC165.sol\":376:382  bytes4 */\n      0x00\n        /* \"contracts/ERC/ERC165.sol\":408:446  keccak256('supportsInterface(bytes4)') */\n      0x01ffc9a7a5cef8baa21ed3c5c0d7e23accb804b619e9333b597f47a0d84076e2\n        /* \"contracts/ERC/ERC165.sol\":394:447  return bytes4(keccak256('supportsInterface(bytes4)')) */\n      swap1\n      pop\n        /* \"contracts/ERC/ERC165.sol\":329:454  function calcFingerPrint() public pure returns(bytes4) {... */\n      swap1\n      jump\t// out\n        /* \"#utility.yul\":88:205   */\n    tag_26:\n        /* \"#utility.yul\":197:198   */\n      0x00\n        /* \"#utility.yul\":194:195   */\n      dup1\n        /* \"#utility.yul\":187:199   */\n      revert\n        /* \"#utility.yul\":334:483   */\n    tag_28:\n        /* \"#utility.yul\":370:377   */\n      0x00\n        /* \"#utility.yul\":410:476   */\n      0xffffffff00000000000000000000000000000000000000000000000000000000\n        /* \"#utility.yul\":403:408   */\n      dup3\n        /* \"#utility.yul\":399:477   */\n      and\n        /* \"#utility.yul\":388:477   */\n      swap1\n      pop\n        /* \"#utility.yul\":334:483   */\n      swap2\n      swap1\n      pop\n      jump\t// out\n        /* \"#utility.yul\":489:609   */\n    tag_29:\n        /* \"#utility.yul\":561:584   */\n      tag_43\n        /* \"#utility.yul\":578:583   */\n      dup2\n        /* \"#utility.yul\":561:584   */\n      tag_28\n      jump\t// in\n    tag_43:\n        /* \"#utility.yul\":554:559   */\n      dup2\n        /* \"#utility.yul\":551:585   */\n      eq\n        /* \"#utility.yul\":541:603   */\n      tag_44\n      jumpi\n        /* \"#utility.yul\":599:600   */\n      0x00\n        /* \"#utility.yul\":596:597   */\n      dup1\n        /* \"#utility.yul\":589:601   */\n      revert\n        /* \"#utility.yul\":541:603   */\n    tag_44:\n        /* \"#utility.yul\":489:609   */\n      pop\n      jump\t// out\n        /* \"#utility.yul\":615:752   */\n    tag_30:\n        /* \"#utility.yul\":660:665   */\n      0x00\n        /* \"#utility.yul\":698:704   */\n      dup2\n        /* \"#utility.yul\":685:705   */\n      calldataload\n        /* \"#utility.yul\":676:705   */\n      swap1\n      pop\n        /* \"#utility.yul\":714:746   */\n      tag_46\n        /* \"#utility.yul\":740:745   */\n      dup2\n        /* \"#utility.yul\":714:746   */\n      tag_29\n      jump\t// in\n    tag_46:\n        /* \"#utility.yul\":615:752   */\n      swap3\n      swap2\n      pop\n      pop\n      jump\t// out\n        /* \"#utility.yul\":758:1085   */\n    tag_8:\n        /* \"#utility.yul\":816:822   */\n      0x00\n        /* \"#utility.yul\":865:867   */\n      0x20\n        /* \"#utility.yul\":853:862   */\n      dup3\n        /* \"#utility.yul\":844:851   */\n      dup5\n        /* \"#utility.yul\":840:863   */\n      sub\n        /* \"#utility.yul\":836:868   */\n      slt\n        /* \"#utility.yul\":833:952   */\n      iszero\n      tag_48\n      jumpi\n        /* \"#utility.yul\":871:950   */\n      tag_49\n      tag_26\n      jump\t// in\n    tag_49:\n        /* \"#utility.yul\":833:952   */\n    tag_48:\n        /* \"#utility.yul\":991:992   */\n      0x00\n        /* \"#utility.yul\":1016:1068   */\n      tag_50\n        /* \"#utility.yul\":1060:1067   */\n      dup5\n        /* \"#utility.yul\":1051:1057   */\n      dup3\n        /* \"#utility.yul\":1040:1049   */\n      dup6\n        /* \"#utility.yul\":1036:1058   */\n      add\n        /* \"#utility.yul\":1016:1068   */\n      tag_30\n      jump\t// in\n    tag_50:\n        /* \"#utility.yul\":1006:1068   */\n      swap2\n      pop\n        /* \"#utility.yul\":962:1078   */\n      pop\n        /* \"#utility.yul\":758:1085   */\n      swap3\n      swap2\n      pop\n      pop\n      jump\t// out\n        /* \"#utility.yul\":1091:1181   */\n    tag_31:\n        /* \"#utility.yul\":1125:1132   */\n      0x00\n        /* \"#utility.yul\":1168:1173   */\n      dup2\n        /* \"#utility.yul\":1161:1174   */\n      iszero\n        /* \"#utility.yul\":1154:1175   */\n      iszero\n        /* \"#utility.yul\":1143:1175   */\n      swap1\n      pop\n        /* \"#utility.yul\":1091:1181   */\n      swap2\n      swap1\n      pop\n      jump\t// out\n        /* \"#utility.yul\":1187:1296   */\n    tag_32:\n        /* \"#utility.yul\":1268:1289   */\n      tag_53\n        /* \"#utility.yul\":1283:1288   */\n      dup2\n        /* \"#utility.yul\":1268:1289   */\n      tag_31\n      jump\t// in\n    tag_53:\n        /* \"#utility.yul\":1263:1266   */\n      dup3\n        /* \"#utility.yul\":1256:1290   */\n      mstore\n        /* \"#utility.yul\":1187:1296   */\n      pop\n      pop\n      jump\t// out\n        /* \"#utility.yul\":1302:1512   */\n    tag_11:\n        /* \"#utility.yul\":1389:1393   */\n      0x00\n        /* \"#utility.yul\":1427:1429   */\n      0x20\n        /* \"#utility.yul\":1416:1425   */\n      dup3\n        /* \"#utility.yul\":1412:1430   */\n      add\n        /* \"#utility.yul\":1404:1430   */\n      swap1\n      pop\n        /* \"#utility.yul\":1440:1505   */\n      tag_55\n        /* \"#utility.yul\":1502:1503   */\n      0x00\n        /* \"#utility.yul\":1491:1500   */\n      dup4\n        /* \"#utility.yul\":1487:1504   */\n      add\n        /* \"#utility.yul\":1478:1484   */\n      dup5\n        /* \"#utility.yul\":1440:1505   */\n      tag_32\n      jump\t// in\n    tag_55:\n        /* \"#utility.yul\":1302:1512   */\n      swap3\n      swap2\n      pop\n      pop\n      jump\t// out\n        /* \"#utility.yul\":1518:1633   */\n    tag_33:\n        /* \"#utility.yul\":1603:1626   */\n      tag_57\n        /* \"#utility.yul\":1620:1625   */\n      dup2\n        /* \"#utility.yul\":1603:1626   */\n      tag_28\n      jump\t// in\n    tag_57:\n        /* \"#utility.yul\":1598:1601   */\n      dup3\n        /* \"#utility.yul\":1591:1627   */\n      mstore\n        /* \"#utility.yul\":1518:1633   */\n      pop\n      pop\n      jump\t// out\n        /* \"#utility.yul\":1639:1857   */\n    tag_18:\n        /* \"#utility.yul\":1730:1734   */\n      0x00\n        /* \"#utility.yul\":1768:1770   */\n      0x20\n        /* \"#utility.yul\":1757:1766   */\n      dup3\n        /* \"#utility.yul\":1753:1771   */\n      add\n        /* \"#utility.yul\":1745:1771   */\n      swap1\n      pop\n        /* \"#utility.yul\":1781:1850   */\n      tag_59\n        /* \"#utility.yul\":1847:1848   */\n      0x00\n        /* \"#utility.yul\":1836:1845   */\n      dup4\n        /* \"#utility.yul\":1832:1849   */\n      add\n        /* \"#utility.yul\":1823:1829   */\n      dup5\n        /* \"#utility.yul\":1781:1850   */\n      tag_33\n      jump\t// in\n    tag_59:\n        /* \"#utility.yul\":1639:1857   */\n      swap3\n      swap2\n      pop\n      pop\n      jump\t// out\n        /* \"#utility.yul\":1863:2032   */\n    tag_34:\n        /* \"#utility.yul\":1947:1958   */\n      0x00\n        /* \"#utility.yul\":1981:1987   */\n      dup3\n        /* \"#utility.yul\":1976:1979   */\n      dup3\n        /* \"#utility.yul\":1969:1988   */\n      mstore\n        /* \"#utility.yul\":2021:2025   */\n      0x20\n        /* \"#utility.yul\":2016:2019   */\n      dup3\n        /* \"#utility.yul\":2012:2026   */\n      add\n        /* \"#utility.yul\":1997:2026   */\n      swap1\n      pop\n        /* \"#utility.yul\":1863:2032   */\n      swap3\n      swap2\n      pop\n      pop\n      jump\t// out\n        /* \"#utility.yul\":2038:2213   */\n    tag_35:\n        /* \"#utility.yul\":2178:2205   */\n      0x4552433136353a20696e76616c696420696e7465726661636500000000000000\n        /* \"#utility.yul\":2174:2175   */\n      0x00\n        /* \"#utility.yul\":2166:2172   */\n      dup3\n        /* \"#utility.yul\":2162:2176   */\n      add\n        /* \"#utility.yul\":2155:2206   */\n      mstore\n        /* \"#utility.yul\":2038:2213   */\n      pop\n      jump\t// out\n        /* \"#utility.yul\":2219:2585   */\n    tag_36:\n        /* \"#utility.yul\":2361:2364   */\n      0x00\n        /* \"#utility.yul\":2382:2449   */\n      tag_63\n        /* \"#utility.yul\":2446:2448   */\n      0x19\n        /* \"#utility.yul\":2441:2444   */\n      dup4\n        /* \"#utility.yul\":2382:2449   */\n      tag_34\n      jump\t// in\n    tag_63:\n        /* \"#utility.yul\":2375:2449   */\n      swap2\n      pop\n        /* \"#utility.yul\":2458:2551   */\n      tag_64\n        /* \"#utility.yul\":2547:2550   */\n      dup3\n        /* \"#utility.yul\":2458:2551   */\n      tag_35\n      jump\t// in\n    tag_64:\n        /* \"#utility.yul\":2576:2578   */\n      0x20\n        /* \"#utility.yul\":2571:2574   */\n      dup3\n        /* \"#utility.yul\":2567:2579   */\n      add\n        /* \"#utility.yul\":2560:2579   */\n      swap1\n      pop\n        /* \"#utility.yul\":2219:2585   */\n      swap2\n      swap1\n      pop\n      jump\t// out\n        /* \"#utility.yul\":2591:3010   */\n    tag_23:\n        /* \"#utility.yul\":2757:2761   */\n      0x00\n        /* \"#utility.yul\":2795:2797   */\n      0x20\n        /* \"#utility.yul\":2784:2793   */\n      dup3\n        /* \"#utility.yul\":2780:2798   */\n      add\n        /* \"#utility.yul\":2772:2798   */\n      swap1\n      pop\n        /* \"#utility.yul\":2844:2853   */\n      dup2\n        /* \"#utility.yul\":2838:2842   */\n      dup2\n        /* \"#utility.yul\":2834:2854   */\n      sub\n        /* \"#utility.yul\":2830:2831   */\n      0x00\n        /* \"#utility.yul\":2819:2828   */\n      dup4\n        /* \"#utility.yul\":2815:2832   */\n      add\n        /* \"#utility.yul\":2808:2855   */\n      mstore\n        /* \"#utility.yul\":2872:3003   */\n      tag_66\n        /* \"#utility.yul\":2998:3002   */\n      dup2\n        /* \"#utility.yul\":2872:3003   */\n      tag_36\n      jump\t// in\n    tag_66:\n        /* \"#utility.yul\":2864:3003   */\n      swap1\n      pop\n        /* \"#utility.yul\":2591:3010   */\n      swap2\n      swap1\n      pop\n      jump\t// out\n\n    auxdata: 0xa2646970667358221220ac1edd13e6d18915c860f570ec65516e6c71bd38050cb94119b8170e661c055464736f6c634300080f0033\n}\n",
				"bytecode": {
					"linkReferences": {},
					"object": "608060405234801561001057600080fd5b506100276301ffc9a760e01b61002c60201b60201c565b61017d565b63ffffffff60e01b817bffffffffffffffffffffffffffffffffffffffffffffffffffffffff191603610094576040517f08c379a000000000000000000000000000000000000000000000000000000000815260040161008b9061015d565b60405180910390fd5b6001600080837bffffffffffffffffffffffffffffffffffffffffffffffffffffffff19167bffffffffffffffffffffffffffffffffffffffffffffffffffffffff1916815260200190815260200160002060006101000a81548160ff02191690831515021790555050565b600082825260208201905092915050565b7f4552433136353a20696e76616c696420696e7465726661636500000000000000600082015250565b6000610147601983610100565b915061015282610111565b602082019050919050565b600060208201905081810360008301526101768161013a565b9050919050565b6103b08061018c6000396000f3fe608060405234801561001057600080fd5b50600436106100415760003560e01c806301ffc9a714610046578063068417d9146100765780638b1ccaee14610092575b600080fd5b610060600480360381019061005b9190610270565b6100b0565b60405161006d91906102b8565b60405180910390f35b610090600480360381019061008b9190610270565b610117565b005b61009a6101eb565b6040516100a791906102e2565b60405180910390f35b6000806000837bffffffffffffffffffffffffffffffffffffffffffffffffffffffff19167bffffffffffffffffffffffffffffffffffffffffffffffffffffffff1916815260200190815260200160002060009054906101000a900460ff169050919050565b63ffffffff60e01b817bffffffffffffffffffffffffffffffffffffffffffffffffffffffff19160361017f576040517f08c379a00000000000000000000000000000000000000000000000000000000081526004016101769061035a565b60405180910390fd5b6001600080837bffffffffffffffffffffffffffffffffffffffffffffffffffffffff19167bffffffffffffffffffffffffffffffffffffffffffffffffffffffff1916815260200190815260200160002060006101000a81548160ff02191690831515021790555050565b60007f01ffc9a7a5cef8baa21ed3c5c0d7e23accb804b619e9333b597f47a0d84076e2905090565b600080fd5b60007fffffffff0000000000000000000000000000000000000000000000000000000082169050919050565b61024d81610218565b811461025857600080fd5b50565b60008135905061026a81610244565b92915050565b60006020828403121561028657610285610213565b5b60006102948482850161025b565b91505092915050565b60008115159050919050565b6102b28161029d565b82525050565b60006020820190506102cd60008301846102a9565b92915050565b6102dc81610218565b82525050565b60006020820190506102f760008301846102d3565b92915050565b600082825260208201905092915050565b7f4552433136353a20696e76616c696420696e7465726661636500000000000000600082015250565b60006103446019836102fd565b915061034f8261030e565b602082019050919050565b6000602082019050818103600083015261037381610337565b905091905056fea2646970667358221220ac1edd13e6d18915c860f570ec65516e6c71bd38050cb94119b8170e661c055464736f6c634300080f0033",
					"opcodes": "PUSH1 0x80 PUSH1 0x40 MSTORE CALLVALUE DUP1 ISZERO PUSH2 0x10 JUMPI PUSH1 0x0 DUP1 REVERT JUMPDEST POP PUSH2 0x27 PUSH4 0x1FFC9A7 PUSH1 0xE0 SHL PUSH2 0x2C PUSH1 0x20 SHL PUSH1 0x20 SHR JUMP JUMPDEST PUSH2 0x17D JUMP JUMPDEST PUSH4 0xFFFFFFFF PUSH1 0xE0 SHL DUP2 PUSH28 0xFFFFFFFFFFFFFFFFFFFFFFFFFFFFFFFFFFFFFFFFFFFFFFFFFFFFFFFF NOT AND SUB PUSH2 0x94 JUMPI PUSH1 0x40 MLOAD PUSH32 0x8C379A000000000000000000000000000000000000000000000000000000000 DUP2 MSTORE PUSH1 0x4 ADD PUSH2 0x8B SWAP1 PUSH2 0x15D JUMP JUMPDEST PUSH1 0x40 MLOAD DUP1 SWAP2 SUB SWAP1 REVERT JUMPDEST PUSH1 0x1 PUSH1 0x0 DUP1 DUP4 PUSH28 0xFFFFFFFFFFFFFFFFFFFFFFFFFFFFFFFFFFFFFFFFFFFFFFFFFFFFFFFF NOT AND PUSH28 0xFFFFFFFFFFFFFFFFFFFFFFFFFFFFFFFFFFFFFFFFFFFFFFFFFFFFFFFF NOT AND DUP2 MSTORE PUSH1 0x20 ADD SWAP1 DUP2 MSTORE PUSH1 0x20 ADD PUSH1 0x0 KECCAK256 PUSH1 0x0 PUSH2 0x100 EXP DUP2 SLOAD DUP2 PUSH1 0xFF MUL NOT AND SWAP1 DUP4 ISZERO ISZERO MUL OR SWAP1 SSTORE POP POP JUMP JUMPDEST PUSH1 0x0 DUP3 DUP3 MSTORE PUSH1 0x20 DUP3 ADD SWAP1 POP SWAP3 SWAP2 POP POP JUMP JUMPDEST PUSH32 0x4552433136353A20696E76616C696420696E7465726661636500000000000000 PUSH1 0x0 DUP3 ADD MSTORE POP JUMP JUMPDEST PUSH1 0x0 PUSH2 0x147 PUSH1 0x19 DUP4 PUSH2 0x100 JUMP JUMPDEST SWAP2 POP PUSH2 0x152 DUP3 PUSH2 0x111 JUMP JUMPDEST PUSH1 0x20 DUP3 ADD SWAP1 POP SWAP2 SWAP1 POP JUMP JUMPDEST PUSH1 0x0 PUSH1 0x20 DUP3 ADD SWAP1 POP DUP2 DUP2 SUB PUSH1 0x0 DUP4 ADD MSTORE PUSH2 0x176 DUP2 PUSH2 0x13A JUMP JUMPDEST SWAP1 POP SWAP2 SWAP1 POP JUMP JUMPDEST PUSH2 0x3B0 DUP1 PUSH2 0x18C PUSH1 0x0 CODECOPY PUSH1 0x0 RETURN INVALID PUSH1 0x80 PUSH1 0x40 MSTORE CALLVALUE DUP1 ISZERO PUSH2 0x10 JUMPI PUSH1 0x0 DUP1 REVERT JUMPDEST POP PUSH1 0x4 CALLDATASIZE LT PUSH2 0x41 JUMPI PUSH1 0x0 CALLDATALOAD PUSH1 0xE0 SHR DUP1 PUSH4 0x1FFC9A7 EQ PUSH2 0x46 JUMPI DUP1 PUSH4 0x68417D9 EQ PUSH2 0x76 JUMPI DUP1 PUSH4 0x8B1CCAEE EQ PUSH2 0x92 JUMPI JUMPDEST PUSH1 0x0 DUP1 REVERT JUMPDEST PUSH2 0x60 PUSH1 0x4 DUP1 CALLDATASIZE SUB DUP2 ADD SWAP1 PUSH2 0x5B SWAP2 SWAP1 PUSH2 0x270 JUMP JUMPDEST PUSH2 0xB0 JUMP JUMPDEST PUSH1 0x40 MLOAD PUSH2 0x6D SWAP2 SWAP1 PUSH2 0x2B8 JUMP JUMPDEST PUSH1 0x40 MLOAD DUP1 SWAP2 SUB SWAP1 RETURN JUMPDEST PUSH2 0x90 PUSH1 0x4 DUP1 CALLDATASIZE SUB DUP2 ADD SWAP1 PUSH2 0x8B SWAP2 SWAP1 PUSH2 0x270 JUMP JUMPDEST PUSH2 0x117 JUMP JUMPDEST STOP JUMPDEST PUSH2 0x9A PUSH2 0x1EB JUMP JUMPDEST PUSH1 0x40 MLOAD PUSH2 0xA7 SWAP2 SWAP1 PUSH2 0x2E2 JUMP JUMPDEST PUSH1 0x40 MLOAD DUP1 SWAP2 SUB SWAP1 RETURN JUMPDEST PUSH1 0x0 DUP1 PUSH1 0x0 DUP4 PUSH28 0xFFFFFFFFFFFFFFFFFFFFFFFFFFFFFFFFFFFFFFFFFFFFFFFFFFFFFFFF NOT AND PUSH28 0xFFFFFFFFFFFFFFFFFFFFFFFFFFFFFFFFFFFFFFFFFFFFFFFFFFFFFFFF NOT AND DUP2 MSTORE PUSH1 0x20 ADD SWAP1 DUP2 MSTORE PUSH1 0x20 ADD PUSH1 0x0 KECCAK256 PUSH1 0x0 SWAP1 SLOAD SWAP1 PUSH2 0x100 EXP SWAP1 DIV PUSH1 0xFF AND SWAP1 POP SWAP2 SWAP1 POP JUMP JUMPDEST PUSH4 0xFFFFFFFF PUSH1 0xE0 SHL DUP2 PUSH28 0xFFFFFFFFFFFFFFFFFFFFFFFFFFFFFFFFFFFFFFFFFFFFFFFFFFFFFFFF NOT AND SUB PUSH2 0x17F JUMPI PUSH1 0x40 MLOAD PUSH32 0x8C379A000000000000000000000000000000000000000000000000000000000 DUP2 MSTORE PUSH1 0x4 ADD PUSH2 0x176 SWAP1 PUSH2 0x35A JUMP JUMPDEST PUSH1 0x40 MLOAD DUP1 SWAP2 SUB SWAP1 REVERT JUMPDEST PUSH1 0x1 PUSH1 0x0 DUP1 DUP4 PUSH28 0xFFFFFFFFFFFFFFFFFFFFFFFFFFFFFFFFFFFFFFFFFFFFFFFFFFFFFFFF NOT AND PUSH28 0xFFFFFFFFFFFFFFFFFFFFFFFFFFFFFFFFFFFFFFFFFFFFFFFFFFFFFFFF NOT AND DUP2 MSTORE PUSH1 0x20 ADD SWAP1 DUP2 MSTORE PUSH1 0x20 ADD PUSH1 0x0 KECCAK256 PUSH1 0x0 PUSH2 0x100 EXP DUP2 SLOAD DUP2 PUSH1 0xFF MUL NOT AND SWAP1 DUP4 ISZERO ISZERO MUL OR SWAP1 SSTORE POP POP JUMP JUMPDEST PUSH1 0x0 PUSH32 0x1FFC9A7A5CEF8BAA21ED3C5C0D7E23ACCB804B619E9333B597F47A0D84076E2 SWAP1 POP SWAP1 JUMP JUMPDEST PUSH1 0x0 DUP1 REVERT JUMPDEST PUSH1 0x0 PUSH32 0xFFFFFFFF00000000000000000000000000000000000000000000000000000000 DUP3 AND SWAP1 POP SWAP2 SWAP1 POP JUMP JUMPDEST PUSH2 0x24D DUP2 PUSH2 0x218 JUMP JUMPDEST DUP2 EQ PUSH2 0x258 JUMPI PUSH1 0x0 DUP1 REVERT JUMPDEST POP JUMP JUMPDEST PUSH1 0x0 DUP2 CALLDATALOAD SWAP1 POP PUSH2 0x26A DUP2 PUSH2 0x244 JUMP JUMPDEST SWAP3 SWAP2 POP POP JUMP JUMPDEST PUSH1 0x0 PUSH1 0x20 DUP3 DUP5 SUB SLT ISZERO PUSH2 0x286 JUMPI PUSH2 0x285 PUSH2 0x213 JUMP JUMPDEST JUMPDEST PUSH1 0x0 PUSH2 0x294 DUP5 DUP3 DUP6 ADD PUSH2 0x25B JUMP JUMPDEST SWAP2 POP POP SWAP3 SWAP2 POP POP JUMP JUMPDEST PUSH1 0x0 DUP2 ISZERO ISZERO SWAP1 POP SWAP2 SWAP1 POP JUMP JUMPDEST PUSH2 0x2B2 DUP2 PUSH2 0x29D JUMP JUMPDEST DUP3 MSTORE POP POP JUMP JUMPDEST PUSH1 0x0 PUSH1 0x20 DUP3 ADD SWAP1 POP PUSH2 0x2CD PUSH1 0x0 DUP4 ADD DUP5 PUSH2 0x2A9 JUMP JUMPDEST SWAP3 SWAP2 POP POP JUMP JUMPDEST PUSH2 0x2DC DUP2 PUSH2 0x218 JUMP JUMPDEST DUP3 MSTORE POP POP JUMP JUMPDEST PUSH1 0x0 PUSH1 0x20 DUP3 ADD SWAP1 POP PUSH2 0x2F7 PUSH1 0x0 DUP4 ADD DUP5 PUSH2 0x2D3 JUMP JUMPDEST SWAP3 SWAP2 POP POP JUMP JUMPDEST PUSH1 0x0 DUP3 DUP3 MSTORE PUSH1 0x20 DUP3 ADD SWAP1 POP SWAP3 SWAP2 POP POP JUMP JUMPDEST PUSH32 0x4552433136353A20696E76616C696420696E7465726661636500000000000000 PUSH1 0x0 DUP3 ADD MSTORE POP JUMP JUMPDEST PUSH1 0x0 PUSH2 0x344 PUSH1 0x19 DUP4 PUSH2 0x2FD JUMP JUMPDEST SWAP2 POP PUSH2 0x34F DUP3 PUSH2 0x30E JUMP JUMPDEST PUSH1 0x20 DUP3 ADD SWAP1 POP SWAP2 SWAP1 POP JUMP JUMPDEST PUSH1 0x0 PUSH1 0x20 DUP3 ADD SWAP1 POP DUP2 DUP2 SUB PUSH1 0x0 DUP4 ADD MSTORE PUSH2 0x373 DUP2 PUSH2 0x337 JUMP JUMPDEST SWAP1 POP SWAP2 SWAP1 POP JUMP INVALID LOG2 PUSH5 0x6970667358 0x22 SLT KECCAK256 0xAC 0x1E 0xDD SGT 0xE6 0xD1 DUP10 ISZERO 0xC8 PUSH1 0xF5 PUSH17 0xEC65516E6C71BD38050CB94119B8170E66 SHR SDIV SLOAD PUSH5 0x736F6C6343 STOP ADDMOD 0xF STOP CALLER "
				},
				"gasEstimates": {
					"creation": {
						"codeDepositCost": "188800",
						"executionCost": "infinite",
						"totalCost": "infinite"
					},
					"external": {
						"_registerInterface(bytes4)": "24813",
						"calcFingerPrint()": "365",
						"supportsInterface(bytes4)": "2824"
					}
				},
				"methodIdentifiers": {
					"_registerInterface(bytes4)": "068417d9",
					"calcFingerPrint()": "8b1ccaee",
					"supportsInterface(bytes4)": "01ffc9a7"
				}
			},
			"storageLayout": {
				"storage": [
					{
						"astId": 15,
						"contract": "contracts/ERC/ERC165.sol:ERC165",
						"label": "_supportedInterfaces",
						"offset": 0,
						"slot": "0",
						"type": "t_mapping(t_bytes4,t_bool)"
					}
				],
				"types": {
					"t_bool": {
						"encoding": "inplace",
						"label": "bool",
						"numberOfBytes": "1"
					},
					"t_bytes4": {
						"encoding": "inplace",
						"label": "bytes4",
						"numberOfBytes": "4"
					},
					"t_mapping(t_bytes4,t_bool)": {
						"encoding": "mapping",
						"key": "t_bytes4",
						"label": "mapping(bytes4 => bool)",
						"numberOfBytes": "32",
						"value": "t_bool"
					}
				}
			},
			"userdoc": {
				"kind": "user",
				"methods": {},
				"version": 1
			}
		}
	}
}